Archive member included to satisfy reference by file (symbol)

d:/rt-threadstudio/repo/extract/toolchain_support_packages/arm/gnu_tools_for_arm_embedded_processors/5.4.1/bin/../lib/gcc/arm-none-eabi/5.4.1/armv7e-m/fpu\libgcc.a(_arm_addsubdf3.o)
                              ./applications/usart_command.o (__aeabi_dsub)
d:/rt-threadstudio/repo/extract/toolchain_support_packages/arm/gnu_tools_for_arm_embedded_processors/5.4.1/bin/../lib/gcc/arm-none-eabi/5.4.1/armv7e-m/fpu\libgcc.a(_arm_muldivdf3.o)
                              ./applications/usart_command.o (__aeabi_dmul)
d:/rt-threadstudio/repo/extract/toolchain_support_packages/arm/gnu_tools_for_arm_embedded_processors/5.4.1/bin/../lib/gcc/arm-none-eabi/5.4.1/armv7e-m/fpu\libgcc.a(_arm_cmpdf2.o)
                              ./applications/usart_command.o (__aeabi_dcmpeq)
d:/rt-threadstudio/repo/extract/toolchain_support_packages/arm/gnu_tools_for_arm_embedded_processors/5.4.1/bin/../lib/gcc/arm-none-eabi/5.4.1/armv7e-m/fpu\libgcc.a(_arm_truncdfsf2.o)
                              ./applications/usart_command.o (__aeabi_d2f)
d:/rt-threadstudio/repo/extract/toolchain_support_packages/arm/gnu_tools_for_arm_embedded_processors/5.4.1/bin/../lib/gcc/arm-none-eabi/5.4.1/../../../../arm-none-eabi/lib/armv7e-m/fpu\libc.a(lib_a-atof.o)
                              ./applications/usart_command.o (atof)
d:/rt-threadstudio/repo/extract/toolchain_support_packages/arm/gnu_tools_for_arm_embedded_processors/5.4.1/bin/../lib/gcc/arm-none-eabi/5.4.1/../../../../arm-none-eabi/lib/armv7e-m/fpu\libc.a(lib_a-exit.o)
                              d:/rt-threadstudio/repo/extract/toolchain_support_packages/arm/gnu_tools_for_arm_embedded_processors/5.4.1/bin/../lib/gcc/arm-none-eabi/5.4.1/../../../../arm-none-eabi/lib/armv7e-m/fpu/crt0.o (exit)
d:/rt-threadstudio/repo/extract/toolchain_support_packages/arm/gnu_tools_for_arm_embedded_processors/5.4.1/bin/../lib/gcc/arm-none-eabi/5.4.1/../../../../arm-none-eabi/lib/armv7e-m/fpu\libc.a(lib_a-impure.o)
                              d:/rt-threadstudio/repo/extract/toolchain_support_packages/arm/gnu_tools_for_arm_embedded_processors/5.4.1/bin/../lib/gcc/arm-none-eabi/5.4.1/../../../../arm-none-eabi/lib/armv7e-m/fpu\libc.a(lib_a-exit.o) (_global_impure_ptr)
d:/rt-threadstudio/repo/extract/toolchain_support_packages/arm/gnu_tools_for_arm_embedded_processors/5.4.1/bin/../lib/gcc/arm-none-eabi/5.4.1/../../../../arm-none-eabi/lib/armv7e-m/fpu\libc.a(lib_a-locale.o)
                              ./applications/usart_command.o (__locale_ctype_ptr)
d:/rt-threadstudio/repo/extract/toolchain_support_packages/arm/gnu_tools_for_arm_embedded_processors/5.4.1/bin/../lib/gcc/arm-none-eabi/5.4.1/../../../../arm-none-eabi/lib/armv7e-m/fpu\libc.a(lib_a-mbtowc_r.o)
                              d:/rt-threadstudio/repo/extract/toolchain_support_packages/arm/gnu_tools_for_arm_embedded_processors/5.4.1/bin/../lib/gcc/arm-none-eabi/5.4.1/../../../../arm-none-eabi/lib/armv7e-m/fpu\libc.a(lib_a-locale.o) (__ascii_mbtowc)
d:/rt-threadstudio/repo/extract/toolchain_support_packages/arm/gnu_tools_for_arm_embedded_processors/5.4.1/bin/../lib/gcc/arm-none-eabi/5.4.1/../../../../arm-none-eabi/lib/armv7e-m/fpu\libc.a(lib_a-memcpy.o)
                              ./rt-thread/components/drivers/src/ringbuffer.o (memcpy)
d:/rt-threadstudio/repo/extract/toolchain_support_packages/arm/gnu_tools_for_arm_embedded_processors/5.4.1/bin/../lib/gcc/arm-none-eabi/5.4.1/../../../../arm-none-eabi/lib/armv7e-m/fpu\libc.a(lib_a-memset.o)
                              d:/rt-threadstudio/repo/extract/toolchain_support_packages/arm/gnu_tools_for_arm_embedded_processors/5.4.1/bin/../lib/gcc/arm-none-eabi/5.4.1/../../../../arm-none-eabi/lib/armv7e-m/fpu/crt0.o (memset)
d:/rt-threadstudio/repo/extract/toolchain_support_packages/arm/gnu_tools_for_arm_embedded_processors/5.4.1/bin/../lib/gcc/arm-none-eabi/5.4.1/../../../../arm-none-eabi/lib/armv7e-m/fpu\libc.a(lib_a-snprintf.o)
                              ./applications/spi_cs1238.o (snprintf)
d:/rt-threadstudio/repo/extract/toolchain_support_packages/arm/gnu_tools_for_arm_embedded_processors/5.4.1/bin/../lib/gcc/arm-none-eabi/5.4.1/../../../../arm-none-eabi/lib/armv7e-m/fpu\libc.a(lib_a-strcmp.o)
                              d:/rt-threadstudio/repo/extract/toolchain_support_packages/arm/gnu_tools_for_arm_embedded_processors/5.4.1/bin/../lib/gcc/arm-none-eabi/5.4.1/../../../../arm-none-eabi/lib/armv7e-m/fpu\libc.a(lib_a-locale.o) (strcmp)
d:/rt-threadstudio/repo/extract/toolchain_support_packages/arm/gnu_tools_for_arm_embedded_processors/5.4.1/bin/../lib/gcc/arm-none-eabi/5.4.1/../../../../arm-none-eabi/lib/armv7e-m/fpu\libc.a(lib_a-strcpy.o)
                              ./applications/usart_command.o (strcpy)
d:/rt-threadstudio/repo/extract/toolchain_support_packages/arm/gnu_tools_for_arm_embedded_processors/5.4.1/bin/../lib/gcc/arm-none-eabi/5.4.1/../../../../arm-none-eabi/lib/armv7e-m/fpu\libc.a(lib_a-strlen.o)
                              ./applications/usart_command.o (strlen)
d:/rt-threadstudio/repo/extract/toolchain_support_packages/arm/gnu_tools_for_arm_embedded_processors/5.4.1/bin/../lib/gcc/arm-none-eabi/5.4.1/../../../../arm-none-eabi/lib/armv7e-m/fpu\libc.a(lib_a-strncmp.o)
                              ./applications/usart_command.o (strncmp)
d:/rt-threadstudio/repo/extract/toolchain_support_packages/arm/gnu_tools_for_arm_embedded_processors/5.4.1/bin/../lib/gcc/arm-none-eabi/5.4.1/../../../../arm-none-eabi/lib/armv7e-m/fpu\libc.a(lib_a-strtod.o)
                              d:/rt-threadstudio/repo/extract/toolchain_support_packages/arm/gnu_tools_for_arm_embedded_processors/5.4.1/bin/../lib/gcc/arm-none-eabi/5.4.1/../../../../arm-none-eabi/lib/armv7e-m/fpu\libc.a(lib_a-atof.o) (strtod)
d:/rt-threadstudio/repo/extract/toolchain_support_packages/arm/gnu_tools_for_arm_embedded_processors/5.4.1/bin/../lib/gcc/arm-none-eabi/5.4.1/../../../../arm-none-eabi/lib/armv7e-m/fpu\libc.a(lib_a-strtok.o)
                              ./applications/usart_command.o (strtok)
d:/rt-threadstudio/repo/extract/toolchain_support_packages/arm/gnu_tools_for_arm_embedded_processors/5.4.1/bin/../lib/gcc/arm-none-eabi/5.4.1/../../../../arm-none-eabi/lib/armv7e-m/fpu\libc.a(lib_a-strtok_r.o)
                              d:/rt-threadstudio/repo/extract/toolchain_support_packages/arm/gnu_tools_for_arm_embedded_processors/5.4.1/bin/../lib/gcc/arm-none-eabi/5.4.1/../../../../arm-none-eabi/lib/armv7e-m/fpu\libc.a(lib_a-strtok.o) (__strtok_r)
d:/rt-threadstudio/repo/extract/toolchain_support_packages/arm/gnu_tools_for_arm_embedded_processors/5.4.1/bin/../lib/gcc/arm-none-eabi/5.4.1/../../../../arm-none-eabi/lib/armv7e-m/fpu\libc.a(lib_a-svfprintf.o)
                              d:/rt-threadstudio/repo/extract/toolchain_support_packages/arm/gnu_tools_for_arm_embedded_processors/5.4.1/bin/../lib/gcc/arm-none-eabi/5.4.1/../../../../arm-none-eabi/lib/armv7e-m/fpu\libc.a(lib_a-snprintf.o) (_svfprintf_r)
d:/rt-threadstudio/repo/extract/toolchain_support_packages/arm/gnu_tools_for_arm_embedded_processors/5.4.1/bin/../lib/gcc/arm-none-eabi/5.4.1/../../../../arm-none-eabi/lib/armv7e-m/fpu\libc.a(lib_a-wctomb_r.o)
                              d:/rt-threadstudio/repo/extract/toolchain_support_packages/arm/gnu_tools_for_arm_embedded_processors/5.4.1/bin/../lib/gcc/arm-none-eabi/5.4.1/../../../../arm-none-eabi/lib/armv7e-m/fpu\libc.a(lib_a-locale.o) (__ascii_wctomb)
d:/rt-threadstudio/repo/extract/toolchain_support_packages/arm/gnu_tools_for_arm_embedded_processors/5.4.1/bin/../lib/gcc/arm-none-eabi/5.4.1/../../../../arm-none-eabi/lib/armv7e-m/fpu\libc.a(lib_a-__call_atexit.o)
                              d:/rt-threadstudio/repo/extract/toolchain_support_packages/arm/gnu_tools_for_arm_embedded_processors/5.4.1/bin/../lib/gcc/arm-none-eabi/5.4.1/../../../../arm-none-eabi/lib/armv7e-m/fpu\libc.a(lib_a-exit.o) (__call_exitprocs)
d:/rt-threadstudio/repo/extract/toolchain_support_packages/arm/gnu_tools_for_arm_embedded_processors/5.4.1/bin/../lib/gcc/arm-none-eabi/5.4.1/../../../../arm-none-eabi/lib/armv7e-m/fpu\libc.a(lib_a-atexit.o)
                              d:/rt-threadstudio/repo/extract/toolchain_support_packages/arm/gnu_tools_for_arm_embedded_processors/5.4.1/bin/../lib/gcc/arm-none-eabi/5.4.1/../../../../arm-none-eabi/lib/armv7e-m/fpu\libc.a(lib_a-__call_atexit.o) (atexit)
d:/rt-threadstudio/repo/extract/toolchain_support_packages/arm/gnu_tools_for_arm_embedded_processors/5.4.1/bin/../lib/gcc/arm-none-eabi/5.4.1/../../../../arm-none-eabi/lib/armv7e-m/fpu\libc.a(lib_a-ctype_.o)
                              d:/rt-threadstudio/repo/extract/toolchain_support_packages/arm/gnu_tools_for_arm_embedded_processors/5.4.1/bin/../lib/gcc/arm-none-eabi/5.4.1/../../../../arm-none-eabi/lib/armv7e-m/fpu\libc.a(lib_a-locale.o) (_ctype_)
d:/rt-threadstudio/repo/extract/toolchain_support_packages/arm/gnu_tools_for_arm_embedded_processors/5.4.1/bin/../lib/gcc/arm-none-eabi/5.4.1/../../../../arm-none-eabi/lib/armv7e-m/fpu\libc.a(lib_a-dtoa.o)
                              d:/rt-threadstudio/repo/extract/toolchain_support_packages/arm/gnu_tools_for_arm_embedded_processors/5.4.1/bin/../lib/gcc/arm-none-eabi/5.4.1/../../../../arm-none-eabi/lib/armv7e-m/fpu\libc.a(lib_a-svfprintf.o) (_dtoa_r)
d:/rt-threadstudio/repo/extract/toolchain_support_packages/arm/gnu_tools_for_arm_embedded_processors/5.4.1/bin/../lib/gcc/arm-none-eabi/5.4.1/../../../../arm-none-eabi/lib/armv7e-m/fpu\libc.a(lib_a-fini.o)
                              d:/rt-threadstudio/repo/extract/toolchain_support_packages/arm/gnu_tools_for_arm_embedded_processors/5.4.1/bin/../lib/gcc/arm-none-eabi/5.4.1/../../../../arm-none-eabi/lib/armv7e-m/fpu\libc.a(lib_a-__call_atexit.o) (__libc_fini_array)
d:/rt-threadstudio/repo/extract/toolchain_support_packages/arm/gnu_tools_for_arm_embedded_processors/5.4.1/bin/../lib/gcc/arm-none-eabi/5.4.1/../../../../arm-none-eabi/lib/armv7e-m/fpu\libc.a(lib_a-gdtoa-gethex.o)
                              d:/rt-threadstudio/repo/extract/toolchain_support_packages/arm/gnu_tools_for_arm_embedded_processors/5.4.1/bin/../lib/gcc/arm-none-eabi/5.4.1/../../../../arm-none-eabi/lib/armv7e-m/fpu\libc.a(lib_a-strtod.o) (__gethex)
d:/rt-threadstudio/repo/extract/toolchain_support_packages/arm/gnu_tools_for_arm_embedded_processors/5.4.1/bin/../lib/gcc/arm-none-eabi/5.4.1/../../../../arm-none-eabi/lib/armv7e-m/fpu\libc.a(lib_a-gdtoa-hexnan.o)
                              d:/rt-threadstudio/repo/extract/toolchain_support_packages/arm/gnu_tools_for_arm_embedded_processors/5.4.1/bin/../lib/gcc/arm-none-eabi/5.4.1/../../../../arm-none-eabi/lib/armv7e-m/fpu\libc.a(lib_a-strtod.o) (__match)
d:/rt-threadstudio/repo/extract/toolchain_support_packages/arm/gnu_tools_for_arm_embedded_processors/5.4.1/bin/../lib/gcc/arm-none-eabi/5.4.1/../../../../arm-none-eabi/lib/armv7e-m/fpu\libc.a(lib_a-localeconv.o)
                              d:/rt-threadstudio/repo/extract/toolchain_support_packages/arm/gnu_tools_for_arm_embedded_processors/5.4.1/bin/../lib/gcc/arm-none-eabi/5.4.1/../../../../arm-none-eabi/lib/armv7e-m/fpu\libc.a(lib_a-strtod.o) (__localeconv_l)
d:/rt-threadstudio/repo/extract/toolchain_support_packages/arm/gnu_tools_for_arm_embedded_processors/5.4.1/bin/../lib/gcc/arm-none-eabi/5.4.1/../../../../arm-none-eabi/lib/armv7e-m/fpu\libc.a(lib_a-memchr.o)
                              d:/rt-threadstudio/repo/extract/toolchain_support_packages/arm/gnu_tools_for_arm_embedded_processors/5.4.1/bin/../lib/gcc/arm-none-eabi/5.4.1/../../../../arm-none-eabi/lib/armv7e-m/fpu\libc.a(lib_a-svfprintf.o) (memchr)
d:/rt-threadstudio/repo/extract/toolchain_support_packages/arm/gnu_tools_for_arm_embedded_processors/5.4.1/bin/../lib/gcc/arm-none-eabi/5.4.1/../../../../arm-none-eabi/lib/armv7e-m/fpu\libc.a(lib_a-mprec.o)
                              d:/rt-threadstudio/repo/extract/toolchain_support_packages/arm/gnu_tools_for_arm_embedded_processors/5.4.1/bin/../lib/gcc/arm-none-eabi/5.4.1/../../../../arm-none-eabi/lib/armv7e-m/fpu\libc.a(lib_a-strtod.o) (_Balloc)
d:/rt-threadstudio/repo/extract/toolchain_support_packages/arm/gnu_tools_for_arm_embedded_processors/5.4.1/bin/../lib/gcc/arm-none-eabi/5.4.1/../../../../arm-none-eabi/lib/armv7e-m/fpu\libc.a(lib_a-sf_nan.o)
                              d:/rt-threadstudio/repo/extract/toolchain_support_packages/arm/gnu_tools_for_arm_embedded_processors/5.4.1/bin/../lib/gcc/arm-none-eabi/5.4.1/../../../../arm-none-eabi/lib/armv7e-m/fpu\libc.a(lib_a-strtod.o) (nanf)
d:/rt-threadstudio/repo/extract/toolchain_support_packages/arm/gnu_tools_for_arm_embedded_processors/5.4.1/bin/../lib/gcc/arm-none-eabi/5.4.1/../../../../arm-none-eabi/lib/armv7e-m/fpu\libc.a(lib_a-svfiprintf.o)
                              d:/rt-threadstudio/repo/extract/toolchain_support_packages/arm/gnu_tools_for_arm_embedded_processors/5.4.1/bin/../lib/gcc/arm-none-eabi/5.4.1/../../../../arm-none-eabi/lib/armv7e-m/fpu\libc.a(lib_a-svfprintf.o) (__ssprint_r)
d:/rt-threadstudio/repo/extract/toolchain_support_packages/arm/gnu_tools_for_arm_embedded_processors/5.4.1/bin/../lib/gcc/arm-none-eabi/5.4.1/../../../../arm-none-eabi/lib/armv7e-m/fpu\libc.a(lib_a-__atexit.o)
                              d:/rt-threadstudio/repo/extract/toolchain_support_packages/arm/gnu_tools_for_arm_embedded_processors/5.4.1/bin/../lib/gcc/arm-none-eabi/5.4.1/../../../../arm-none-eabi/lib/armv7e-m/fpu\libc.a(lib_a-atexit.o) (__register_exitproc)
d:/rt-threadstudio/repo/extract/toolchain_support_packages/arm/gnu_tools_for_arm_embedded_processors/5.4.1/bin/../lib/gcc/arm-none-eabi/5.4.1/../../../../arm-none-eabi/lib/armv7e-m/fpu\libc.a(lib_a-memmove.o)
                              d:/rt-threadstudio/repo/extract/toolchain_support_packages/arm/gnu_tools_for_arm_embedded_processors/5.4.1/bin/../lib/gcc/arm-none-eabi/5.4.1/../../../../arm-none-eabi/lib/armv7e-m/fpu\libc.a(lib_a-svfiprintf.o) (memmove)
d:/rt-threadstudio/repo/extract/toolchain_support_packages/arm/gnu_tools_for_arm_embedded_processors/5.4.1/bin/../lib/gcc/arm-none-eabi/5.4.1/armv7e-m/fpu\libgcc.a(_arm_unorddf2.o)
                              d:/rt-threadstudio/repo/extract/toolchain_support_packages/arm/gnu_tools_for_arm_embedded_processors/5.4.1/bin/../lib/gcc/arm-none-eabi/5.4.1/../../../../arm-none-eabi/lib/armv7e-m/fpu\libc.a(lib_a-strtod.o) (__aeabi_dcmpun)
d:/rt-threadstudio/repo/extract/toolchain_support_packages/arm/gnu_tools_for_arm_embedded_processors/5.4.1/bin/../lib/gcc/arm-none-eabi/5.4.1/armv7e-m/fpu\libgcc.a(_arm_fixdfsi.o)
                              d:/rt-threadstudio/repo/extract/toolchain_support_packages/arm/gnu_tools_for_arm_embedded_processors/5.4.1/bin/../lib/gcc/arm-none-eabi/5.4.1/../../../../arm-none-eabi/lib/armv7e-m/fpu\libc.a(lib_a-strtod.o) (__aeabi_d2iz)
d:/rt-threadstudio/repo/extract/toolchain_support_packages/arm/gnu_tools_for_arm_embedded_processors/5.4.1/bin/../lib/gcc/arm-none-eabi/5.4.1/armv7e-m/fpu\libgcc.a(_arm_fixunsdfsi.o)
                              d:/rt-threadstudio/repo/extract/toolchain_support_packages/arm/gnu_tools_for_arm_embedded_processors/5.4.1/bin/../lib/gcc/arm-none-eabi/5.4.1/../../../../arm-none-eabi/lib/armv7e-m/fpu\libc.a(lib_a-strtod.o) (__aeabi_d2uiz)
d:/rt-threadstudio/repo/extract/toolchain_support_packages/arm/gnu_tools_for_arm_embedded_processors/5.4.1/bin/../lib/gcc/arm-none-eabi/5.4.1/armv7e-m/fpu\libgcc.a(_aeabi_uldivmod.o)
                              d:/rt-threadstudio/repo/extract/toolchain_support_packages/arm/gnu_tools_for_arm_embedded_processors/5.4.1/bin/../lib/gcc/arm-none-eabi/5.4.1/../../../../arm-none-eabi/lib/armv7e-m/fpu\libc.a(lib_a-svfprintf.o) (__aeabi_uldivmod)
d:/rt-threadstudio/repo/extract/toolchain_support_packages/arm/gnu_tools_for_arm_embedded_processors/5.4.1/bin/../lib/gcc/arm-none-eabi/5.4.1/armv7e-m/fpu\libgcc.a(_udivmoddi4.o)
                              d:/rt-threadstudio/repo/extract/toolchain_support_packages/arm/gnu_tools_for_arm_embedded_processors/5.4.1/bin/../lib/gcc/arm-none-eabi/5.4.1/armv7e-m/fpu\libgcc.a(_aeabi_uldivmod.o) (__udivmoddi4)
d:/rt-threadstudio/repo/extract/toolchain_support_packages/arm/gnu_tools_for_arm_embedded_processors/5.4.1/bin/../lib/gcc/arm-none-eabi/5.4.1/armv7e-m/fpu\libgcc.a(_dvmd_tls.o)
                              d:/rt-threadstudio/repo/extract/toolchain_support_packages/arm/gnu_tools_for_arm_embedded_processors/5.4.1/bin/../lib/gcc/arm-none-eabi/5.4.1/armv7e-m/fpu\libgcc.a(_aeabi_uldivmod.o) (__aeabi_ldiv0)

Allocating common symbols
Common symbol       size              file

usart_flage_voltage
                    0x1               ./applications/usart_command.o
rt_interrupt_to_thread
                    0x4               ./rt-thread/libcpu/arm/cortex-m4/cpuport.o
DMAPTPRxDescToGet   0x4               ./Libraries/N32_Std_Driver/n32g45x_std_periph_driver/src/n32g45x_eth.o
rt_interrupt_from_thread
                    0x4               ./rt-thread/libcpu/arm/cortex-m4/cpuport.o
DMARxDescToGet      0x4               ./Libraries/N32_Std_Driver/n32g45x_std_periph_driver/src/n32g45x_eth.o
rt_thread_switch_interrupt_flag
                    0x4               ./rt-thread/libcpu/arm/cortex-m4/cpuport.o
usart_flage_current
                    0x1               ./applications/usart_command.o
display_current     0xa               ./applications/iic.o
DMATxDescToSet      0x4               ./Libraries/N32_Std_Driver/n32g45x_std_periph_driver/src/n32g45x_eth.o
rt_thread_priority_table
                    0x100             ./rt-thread/src/scheduler.o
serial1             0x54              ./Libraries/rt_drivers/drv_usart.o
cc_cvflage          0x1               ./applications/key.o
spi_da              0x4               ./applications/spi_da.o
rt_current_priority
                    0x1               ./rt-thread/src/scheduler.o
display_voltage     0xa               ./applications/iic.o
display_current_read
                    0xa               ./applications/iic.o
rt_assert_hook      0x4               ./rt-thread/src/kservice.o
rt_thread_ready_priority_group
                    0x4               ./rt-thread/src/scheduler.o
USART_RX_BUF        0x20              ./applications/usart.o
display_voltage_read
                    0xa               ./applications/iic.o
OLED_GRAM           0x480             ./applications/iic.o
serial2             0x54              ./Libraries/rt_drivers/drv_usart.o
DMAPTPTxDescToSet   0x4               ./Libraries/N32_Std_Driver/n32g45x_std_periph_driver/src/n32g45x_eth.o
config              0x8               ./applications/usart.o

Discarded input sections

 .text          0x00000000        0x0 d:/rt-threadstudio/repo/extract/toolchain_support_packages/arm/gnu_tools_for_arm_embedded_processors/5.4.1/bin/../lib/gcc/arm-none-eabi/5.4.1/armv7e-m/fpu/crti.o
 .data          0x00000000        0x0 d:/rt-threadstudio/repo/extract/toolchain_support_packages/arm/gnu_tools_for_arm_embedded_processors/5.4.1/bin/../lib/gcc/arm-none-eabi/5.4.1/armv7e-m/fpu/crti.o
 .bss           0x00000000        0x0 d:/rt-threadstudio/repo/extract/toolchain_support_packages/arm/gnu_tools_for_arm_embedded_processors/5.4.1/bin/../lib/gcc/arm-none-eabi/5.4.1/armv7e-m/fpu/crti.o
 .data          0x00000000        0x4 d:/rt-threadstudio/repo/extract/toolchain_support_packages/arm/gnu_tools_for_arm_embedded_processors/5.4.1/bin/../lib/gcc/arm-none-eabi/5.4.1/armv7e-m/fpu/crtbegin.o
 .fini_array    0x00000000        0x4 d:/rt-threadstudio/repo/extract/toolchain_support_packages/arm/gnu_tools_for_arm_embedded_processors/5.4.1/bin/../lib/gcc/arm-none-eabi/5.4.1/armv7e-m/fpu/crtbegin.o
 .text          0x00000000       0x74 d:/rt-threadstudio/repo/extract/toolchain_support_packages/arm/gnu_tools_for_arm_embedded_processors/5.4.1/bin/../lib/gcc/arm-none-eabi/5.4.1/../../../../arm-none-eabi/lib/armv7e-m/fpu/crt0.o
 .data          0x00000000        0x0 d:/rt-threadstudio/repo/extract/toolchain_support_packages/arm/gnu_tools_for_arm_embedded_processors/5.4.1/bin/../lib/gcc/arm-none-eabi/5.4.1/../../../../arm-none-eabi/lib/armv7e-m/fpu/crt0.o
 .bss           0x00000000        0x0 d:/rt-threadstudio/repo/extract/toolchain_support_packages/arm/gnu_tools_for_arm_embedded_processors/5.4.1/bin/../lib/gcc/arm-none-eabi/5.4.1/../../../../arm-none-eabi/lib/armv7e-m/fpu/crt0.o
 .ARM.extab     0x00000000        0x0 d:/rt-threadstudio/repo/extract/toolchain_support_packages/arm/gnu_tools_for_arm_embedded_processors/5.4.1/bin/../lib/gcc/arm-none-eabi/5.4.1/../../../../arm-none-eabi/lib/armv7e-m/fpu/crt0.o
 .ARM.exidx     0x00000000        0x8 d:/rt-threadstudio/repo/extract/toolchain_support_packages/arm/gnu_tools_for_arm_embedded_processors/5.4.1/bin/../lib/gcc/arm-none-eabi/5.4.1/../../../../arm-none-eabi/lib/armv7e-m/fpu/crt0.o
 .ARM.attributes
                0x00000000       0x20 d:/rt-threadstudio/repo/extract/toolchain_support_packages/arm/gnu_tools_for_arm_embedded_processors/5.4.1/bin/../lib/gcc/arm-none-eabi/5.4.1/../../../../arm-none-eabi/lib/armv7e-m/fpu/crt0.o
 .text          0x00000000        0x0 ./rt-thread/src/clock.o
 .data          0x00000000        0x0 ./rt-thread/src/clock.o
 .bss           0x00000000        0x0 ./rt-thread/src/clock.o
 .text.rt_tick_set
                0x00000000       0x28 ./rt-thread/src/clock.o
 .text.rt_tick_get_millisecond
Memory Configuration

Name             Origin             Length             Attributes
CODE             0x08000000         0x00040000         xr
DATA             0x20000000         0x00010000         rw
*default*        0x00000000         0xffffffff

Linker script and memory map

LOAD d:/rt-threadstudio/repo/extract/toolchain_support_packages/arm/gnu_tools_for_arm_embedded_processors/5.4.1/bin/../lib/gcc/arm-none-eabi/5.4.1/armv7e-m/fpu/crti.o
LOAD d:/rt-threadstudio/repo/extract/toolchain_support_packages/arm/gnu_tools_for_arm_embedded_processors/5.4.1/bin/../lib/gcc/arm-none-eabi/5.4.1/armv7e-m/fpu/crtbegin.o
LOAD d:/rt-threadstudio/repo/extract/toolchain_support_packages/arm/gnu_tools_for_arm_embedded_processors/5.4.1/bin/../lib/gcc/arm-none-eabi/5.4.1/../../../../arm-none-eabi/lib/armv7e-m/fpu/crt0.o
LOAD ./rt-thread/src/clock.o
LOAD ./rt-thread/src/components.o
LOAD ./rt-thread/src/device.o
LOAD ./rt-thread/src/idle.o
LOAD ./rt-thread/src/ipc.o
LOAD ./rt-thread/src/irq.o
LOAD ./rt-thread/src/kservice.o
LOAD ./rt-thread/src/mem.o
LOAD ./rt-thread/src/mempool.o
LOAD ./rt-thread/src/object.o
LOAD ./rt-thread/src/scheduler.o
LOAD ./rt-thread/src/thread.o
LOAD ./rt-thread/src/timer.o
LOAD ./rt-thread/libcpu/arm/cortex-m4/context_gcc.o
LOAD ./rt-thread/libcpu/arm/cortex-m4/cpuport.o
LOAD ./rt-thread/libcpu/arm/common/backtrace.o
LOAD ./rt-thread/libcpu/arm/common/div0.o
LOAD ./rt-thread/libcpu/arm/common/showmem.o
LOAD ./rt-thread/components/libc/compilers/gcc/newlib/syscalls.o
LOAD ./rt-thread/components/libc/compilers/common/time.o
LOAD ./rt-thread/components/drivers/src/completion.o
LOAD ./rt-thread/components/drivers/src/dataqueue.o
LOAD ./rt-thread/components/drivers/src/pipe.o
LOAD ./rt-thread/components/drivers/src/ringblk_buf.o
LOAD ./rt-thread/components/drivers/src/ringbuffer.o
LOAD ./rt-thread/components/drivers/src/waitqueue.o
LOAD ./rt-thread/components/drivers/src/workqueue.o
LOAD ./rt-thread/components/drivers/spi/spi_core.o
LOAD ./rt-thread/components/drivers/spi/spi_dev.o
LOAD ./rt-thread/components/drivers/serial/serial.o
LOAD ./rt-thread/components/drivers/misc/pin.o
LOAD ./rt-thread/components/drivers/misc/rt_drv_pwm.o
LOAD ./board/msp/n32_msp.o
LOAD ./board/board.o
LOAD ./applications/iic.o
LOAD ./applications/key.o
LOAD ./applications/led.o
LOAD ./applications/main.o
LOAD ./applications/spi_cs1238.o
LOAD ./applications/spi_da.o
LOAD ./applications/usart.o
LOAD ./applications/usart_command.o
LOAD ./Libraries/rt_drivers/drv_common.o
LOAD ./Libraries/rt_drivers/drv_gpio.o
LOAD ./Libraries/rt_drivers/drv_spi.o
LOAD ./Libraries/rt_drivers/drv_usart.o
LOAD ./Libraries/N32_Std_Driver/n32g45x_std_periph_driver/src/misc.o
LOAD ./Libraries/N32_Std_Driver/n32g45x_std_periph_driver/src/n32g45x_adc.o
LOAD ./Libraries/N32_Std_Driver/n32g45x_std_periph_driver/src/n32g45x_bkp.o
LOAD ./Libraries/N32_Std_Driver/n32g45x_std_periph_driver/src/n32g45x_can.o
LOAD ./Libraries/N32_Std_Driver/n32g45x_std_periph_driver/src/n32g45x_comp.o
LOAD ./Libraries/N32_Std_Driver/n32g45x_std_periph_driver/src/n32g45x_crc.o
LOAD ./Libraries/N32_Std_Driver/n32g45x_std_periph_driver/src/n32g45x_dac.o
LOAD ./Libraries/N32_Std_Driver/n32g45x_std_periph_driver/src/n32g45x_dbg.o
LOAD ./Libraries/N32_Std_Driver/n32g45x_std_periph_driver/src/n32g45x_dma.o
LOAD ./Libraries/N32_Std_Driver/n32g45x_std_periph_driver/src/n32g45x_dvp.o
LOAD ./Libraries/N32_Std_Driver/n32g45x_std_periph_driver/src/n32g45x_eth.o
LOAD ./Libraries/N32_Std_Driver/n32g45x_std_periph_driver/src/n32g45x_exti.o
LOAD ./Libraries/N32_Std_Driver/n32g45x_std_periph_driver/src/n32g45x_flash.o
LOAD ./Libraries/N32_Std_Driver/n32g45x_std_periph_driver/src/n32g45x_gpio.o
LOAD ./Libraries/N32_Std_Driver/n32g45x_std_periph_driver/src/n32g45x_i2c.o
LOAD ./Libraries/N32_Std_Driver/n32g45x_std_periph_driver/src/n32g45x_iwdg.o
LOAD ./Libraries/N32_Std_Driver/n32g45x_std_periph_driver/src/n32g45x_opamp.o
LOAD ./Libraries/N32_Std_Driver/n32g45x_std_periph_driver/src/n32g45x_pwr.o
LOAD ./Libraries/N32_Std_Driver/n32g45x_std_periph_driver/src/n32g45x_qspi.o
LOAD ./Libraries/N32_Std_Driver/n32g45x_std_periph_driver/src/n32g45x_rcc.o
LOAD ./Libraries/N32_Std_Driver/n32g45x_std_periph_driver/src/n32g45x_rtc.o
LOAD ./Libraries/N32_Std_Driver/n32g45x_std_periph_driver/src/n32g45x_sdio.o
LOAD ./Libraries/N32_Std_Driver/n32g45x_std_periph_driver/src/n32g45x_spi.o
LOAD ./Libraries/N32_Std_Driver/n32g45x_std_periph_driver/src/n32g45x_tim.o
LOAD ./Libraries/N32_Std_Driver/n32g45x_std_periph_driver/src/n32g45x_tsc.o
LOAD ./Libraries/N32_Std_Driver/n32g45x_std_periph_driver/src/n32g45x_usart.o
LOAD ./Libraries/N32_Std_Driver/n32g45x_std_periph_driver/src/n32g45x_wwdg.o
LOAD ./Libraries/N32_Std_Driver/n32g45x_std_periph_driver/src/n32g45x_xfmc.o
LOAD ./Libraries/N32_Std_Driver/CMSIS/device/startup/startup_n32g45x_gcc.o
LOAD ./Libraries/N32_Std_Driver/CMSIS/device/system_n32g45x.o
LOAD d:/rt-threadstudio/repo/extract/toolchain_support_packages/arm/gnu_tools_for_arm_embedded_processors/5.4.1/bin/../lib/gcc/arm-none-eabi/5.4.1/../../../../arm-none-eabi/lib/armv7e-m/fpu\libm.a
START GROUP
LOAD d:/rt-threadstudio/repo/extract/toolchain_support_packages/arm/gnu_tools_for_arm_embedded_processors/5.4.1/bin/../lib/gcc/arm-none-eabi/5.4.1/armv7e-m/fpu\libgcc.a
LOAD d:/rt-threadstudio/repo/extract/toolchain_support_packages/arm/gnu_tools_for_arm_embedded_processors/5.4.1/bin/../lib/gcc/arm-none-eabi/5.4.1/../../../../arm-none-eabi/lib/armv7e-m/fpu\libc.a
END GROUP
LOAD d:/rt-threadstudio/repo/extract/toolchain_support_packages/arm/gnu_tools_for_arm_embedded_processors/5.4.1/bin/../lib/gcc/arm-none-eabi/5.4.1/armv7e-m/fpu/crtend.o
LOAD d:/rt-threadstudio/repo/extract/toolchain_support_packages/arm/gnu_tools_for_arm_embedded_processors/5.4.1/bin/../lib/gcc/arm-none-eabi/5.4.1/armv7e-m/fpu/crtn.o
                0x00000200                _system_stack_size = 0x200

.text           0x08000000    0x139c0
                0x08000000                . = ALIGN (0x4)
                0x08000000                _stext = .
 *(.isr_vector)
 .isr_vector    0x08000000      0x188 ./Libraries/N32_Std_Driver/CMSIS/device/startup/startup_n32g45x_gcc.o
                0x08000000                g_pfnVectors
                0x08000188                . = ALIGN (0x4)
 *(.text)
 .text          0x08000188       0x5c d:/rt-threadstudio/repo/extract/toolchain_support_packages/arm/gnu_tools_for_arm_embedded_processors/5.4.1/bin/../lib/gcc/arm-none-eabi/5.4.1/armv7e-m/fpu/crtbegin.o
 .text          0x080001e4      0x13c ./rt-thread/libcpu/arm/cortex-m4/context_gcc.o
                0x080001e4                rt_hw_interrupt_disable
                0x080001ec                rt_hw_interrupt_enable
                0x080001f2                rt_hw_context_switch_interrupt
                0x080001f2                rt_hw_context_switch
                0x08000212                PendSV_Handler
                0x0800027e                rt_hw_context_switch_to
                0x080002c4                rt_hw_interrupt_thread_switch
                0x080002c8                HardFault_Handler
 .text          0x08000320      0x370 d:/rt-threadstudio/repo/extract/toolchain_support_packages/arm/gnu_tools_for_arm_embedded_processors/5.4.1/bin/../lib/gcc/arm-none-eabi/5.4.1/armv7e-m/fpu\libgcc.a(_arm_addsubdf3.o)
                0x08000320                __aeabi_drsub
                0x08000328                __aeabi_dsub
                0x08000328                __subdf3
                0x0800032c                __aeabi_dadd
                0x0800032c                __adddf3
                0x080005a4                __floatunsidf
                0x080005a4                __aeabi_ui2d
                0x080005c4                __floatsidf
                0x080005c4                __aeabi_i2d
                0x080005e8                __aeabi_f2d
                0x080005e8                __extendsfdf2
                0x08000624                __floatundidf
                0x08000624                __aeabi_ul2d
                0x08000634                __floatdidf
                0x08000634                __aeabi_l2d
 .text          0x08000690      0x424 d:/rt-threadstudio/repo/extract/toolchain_support_packages/arm/gnu_tools_for_arm_embedded_processors/5.4.1/bin/../lib/gcc/arm-none-eabi/5.4.1/armv7e-m/fpu\libgcc.a(_arm_muldivdf3.o)
                0x08000690                __aeabi_dmul
                0x08000690                __muldf3
                0x080008e4                __divdf3
                0x080008e4                __aeabi_ddiv
 .text          0x08000ab4      0x110 d:/rt-threadstudio/repo/extract/toolchain_support_packages/arm/gnu_tools_for_arm_embedded_processors/5.4.1/bin/../lib/gcc/arm-none-eabi/5.4.1/armv7e-m/fpu\libgcc.a(_arm_cmpdf2.o)
                0x08000ab4                __gtdf2
                0x08000ab4                __gedf2
                0x08000abc                __ltdf2
                0x08000abc                __ledf2
                0x08000ac4                __nedf2
                0x08000ac4                __eqdf2
                0x08000ac4                __cmpdf2
                0x08000b40                __aeabi_cdrcmple
                0x08000b50                __aeabi_cdcmpeq
                0x08000b50                __aeabi_cdcmple
                0x08000b60                __aeabi_dcmpeq
                0x08000b74                __aeabi_dcmplt
                0x08000b88                __aeabi_dcmple
                0x08000b9c                __aeabi_dcmpge
                0x08000bb0                __aeabi_dcmpgt
 .text          0x08000bc4       0xa0 d:/rt-threadstudio/repo/extract/toolchain_support_packages/arm/gnu_tools_for_arm_embedded_processors/5.4.1/bin/../lib/gcc/arm-none-eabi/5.4.1/armv7e-m/fpu\libgcc.a(_arm_truncdfsf2.o)
                0x08000bc4                __truncdfsf2
                0x08000bc4                __aeabi_d2f
 .text          0x08000c64      0x134 d:/rt-threadstudio/repo/extract/toolchain_support_packages/arm/gnu_tools_for_arm_embedded_processors/5.4.1/bin/../lib/gcc/arm-none-eabi/5.4.1/../../../../arm-none-eabi/lib/armv7e-m/fpu\libc.a(lib_a-memcpy.o)
                0x08000c64                memcpy
 *fill*         0x08000d98       0x28 00000000
 .text          0x08000dc0       0xdc d:/rt-threadstudio/repo/extract/toolchain_support_packages/arm/gnu_tools_for_arm_embedded_processors/5.4.1/bin/../lib/gcc/arm-none-eabi/5.4.1/../../../../arm-none-eabi/lib/armv7e-m/fpu\libc.a(lib_a-strlen.o)
                0x08000dc0                strlen
 *fill*         0x08000e9c        0x4 00000000
 .text          0x08000ea0       0xa0 d:/rt-threadstudio/repo/extract/toolchain_support_packages/arm/gnu_tools_for_arm_embedded_processors/5.4.1/bin/../lib/gcc/arm-none-eabi/5.4.1/../../../../arm-none-eabi/lib/armv7e-m/fpu\libc.a(lib_a-memchr.o)
                0x08000ea0                memchr
 .text          0x08000f40       0x2c d:/rt-threadstudio/repo/extract/toolchain_support_packages/arm/gnu_tools_for_arm_embedded_processors/5.4.1/bin/../lib/gcc/arm-none-eabi/5.4.1/armv7e-m/fpu\libgcc.a(_arm_unorddf2.o)
                0x08000f40                __unorddf2
                0x08000f40                __aeabi_dcmpun
 .text          0x08000f6c       0x50 d:/rt-threadstudio/repo/extract/toolchain_support_packages/arm/gnu_tools_for_arm_embedded_processors/5.4.1/bin/../lib/gcc/arm-none-eabi/5.4.1/armv7e-m/fpu\libgcc.a(_arm_fixdfsi.o)
                0x08000f6c                __aeabi_d2iz
                0x08000f6c                __fixdfsi
 .text          0x08000fbc       0x40 d:/rt-threadstudio/repo/extract/toolchain_support_packages/arm/gnu_tools_for_arm_embedded_processors/5.4.1/bin/../lib/gcc/arm-none-eabi/5.4.1/armv7e-m/fpu\libgcc.a(_arm_fixunsdfsi.o)
                0x08000fbc                __aeabi_d2uiz
                0x08000fbc                __fixunsdfsi
 .text          0x08000ffc       0x30 d:/rt-threadstudio/repo/extract/toolchain_support_packages/arm/gnu_tools_for_arm_embedded_processors/5.4.1/bin/../lib/gcc/arm-none-eabi/5.4.1/armv7e-m/fpu\libgcc.a(_aeabi_uldivmod.o)
                0x08000ffc                __aeabi_uldivmod
 .text          0x0800102c      0x2e4 d:/rt-threadstudio/repo/extract/toolchain_support_packages/arm/gnu_tools_for_arm_embedded_processors/5.4.1/bin/../lib/gcc/arm-none-eabi/5.4.1/armv7e-m/fpu\libgcc.a(_udivmoddi4.o)
                0x0800102c                __udivmoddi4
 .text          0x08001310        0x4 d:/rt-threadstudio/repo/extract/toolchain_support_packages/arm/gnu_tools_for_arm_embedded_processors/5.4.1/bin/../lib/gcc/arm-none-eabi/5.4.1/armv7e-m/fpu\libgcc.a(_dvmd_tls.o)
                0x08001310                __aeabi_idiv0
                0x08001310                __aeabi_ldiv0
 *(.text.*)
 .text.rt_tick_get
                0x08001314       0x18 ./rt-thread/src/clock.o
                0x08001314                rt_tick_get
 .text.rt_tick_increase
                0x0800132c       0x6c ./rt-thread/src/clock.o
                0x0800132c                rt_tick_increase
 .text.rt_tick_from_millisecond
                0x08001398       0x74 ./rt-thread/src/clock.o
                0x08001398                rt_tick_from_millisecond
 .text.rti_start
                0x0800140c       0x10 ./rt-thread/src/components.o
 .text.rti_board_start
                0x0800141c       0x10 ./rt-thread/src/components.o
 .text.rti_board_end
                0x0800142c       0x10 ./rt-thread/src/components.o
 .text.rti_end  0x0800143c       0x10 ./rt-thread/src/components.o
 .text.rt_components_board_init
                0x0800144c       0x30 ./rt-thread/src/components.o
                0x0800144c                rt_components_board_init
 .text.rt_components_init
                0x0800147c       0x30 ./rt-thread/src/components.o
                0x0800147c                rt_components_init
 .text.entry    0x080014ac       0x10 ./rt-thread/src/components.o
                0x080014ac                entry
 .text.main_thread_entry
                0x080014bc       0x18 ./rt-thread/src/components.o
                0x080014bc                main_thread_entry
 .text.rt_application_init
                0x080014d4       0x4c ./rt-thread/src/components.o
                0x080014d4                rt_application_init
 .text.rtthread_startup
                0x08001520       0x30 ./rt-thread/src/components.o
                0x08001520                rtthread_startup
 .text.rt_device_register
                0x08001550       0x54 ./rt-thread/src/device.o
                0x08001550                rt_device_register
 .text.rt_device_find
                0x080015a4       0x1c ./rt-thread/src/device.o
                0x080015a4                rt_device_find
 .text.rt_device_open
                0x080015c0      0x118 ./rt-thread/src/device.o
                0x080015c0                rt_device_open
 .text.rt_device_close
                0x080016d8       0x9c ./rt-thread/src/device.o
                0x080016d8                rt_device_close
 .text.rt_device_read
                0x08001774       0x88 ./rt-thread/src/device.o
                0x08001774                rt_device_read
 .text.rt_device_write
                0x080017fc       0x88 ./rt-thread/src/device.o
                0x080017fc                rt_device_write
 .text.rt_device_control
                0x08001884       0x68 ./rt-thread/src/device.o
                0x08001884                rt_device_control
 .text.rt_device_set_rx_indicate
                0x080018ec       0x54 ./rt-thread/src/device.o
                0x080018ec                rt_device_set_rx_indicate
 .text.rt_list_insert_after
                0x08001940       0x34 ./rt-thread/src/idle.o
 .text.rt_list_remove
                0x08001974       0x38 ./rt-thread/src/idle.o
 .text.rt_thread_defunct_enqueue
                0x080019ac       0x20 ./rt-thread/src/idle.o
                0x080019ac                rt_thread_defunct_enqueue
 .text.rt_thread_defunct_dequeue
                0x080019cc       0x38 ./rt-thread/src/idle.o
                0x080019cc                rt_thread_defunct_dequeue
 .text.rt_defunct_execute
                0x08001a04       0xac ./rt-thread/src/idle.o
 .text.rt_thread_idle_entry
                0x08001ab0       0x38 ./rt-thread/src/idle.o
 .text.rt_thread_idle_init
                0x08001ae8       0x74 ./rt-thread/src/idle.o
                0x08001ae8                rt_thread_idle_init
 .text.rt_list_init
                0x08001b5c       0x24 ./rt-thread/src/ipc.o
 .text.rt_list_insert_before
                0x08001b80       0x34 ./rt-thread/src/ipc.o
 .text.rt_list_isempty
                0x08001bb4       0x24 ./rt-thread/src/ipc.o
 .text._ipc_object_init
                0x08001bd8       0x1c ./rt-thread/src/ipc.o
 .text._ipc_list_suspend
                0x08001bf4       0xa4 ./rt-thread/src/ipc.o
 .text._ipc_list_resume
                0x08001c98       0x20 ./rt-thread/src/ipc.o
 .text.rt_sem_init
                0x08001cb8       0x6c ./rt-thread/src/ipc.o
                0x08001cb8                rt_sem_init
 .text.rt_sem_take
                0x08001d24      0x134 ./rt-thread/src/ipc.o
                0x08001d24                rt_sem_take
 .text.rt_sem_release
                0x08001e58       0xa4 ./rt-thread/src/ipc.o
                0x08001e58                rt_sem_release
 .text.rt_mutex_init
                0x08001efc       0x64 ./rt-thread/src/ipc.o
                0x08001efc                rt_mutex_init
 .text.rt_mutex_take
                0x08001f60      0x1c0 ./rt-thread/src/ipc.o
                0x08001f60                rt_mutex_take
 .text.rt_mutex_release
                0x08002120      0x1a8 ./rt-thread/src/ipc.o
                0x08002120                rt_mutex_release
 .text.rt_interrupt_enter
                0x080022c8       0x2c ./rt-thread/src/irq.o
                0x080022c8                rt_interrupt_enter
 .text.rt_interrupt_leave
                0x080022f4       0x2c ./rt-thread/src/irq.o
                0x080022f4                rt_interrupt_leave
 .text.rt_interrupt_get_nest
                0x08002320       0x28 ./rt-thread/src/irq.o
                0x08002320                rt_interrupt_get_nest
 .text.rt_set_errno
                0x08002348       0x40 ./rt-thread/src/kservice.o
                0x08002348                rt_set_errno
 .text.rt_memset
                0x08002388       0xb8 ./rt-thread/src/kservice.o
                0x08002388                rt_memset
 .text.rt_memcpy
                0x08002440       0xd4 ./rt-thread/src/kservice.o
                0x08002440                rt_memcpy
 .text.rt_strncpy
                0x08002514       0x64 ./rt-thread/src/kservice.o
                0x08002514                rt_strncpy
 .text.rt_strncmp
                0x08002578       0x4c ./rt-thread/src/kservice.o
                0x08002578                rt_strncmp
 .text.rt_show_version
                0x080025c4       0x4c ./rt-thread/src/kservice.o
                0x080025c4                rt_show_version
 .text.divide   0x08002610       0x68 ./rt-thread/src/kservice.o
 .text.skip_atoi
                0x08002678       0x40 ./rt-thread/src/kservice.o
 .text.print_number
                0x080026b8      0x1dc ./rt-thread/src/kservice.o
 .text.rt_vsnprintf
                0x08002894      0x560 ./rt-thread/src/kservice.o
                0x08002894                rt_vsnprintf
 .text.rt_vsprintf
                0x08002df4       0x24 ./rt-thread/src/kservice.o
                0x08002df4                rt_vsprintf
 .text.rt_sprintf
                0x08002e18       0x2c ./rt-thread/src/kservice.o
                0x08002e18                rt_sprintf
 .text.rt_console_set_device
                0x08002e44       0x58 ./rt-thread/src/kservice.o
                0x08002e44                rt_console_set_device
 .text.rt_hw_console_output
                0x08002e9c       0x14 ./rt-thread/src/kservice.o
                0x08002e9c                rt_hw_console_output
 .text.rt_kprintf
                0x08002eb0       0x5c ./rt-thread/src/kservice.o
                0x08002eb0                rt_kprintf
 .text.__rt_ffs
                0x08002f0c       0x70 ./rt-thread/src/kservice.o
                0x08002f0c                __rt_ffs
 .text.rt_assert_handler
                0x08002f7c       0x4c ./rt-thread/src/kservice.o
                0x08002f7c                rt_assert_handler
 .text.plug_holes
                0x08002fc8      0x100 ./rt-thread/src/mem.o
 .text.rt_system_heap_init
                0x080030c8      0x118 ./rt-thread/src/mem.o
                0x080030c8                rt_system_heap_init
 .text.rt_malloc
                0x080031e0      0x278 ./rt-thread/src/mem.o
                0x080031e0                rt_malloc
 .text.rt_realloc
                0x08003458      0x1ac ./rt-thread/src/mem.o
                0x08003458                rt_realloc
 .text.rt_calloc
                0x08003604       0x3c ./rt-thread/src/mem.o
                0x08003604                rt_calloc
 .text.rt_free  0x08003640      0x174 ./rt-thread/src/mem.o
                0x08003640                rt_free
 .text.rt_list_insert_after
                0x080037b4       0x34 ./rt-thread/src/object.o
 .text.rt_list_remove
                0x080037e8       0x38 ./rt-thread/src/object.o
 .text.rt_object_get_information
                0x08003820       0x48 ./rt-thread/src/object.o
                0x08003820                rt_object_get_information
 .text.rt_object_init
                0x08003868       0xb8 ./rt-thread/src/object.o
                0x08003868                rt_object_init
 .text.rt_object_detach
                0x08003920       0x48 ./rt-thread/src/object.o
                0x08003920                rt_object_detach
 .text.rt_object_allocate
                0x08003968       0xc4 ./rt-thread/src/object.o
                0x08003968                rt_object_allocate
 .text.rt_object_delete
                0x08003a2c       0x68 ./rt-thread/src/object.o
                0x08003a2c                rt_object_delete
 .text.rt_object_is_systemobject
                0x08003a94       0x3c ./rt-thread/src/object.o
                0x08003a94                rt_object_is_systemobject
 .text.rt_object_get_type
                0x08003ad0       0x34 ./rt-thread/src/object.o
                0x08003ad0                rt_object_get_type
 .text.rt_object_find
                0x08003b04       0xb4 ./rt-thread/src/object.o
                0x08003b04                rt_object_find
 .text.rt_list_init
                0x08003bb8       0x24 ./rt-thread/src/scheduler.o
 .text.rt_list_insert_before
                0x08003bdc       0x34 ./rt-thread/src/scheduler.o
 .text.rt_list_remove
                0x08003c10       0x38 ./rt-thread/src/scheduler.o
 .text.rt_list_isempty
                0x08003c48       0x24 ./rt-thread/src/scheduler.o
 .text._rt_scheduler_stack_check
                0x08003c6c       0x94 ./rt-thread/src/scheduler.o
 .text._scheduler_get_highest_priority_thread
                0x08003d00       0x38 ./rt-thread/src/scheduler.o
 .text.rt_system_scheduler_init
                0x08003d38       0x38 ./rt-thread/src/scheduler.o
                0x08003d38                rt_system_scheduler_init
 .text.rt_system_scheduler_start
                0x08003d70       0x38 ./rt-thread/src/scheduler.o
                0x08003d70                rt_system_scheduler_start
 .text.rt_schedule
                0x08003da8      0x174 ./rt-thread/src/scheduler.o
                0x08003da8                rt_schedule
 .text.rt_schedule_insert_thread
                0x08003f1c       0xac ./rt-thread/src/scheduler.o
                0x08003f1c                rt_schedule_insert_thread
 .text.rt_schedule_remove_thread
                0x08003fc8       0x70 ./rt-thread/src/scheduler.o
                0x08003fc8                rt_schedule_remove_thread
 .text.rt_enter_critical
                0x08004038       0x2c ./rt-thread/src/scheduler.o
                0x08004038                rt_enter_critical
 .text.rt_exit_critical
                0x08004064       0x54 ./rt-thread/src/scheduler.o
                0x08004064                rt_exit_critical
 .text.rt_list_init
                0x080040b8       0x24 ./rt-thread/src/thread.o
 .text.rt_list_remove
                0x080040dc       0x38 ./rt-thread/src/thread.o
 .text._thread_cleanup_execute
                0x08004114       0x2c ./rt-thread/src/thread.o
 .text._thread_exit
                0x08004140       0x5c ./rt-thread/src/thread.o
 .text._thread_init
                0x0800419c       0xe4 ./rt-thread/src/thread.o
 .text.rt_thread_init
                0x08004280       0x70 ./rt-thread/src/thread.o
                0x08004280                rt_thread_init
 .text.rt_thread_self
                0x080042f0       0x18 ./rt-thread/src/thread.o
                0x080042f0                rt_thread_self
 .text.rt_thread_startup
                0x08004308       0xa0 ./rt-thread/src/thread.o
                0x08004308                rt_thread_startup
 .text.rt_thread_detach
                0x080043a8       0xc8 ./rt-thread/src/thread.o
                0x080043a8                rt_thread_detach
 .text.rt_thread_create
                0x08004470       0x64 ./rt-thread/src/thread.o
                0x08004470                rt_thread_create
 .text.rt_thread_delete
                0x080044d4       0xb4 ./rt-thread/src/thread.o
                0x080044d4                rt_thread_delete
 .text.rt_thread_sleep
                0x08004588       0x8c ./rt-thread/src/thread.o
                0x08004588                rt_thread_sleep
 .text.rt_thread_delay
                0x08004614       0x18 ./rt-thread/src/thread.o
                0x08004614                rt_thread_delay
 .text.rt_thread_mdelay
                0x0800462c       0x20 ./rt-thread/src/thread.o
                0x0800462c                rt_thread_mdelay
 .text.rt_thread_control
                0x0800464c       0xf0 ./rt-thread/src/thread.o
                0x0800464c                rt_thread_control
 .text.rt_thread_suspend
                0x0800473c       0xb8 ./rt-thread/src/thread.o
                0x0800473c                rt_thread_suspend
 .text.rt_thread_resume
                0x080047f4       0x84 ./rt-thread/src/thread.o
                0x080047f4                rt_thread_resume
 .text.rt_thread_timeout
                0x08004878       0x90 ./rt-thread/src/thread.o
                0x08004878                rt_thread_timeout
 .text.rt_list_init
                0x08004908       0x24 ./rt-thread/src/timer.o
 .text.rt_list_insert_after
                0x0800492c       0x34 ./rt-thread/src/timer.o
 .text.rt_list_remove
                0x08004960       0x38 ./rt-thread/src/timer.o
 .text.rt_list_isempty
                0x08004998       0x24 ./rt-thread/src/timer.o
 .text._timer_init
                0x080049bc       0x68 ./rt-thread/src/timer.o
 .text._timer_list_next_timeout
                0x08004a24       0x40 ./rt-thread/src/timer.o
 .text._timer_remove
                0x08004a64       0x34 ./rt-thread/src/timer.o
 .text.rt_timer_init
                0x08004a98       0x4c ./rt-thread/src/timer.o
                0x08004a98                rt_timer_init
 .text.rt_timer_detach
                0x08004ae4       0x90 ./rt-thread/src/timer.o
                0x08004ae4                rt_timer_detach
 .text.rt_timer_start
                0x08004b74      0x22c ./rt-thread/src/timer.o
                0x08004b74                rt_timer_start
 .text.rt_timer_stop
                0x08004da0       0x7c ./rt-thread/src/timer.o
                0x08004da0                rt_timer_stop
 .text.rt_timer_control
                0x08004e1c       0xd0 ./rt-thread/src/timer.o
                0x08004e1c                rt_timer_control
 .text.rt_timer_check
                0x08004eec       0xe0 ./rt-thread/src/timer.o
                0x08004eec                rt_timer_check
 .text.rt_soft_timer_check
                0x08004fcc       0xf8 ./rt-thread/src/timer.o
                0x08004fcc                rt_soft_timer_check
 .text._timer_thread_entry
                0x080050c4       0x58 ./rt-thread/src/timer.o
 .text.rt_system_timer_init
                0x0800511c       0x34 ./rt-thread/src/timer.o
                0x0800511c                rt_system_timer_init
 .text.rt_system_timer_thread_init
                0x08005150       0x68 ./rt-thread/src/timer.o
                0x08005150                rt_system_timer_thread_init
 .text.rt_hw_stack_init
                0x080051b8       0x90 ./rt-thread/libcpu/arm/cortex-m4/cpuport.o
                0x080051b8                rt_hw_stack_init
 .text.rt_hw_hard_fault_exception
                0x08005248      0x17c ./rt-thread/libcpu/arm/cortex-m4/cpuport.o
                0x08005248                rt_hw_hard_fault_exception
 .text._malloc_r
                0x080053c4       0x28 ./rt-thread/components/libc/compilers/gcc/newlib/syscalls.o
                0x080053c4                _malloc_r
 .text._realloc_r
                0x080053ec       0x2c ./rt-thread/components/libc/compilers/gcc/newlib/syscalls.o
                0x080053ec                _realloc_r
 .text._calloc_r
                0x08005418       0x2c ./rt-thread/components/libc/compilers/gcc/newlib/syscalls.o
                0x08005418                _calloc_r
 .text._free_r  0x08005444       0x18 ./rt-thread/components/libc/compilers/gcc/newlib/syscalls.o
                0x08005444                _free_r
 .text.rt_list_init
                0x0800545c       0x24 ./rt-thread/components/drivers/src/completion.o
 .text.rt_list_insert_before
                0x08005480       0x34 ./rt-thread/components/drivers/src/completion.o
 .text.rt_list_isempty
                0x080054b4       0x24 ./rt-thread/components/drivers/src/completion.o
 .text.rt_completion_init
                0x080054d8       0x44 ./rt-thread/components/drivers/src/completion.o
                0x080054d8                rt_completion_init
 .text.rt_completion_wait
                0x0800551c       0xfc ./rt-thread/components/drivers/src/completion.o
                0x0800551c                rt_completion_wait
 .text.rt_completion_done
                0x08005618       0x70 ./rt-thread/components/drivers/src/completion.o
                0x08005618                rt_completion_done
 .text.rt_list_init
                0x08005688       0x24 ./rt-thread/components/drivers/src/dataqueue.o
 .text.rt_list_insert_before
                0x080056ac       0x34 ./rt-thread/components/drivers/src/dataqueue.o
 .text.rt_list_isempty
                0x080056e0       0x24 ./rt-thread/components/drivers/src/dataqueue.o
 .text.rt_data_queue_init
                0x08005704       0xc0 ./rt-thread/components/drivers/src/dataqueue.o
                0x08005704                rt_data_queue_init
 .text.rt_data_queue_push
                0x080057c4      0x1ec ./rt-thread/components/drivers/src/dataqueue.o
                0x080057c4                rt_data_queue_push
 .text.rt_data_queue_pop
                0x080059b0      0x248 ./rt-thread/components/drivers/src/dataqueue.o
                0x080059b0                rt_data_queue_pop
 .text.rt_data_queue_peek
                0x08005bf8       0xa4 ./rt-thread/components/drivers/src/dataqueue.o
                0x08005bf8                rt_data_queue_peek
 .text.rt_data_queue_reset
                0x08005c9c       0xfc ./rt-thread/components/drivers/src/dataqueue.o
                0x08005c9c                rt_data_queue_reset
 .text.rt_data_queue_deinit
                0x08005d98       0x70 ./rt-thread/components/drivers/src/dataqueue.o
                0x08005d98                rt_data_queue_deinit
 .text.rt_data_queue_len
                0x08005e08       0xc8 ./rt-thread/components/drivers/src/dataqueue.o
                0x08005e08                rt_data_queue_len
 .text.rt_spi_bus_register
                0x08005ed0       0x4c ./rt-thread/components/drivers/spi/spi_core.o
                0x08005ed0                rt_spi_bus_register
 .text.rt_spi_bus_attach_device
                0x08005f1c       0x64 ./rt-thread/components/drivers/spi/spi_core.o
                0x08005f1c                rt_spi_bus_attach_device
 .text.rt_spi_configure
                0x08005f80       0x94 ./rt-thread/components/drivers/spi/spi_core.o
                0x08005f80                rt_spi_configure
 .text.rt_spi_transfer
                0x08006014      0x108 ./rt-thread/components/drivers/spi/spi_core.o
                0x08006014                rt_spi_transfer
 .text._spi_bus_device_read
                0x0800611c       0x58 ./rt-thread/components/drivers/spi/spi_dev.o
 .text._spi_bus_device_write
                0x08006174       0x58 ./rt-thread/components/drivers/spi/spi_dev.o
 .text._spi_bus_device_control
                0x080061cc       0x28 ./rt-thread/components/drivers/spi/spi_dev.o
 .text.rt_spi_bus_device_init
                0x080061f4       0x70 ./rt-thread/components/drivers/spi/spi_dev.o
                0x080061f4                rt_spi_bus_device_init
 .text._spidev_device_read
                0x08006264       0x58 ./rt-thread/components/drivers/spi/spi_dev.o
 .text._spidev_device_write
                0x080062bc       0x58 ./rt-thread/components/drivers/spi/spi_dev.o
 .text._spidev_device_control
                0x08006314       0x28 ./rt-thread/components/drivers/spi/spi_dev.o
 .text.rt_spidev_device_init
                0x0800633c       0x70 ./rt-thread/components/drivers/spi/spi_dev.o
                0x0800633c                rt_spidev_device_init
 .text._serial_poll_rx
                0x080063ac       0x80 ./rt-thread/components/drivers/serial/serial.o
 .text._serial_poll_tx
                0x0800642c       0x7c ./rt-thread/components/drivers/serial/serial.o
 .text._serial_int_rx
                0x080064a8       0xd8 ./rt-thread/components/drivers/serial/serial.o
 .text._serial_int_tx
                0x08006580       0xc4 ./rt-thread/components/drivers/serial/serial.o
 .text._serial_check_buffer_size
                0x08006644       0x38 ./rt-thread/components/drivers/serial/serial.o
 .text._serial_fifo_calc_recved_len
                0x0800667c       0x88 ./rt-thread/components/drivers/serial/serial.o
 .text.rt_dma_calc_recved_len
                0x08006704       0x18 ./rt-thread/components/drivers/serial/serial.o
 .text.rt_dma_recv_update_get_index
                0x0800671c       0xa4 ./rt-thread/components/drivers/serial/serial.o
 .text.rt_dma_recv_update_put_index
                0x080067c0       0xf8 ./rt-thread/components/drivers/serial/serial.o
 .text._serial_dma_rx
                0x080068b8      0x198 ./rt-thread/components/drivers/serial/serial.o
 .text._serial_dma_tx
                0x08006a50       0x70 ./rt-thread/components/drivers/serial/serial.o
 .text.rt_serial_init
                0x08006ac0       0x5c ./rt-thread/components/drivers/serial/serial.o
 .text.rt_serial_open
                0x08006b1c      0x36c ./rt-thread/components/drivers/serial/serial.o
 .text.rt_serial_close
                0x08006e88      0x1e0 ./rt-thread/components/drivers/serial/serial.o
 .text.rt_serial_read
                0x08007068       0x84 ./rt-thread/components/drivers/serial/serial.o
 .text.rt_serial_write
                0x080070ec       0x84 ./rt-thread/components/drivers/serial/serial.o
 .text.rt_serial_control
                0x08007170       0xd0 ./rt-thread/components/drivers/serial/serial.o
 .text.rt_hw_serial_register
                0x08007240       0x9c ./rt-thread/components/drivers/serial/serial.o
                0x08007240                rt_hw_serial_register
 .text.rt_hw_serial_isr
                0x080072dc      0x264 ./rt-thread/components/drivers/serial/serial.o
                0x080072dc                rt_hw_serial_isr
 .text._pin_read
                0x08007540       0x60 ./rt-thread/components/drivers/misc/pin.o
 .text._pin_write
                0x080075a0       0x5c ./rt-thread/components/drivers/misc/pin.o
 .text._pin_control
                0x080075fc       0x58 ./rt-thread/components/drivers/misc/pin.o
 .text.rt_device_pin_register
                0x08007654       0x74 ./rt-thread/components/drivers/misc/pin.o
                0x08007654                rt_device_pin_register
 .text.rt_pin_mode
                0x080076c8       0x40 ./rt-thread/components/drivers/misc/pin.o
                0x080076c8                rt_pin_mode
 .text.rt_pin_write
                0x08007708       0x40 ./rt-thread/components/drivers/misc/pin.o
                0x08007708                rt_pin_write
 .text.rt_pin_read
                0x08007748       0x3c ./rt-thread/components/drivers/misc/pin.o
                0x08007748                rt_pin_read
 .text.n32_msp_usart_init
                0x08007784       0xb8 ./board/msp/n32_msp.o
                0x08007784                n32_msp_usart_init
 .text.n32_msp_spi_init
                0x0800783c       0x88 ./board/msp/n32_msp.o
                0x0800783c                n32_msp_spi_init
 .text.__NVIC_SetPriority
                0x080078c4       0x54 ./board/board.o
 .text.SysTick_Config
                0x08007918       0x44 ./board/board.o
 .text.SystemClock_Config
                0x0800795c       0x2c ./board/board.o
                0x0800795c                SystemClock_Config
 .text.SysTick_Handler
                0x08007988       0x14 ./board/board.o
                0x08007988                SysTick_Handler
 .text.rt_hw_board_init
                0x0800799c       0x38 ./board/board.o
                0x0800799c                rt_hw_board_init
 .text.iic_io_int
                0x080079d4       0x18 ./applications/iic.o
                0x080079d4                iic_io_int
 .text.iic_start
                0x080079ec       0x34 ./applications/iic.o
                0x080079ec                iic_start
 .text.iic_stop
                0x08007a20       0x28 ./applications/iic.o
                0x08007a20                iic_stop
 .text.iic_ack  0x08007a48       0x20 ./applications/iic.o
                0x08007a48                iic_ack
 .text.Send_Byte
                0x08007a68       0x68 ./applications/iic.o
                0x08007a68                Send_Byte
 .text.OLED_WR_Byte
                0x08007ad0       0x50 ./applications/iic.o
                0x08007ad0                OLED_WR_Byte
 .text.OLED_ColorTurn
                0x08007b20       0x30 ./applications/iic.o
                0x08007b20                OLED_ColorTurn
 .text.OLED_Clear
                0x08007b50       0x5c ./applications/iic.o
                0x08007b50                OLED_Clear
 .text.OLED_Set_Pos
                0x08007bac       0x4c ./applications/iic.o
                0x08007bac                OLED_Set_Pos
 .text.OLED_ShowChar
                0x08007bf8       0xfc ./applications/iic.o
                0x08007bf8                OLED_ShowChar
 .text.OLED_ShowCHinese
                0x08007cf4       0xa0 ./applications/iic.o
                0x08007cf4                OLED_ShowCHinese
 .text.iic_init
                0x08007d94       0xf0 ./applications/iic.o
 .text.iic_thread_entry
                0x08007e84      0x234 ./applications/iic.o
 .text.Thread_IIC
                0x080080b8       0x58 ./applications/iic.o
 .text.key_Init
                0x08008110       0x28 ./applications/key.o
                0x08008110                key_Init
 .text.key_thread
                0x08008138       0x9c ./applications/key.o
 .text.Thread_key
                0x080081d4       0x50 ./applications/key.o
 .text.LED_Init
                0x08008224       0x34 ./applications/led.o
                0x08008224                LED_Init
 .text.led_thread_entry
                0x08008258       0x7c ./applications/led.o
 .text.Thread_LED
                0x080082d4       0x50 ./applications/led.o
 .text.main     0x08008324        0xc ./applications/main.o
                0x08008324                main
 .text.cs1238_io_init
                0x08008330       0x18 ./applications/spi_cs1238.o
                0x08008330                cs1238_io_init
 .text.cs1238_clk_high
                0x08008348       0x10 ./applications/spi_cs1238.o
                0x08008348                cs1238_clk_high
 .text.cs1238_clk_low
                0x08008358       0x10 ./applications/spi_cs1238.o
                0x08008358                cs1238_clk_low
 .text.cs1238_oper
                0x08008368      0x20c ./applications/spi_cs1238.o
                0x08008368                cs1238_oper
 .text.Voltage_read
                0x08008574       0x78 ./applications/spi_cs1238.o
                0x08008574                Voltage_read
 .text.Current_read
                0x080085ec       0x74 ./applications/spi_cs1238.o
                0x080085ec                Current_read
 .text.spi_cs1238_thread_entry
                0x08008660       0xa4 ./applications/spi_cs1238.o
 .text.spi_cs1238_sample
                0x08008704       0x58 ./applications/spi_cs1238.o
 .text.spi_init
                0x0800875c       0xd8 ./applications/spi_da.o
                0x0800875c                spi_init
 .text.spi_send_Voltage
                0x08008834       0x98 ./applications/spi_da.o
                0x08008834                spi_send_Voltage
 .text.spi_send_current
                0x080088cc       0x84 ./applications/spi_da.o
                0x080088cc                spi_send_current
 .text.spi_thread_entry
                0x08008950       0x58 ./applications/spi_da.o
 .text.Thread_SPI
                0x080089a8       0x50 ./applications/spi_da.o
 .text.uart_input
                0x080089f8       0x20 ./applications/usart.o
 .text.uart_init
                0x08008a18       0xb0 ./applications/usart.o
                0x08008a18                uart_init
 .text.uart_thread_entry
                0x08008ac8      0x104 ./applications/usart.o
 .text.uart_sample
                0x08008bcc       0x50 ./applications/usart.o
 .text.is_digit
                0x08008c1c       0x64 ./applications/usart_command.o
                0x08008c1c                is_digit
 .text.capital_low
                0x08008c80       0x5c ./applications/usart_command.o
                0x08008c80                capital_low
 .text.split_string
                0x08008cdc       0x5c ./applications/usart_command.o
                0x08008cdc                split_string
 .text.Decipher_command
                0x08008d38       0xb8 ./applications/usart_command.o
                0x08008d38                Decipher_command
 .text.v_read_data
                0x08008df0       0xb0 ./applications/usart_command.o
                0x08008df0                v_read_data
 .text.i_read_data
                0x08008ea0       0xb0 ./applications/usart_command.o
                0x08008ea0                i_read_data
 .text.rt_hw_us_delay
                0x08008f50       0x84 ./Libraries/rt_drivers/drv_common.o
                0x08008f50                rt_hw_us_delay
 .text.get_pin  0x08008fd4       0x48 ./Libraries/rt_drivers/drv_gpio.o
                0x08008fd4                get_pin
 .text.n32_pin_write
                0x0800901c       0x54 ./Libraries/rt_drivers/drv_gpio.o
                0x0800901c                n32_pin_write
 .text.n32_pin_read
                0x08009070       0x50 ./Libraries/rt_drivers/drv_gpio.o
                0x08009070                n32_pin_read
 .text.n32_pin_mode
                0x080090c0       0x94 ./Libraries/rt_drivers/drv_gpio.o
                0x080090c0                n32_pin_mode
 .text.bit2bitno
                0x08009154       0x40 ./Libraries/rt_drivers/drv_gpio.o
 .text.get_pin_irq_map
                0x08009194       0x3c ./Libraries/rt_drivers/drv_gpio.o
 .text.n32_pin_attach_irq
                0x080091d0      0x14c ./Libraries/rt_drivers/drv_gpio.o
                0x080091d0                n32_pin_attach_irq
 .text.n32_pin_dettach_irq
                0x0800931c       0xd4 ./Libraries/rt_drivers/drv_gpio.o
                0x0800931c                n32_pin_dettach_irq
 .text.n32_pin_irq_enable
                0x080093f0      0x18c ./Libraries/rt_drivers/drv_gpio.o
                0x080093f0                n32_pin_irq_enable
 .text.n32_hw_pin_init
                0x0800957c       0x24 ./Libraries/rt_drivers/drv_gpio.o
                0x0800957c                n32_hw_pin_init
 .text.pin_irq_hdr
                0x080095a0       0x70 ./Libraries/rt_drivers/drv_gpio.o
 .text.EXTI0_IRQHandler
                0x08009610       0x18 ./Libraries/rt_drivers/drv_gpio.o
                0x08009610                EXTI0_IRQHandler
 .text.EXTI1_IRQHandler
                0x08009628       0x18 ./Libraries/rt_drivers/drv_gpio.o
                0x08009628                EXTI1_IRQHandler
 .text.EXTI2_IRQHandler
                0x08009640       0x18 ./Libraries/rt_drivers/drv_gpio.o
                0x08009640                EXTI2_IRQHandler
 .text.EXTI3_IRQHandler
                0x08009658       0x18 ./Libraries/rt_drivers/drv_gpio.o
                0x08009658                EXTI3_IRQHandler
 .text.EXTI4_IRQHandler
                0x08009670       0x18 ./Libraries/rt_drivers/drv_gpio.o
                0x08009670                EXTI4_IRQHandler
 .text.EXTI9_5_IRQHandler
                0x08009688       0x70 ./Libraries/rt_drivers/drv_gpio.o
                0x08009688                EXTI9_5_IRQHandler
 .text.EXTI15_10_IRQHandler
                0x080096f8       0x88 ./Libraries/rt_drivers/drv_gpio.o
                0x080096f8                EXTI15_10_IRQHandler
 .text.n32_spi_init
                0x08009780      0x1fc ./Libraries/rt_drivers/drv_spi.o
 .text.spi_configure
                0x0800997c       0x58 ./Libraries/rt_drivers/drv_spi.o
 .text.spixfer  0x080099d4      0x1dc ./Libraries/rt_drivers/drv_spi.o
 .text.rt_hw_spi_bus_init
                0x08009bb0       0xc8 ./Libraries/rt_drivers/drv_spi.o
 .text.rt_hw_spi_init
                0x08009c78       0x10 ./Libraries/rt_drivers/drv_spi.o
                0x08009c78                rt_hw_spi_init
 .text.rt_hw_spi_device_attach
                0x08009c88      0x1b8 ./Libraries/rt_drivers/drv_spi.o
                0x08009c88                rt_hw_spi_device_attach
 .text.__NVIC_EnableIRQ
                0x08009e40       0x3c ./Libraries/rt_drivers/drv_usart.o
 .text.__NVIC_DisableIRQ
                0x08009e7c       0x44 ./Libraries/rt_drivers/drv_usart.o
 .text.n32_uart_configure
                0x08009ec0      0x140 ./Libraries/rt_drivers/drv_usart.o
 .text.n32_uart_control
                0x0800a000       0x94 ./Libraries/rt_drivers/drv_usart.o
 .text.n32_uart_putc
                0x0800a094       0xa0 ./Libraries/rt_drivers/drv_usart.o
 .text.n32_uart_getc
                0x0800a134       0x54 ./Libraries/rt_drivers/drv_usart.o
 .text.dma_uart_rx_idle_isr
                0x0800a188       0x78 ./Libraries/rt_drivers/drv_usart.o
 .text.dma_rx_done_isr
                0x0800a200       0x5c ./Libraries/rt_drivers/drv_usart.o
 .text.uart_isr
                0x0800a25c       0xe4 ./Libraries/rt_drivers/drv_usart.o
 .text.USART1_IRQHandler
                0x0800a340       0x1c ./Libraries/rt_drivers/drv_usart.o
                0x0800a340                USART1_IRQHandler
 .text.DMA1_Channel5_IRQHandler
                0x0800a35c       0x1c ./Libraries/rt_drivers/drv_usart.o
                0x0800a35c                DMA1_Channel5_IRQHandler
 .text.USART2_IRQHandler
                0x0800a378       0x1c ./Libraries/rt_drivers/drv_usart.o
                0x0800a378                USART2_IRQHandler
 .text.DMA1_Channel6_IRQHandler
                0x0800a394       0x1c ./Libraries/rt_drivers/drv_usart.o
                0x0800a394                DMA1_Channel6_IRQHandler
 .text.NVIC_Configuration
                0x0800a3b0       0x30 ./Libraries/rt_drivers/drv_usart.o
 .text.DMA_Configuration
                0x0800a3e0       0xf8 ./Libraries/rt_drivers/drv_usart.o
 .text.rt_hw_usart_init
                0x0800a4d8       0xa0 ./Libraries/rt_drivers/drv_usart.o
                0x0800a4d8                rt_hw_usart_init
 .text.NVIC_Init
                0x0800a578       0xc8 ./Libraries/N32_Std_Driver/n32g45x_std_periph_driver/src/misc.o
                0x0800a578                NVIC_Init
 .text.DMA_DeInit
                0x0800a640      0x1e0 ./Libraries/N32_Std_Driver/n32g45x_std_periph_driver/src/n32g45x_dma.o
                0x0800a640                DMA_DeInit
 .text.DMA_Init
                0x0800a820       0x80 ./Libraries/N32_Std_Driver/n32g45x_std_periph_driver/src/n32g45x_dma.o
                0x0800a820                DMA_Init
 .text.DMA_EnableChannel
                0x0800a8a0       0x3c ./Libraries/N32_Std_Driver/n32g45x_std_periph_driver/src/n32g45x_dma.o
                0x0800a8a0                DMA_EnableChannel
 .text.DMA_ConfigInt
                0x0800a8dc       0x3c ./Libraries/N32_Std_Driver/n32g45x_std_periph_driver/src/n32g45x_dma.o
                0x0800a8dc                DMA_ConfigInt
 .text.DMA_GetCurrDataCounter
                0x0800a918       0x1c ./Libraries/N32_Std_Driver/n32g45x_std_periph_driver/src/n32g45x_dma.o
                0x0800a918                DMA_GetCurrDataCounter
 .text.DMA_ClearFlag
                0x0800a934       0x1c ./Libraries/N32_Std_Driver/n32g45x_std_periph_driver/src/n32g45x_dma.o
                0x0800a934                DMA_ClearFlag
 .text.EXTI_InitPeripheral
                0x0800a950       0xe4 ./Libraries/N32_Std_Driver/n32g45x_std_periph_driver/src/n32g45x_exti.o
                0x0800a950                EXTI_InitPeripheral
 .text.EXTI_GetITStatus
                0x0800aa34       0x48 ./Libraries/N32_Std_Driver/n32g45x_std_periph_driver/src/n32g45x_exti.o
                0x0800aa34                EXTI_GetITStatus
 .text.EXTI_ClrITPendBit
                0x0800aa7c       0x20 ./Libraries/N32_Std_Driver/n32g45x_std_periph_driver/src/n32g45x_exti.o
                0x0800aa7c                EXTI_ClrITPendBit
 .text.GPIO_InitPeripheral
                0x0800aa9c      0x17c ./Libraries/N32_Std_Driver/n32g45x_std_periph_driver/src/n32g45x_gpio.o
                0x0800aa9c                GPIO_InitPeripheral
 .text.GPIO_InitStruct
                0x0800ac18       0x28 ./Libraries/N32_Std_Driver/n32g45x_std_periph_driver/src/n32g45x_gpio.o
                0x0800ac18                GPIO_InitStruct
 .text.GPIO_ReadInputDataBit
                0x0800ac40       0x34 ./Libraries/N32_Std_Driver/n32g45x_std_periph_driver/src/n32g45x_gpio.o
                0x0800ac40                GPIO_ReadInputDataBit
 .text.GPIO_SetBits
                0x0800ac74       0x20 ./Libraries/N32_Std_Driver/n32g45x_std_periph_driver/src/n32g45x_gpio.o
                0x0800ac74                GPIO_SetBits
 .text.GPIO_ResetBits
                0x0800ac94       0x20 ./Libraries/N32_Std_Driver/n32g45x_std_periph_driver/src/n32g45x_gpio.o
                0x0800ac94                GPIO_ResetBits
 .text.GPIO_ConfigPinRemap
                0x0800acb4      0x3b0 ./Libraries/N32_Std_Driver/n32g45x_std_periph_driver/src/n32g45x_gpio.o
                0x0800acb4                GPIO_ConfigPinRemap
 .text.GPIO_ConfigEXTILine
                0x0800b064       0x84 ./Libraries/N32_Std_Driver/n32g45x_std_periph_driver/src/n32g45x_gpio.o
                0x0800b064                GPIO_ConfigEXTILine
 .text.RCC_GetClocksFreqValue
                0x0800b0e8      0x1a0 ./Libraries/N32_Std_Driver/n32g45x_std_periph_driver/src/n32g45x_rcc.o
                0x0800b0e8                RCC_GetClocksFreqValue
 .text.RCC_EnableAHBPeriphClk
                0x0800b288       0x40 ./Libraries/N32_Std_Driver/n32g45x_std_periph_driver/src/n32g45x_rcc.o
                0x0800b288                RCC_EnableAHBPeriphClk
 .text.RCC_EnableAPB2PeriphClk
                0x0800b2c8       0x40 ./Libraries/N32_Std_Driver/n32g45x_std_periph_driver/src/n32g45x_rcc.o
                0x0800b2c8                RCC_EnableAPB2PeriphClk
 .text.RCC_EnableAPB1PeriphClk
                0x0800b308       0x40 ./Libraries/N32_Std_Driver/n32g45x_std_periph_driver/src/n32g45x_rcc.o
                0x0800b308                RCC_EnableAPB1PeriphClk
 .text.SPI_Init
                0x0800b348       0x88 ./Libraries/N32_Std_Driver/n32g45x_std_periph_driver/src/n32g45x_spi.o
                0x0800b348                SPI_Init
 .text.SPI_Enable
                0x0800b3d0       0x40 ./Libraries/N32_Std_Driver/n32g45x_std_periph_driver/src/n32g45x_spi.o
                0x0800b3d0                SPI_Enable
 .text.SPI_I2S_EnableInt
                0x0800b410       0x64 ./Libraries/N32_Std_Driver/n32g45x_std_periph_driver/src/n32g45x_spi.o
                0x0800b410                SPI_I2S_EnableInt
 .text.SPI_I2S_TransmitData
                0x0800b474       0x20 ./Libraries/N32_Std_Driver/n32g45x_std_periph_driver/src/n32g45x_spi.o
                0x0800b474                SPI_I2S_TransmitData
 .text.SPI_I2S_ReceiveData
                0x0800b494       0x1c ./Libraries/N32_Std_Driver/n32g45x_std_periph_driver/src/n32g45x_spi.o
                0x0800b494                SPI_I2S_ReceiveData
 .text.SPI_I2S_GetStatus
                0x0800b4b0       0x38 ./Libraries/N32_Std_Driver/n32g45x_std_periph_driver/src/n32g45x_spi.o
                0x0800b4b0                SPI_I2S_GetStatus
 .text.USART_Init
                0x0800b4e8      0x140 ./Libraries/N32_Std_Driver/n32g45x_std_periph_driver/src/n32g45x_usart.o
                0x0800b4e8                USART_Init
 .text.USART_Enable
                0x0800b628       0x40 ./Libraries/N32_Std_Driver/n32g45x_std_periph_driver/src/n32g45x_usart.o
                0x0800b628                USART_Enable
 .text.USART_ConfigInt
                0x0800b668       0x90 ./Libraries/N32_Std_Driver/n32g45x_std_periph_driver/src/n32g45x_usart.o
                0x0800b668                USART_ConfigInt
 .text.USART_EnableDMA
                0x0800b6f8       0x48 ./Libraries/N32_Std_Driver/n32g45x_std_periph_driver/src/n32g45x_usart.o
                0x0800b6f8                USART_EnableDMA
 .text.USART_ReceiveData
                0x0800b740       0x20 ./Libraries/N32_Std_Driver/n32g45x_std_periph_driver/src/n32g45x_usart.o
                0x0800b740                USART_ReceiveData
 .text.USART_GetFlagStatus
                0x0800b760       0x38 ./Libraries/N32_Std_Driver/n32g45x_std_periph_driver/src/n32g45x_usart.o
                0x0800b760                USART_GetFlagStatus
 .text.USART_ClrFlag
                0x0800b798       0x24 ./Libraries/N32_Std_Driver/n32g45x_std_periph_driver/src/n32g45x_usart.o
                0x0800b798                USART_ClrFlag
 .text.USART_GetIntStatus
                0x0800b7bc       0xb8 ./Libraries/N32_Std_Driver/n32g45x_std_periph_driver/src/n32g45x_usart.o
                0x0800b7bc                USART_GetIntStatus
 .text.USART_ClrIntPendingBit
                0x0800b874       0x3c ./Libraries/N32_Std_Driver/n32g45x_std_periph_driver/src/n32g45x_usart.o
                0x0800b874                USART_ClrIntPendingBit
 .text.Reset_Handler
                0x0800b8b0       0x44 ./Libraries/N32_Std_Driver/CMSIS/device/startup/startup_n32g45x_gcc.o
                0x0800b8b0                Reset_Handler
 .text.Default_Handler
                0x0800b8f4        0x2 ./Libraries/N32_Std_Driver/CMSIS/device/startup/startup_n32g45x_gcc.o
                0x0800b8f4                TIM8_TRG_COM_IRQHandler
                0x0800b8f4                TIM8_CC_IRQHandler
                0x0800b8f4                DebugMon_Handler
                0x0800b8f4                TIM1_CC_IRQHandler
                0x0800b8f4                TSC_IRQHandler
                0x0800b8f4                SAC_IRQHandler
                0x0800b8f4                TIM6_IRQHandler
                0x0800b8f4                PVD_IRQHandler
                0x0800b8f4                SDIO_IRQHandler
                0x0800b8f4                DMA2_Channel8_IRQHandler
                0x0800b8f4                NMI_Handler
                0x0800b8f4                CAN2_RX1_IRQHandler
                0x0800b8f4                I2C3_ER_IRQHandler
                0x0800b8f4                I2C2_EV_IRQHandler
                0x0800b8f4                UsageFault_Handler
                0x0800b8f4                CAN2_SCE_IRQHandler
                0x0800b8f4                ADC1_2_IRQHandler
                0x0800b8f4                SPI1_IRQHandler
                0x0800b8f4                TAMPER_IRQHandler
                0x0800b8f4                CAN2_RX0_IRQHandler
                0x0800b8f4                TIM8_UP_IRQHandler
                0x0800b8f4                DMA2_Channel2_IRQHandler
                0x0800b8f4                DMA1_Channel4_IRQHandler
                0x0800b8f4                USART3_IRQHandler
                0x0800b8f4                DMA1_Channel7_IRQHandler
                0x0800b8f4                CAN1_RX1_IRQHandler
                0x0800b8f4                DVP_IRQHandler
                0x0800b8f4                UART5_IRQHandler
                0x0800b8f4                TIM4_IRQHandler
                0x0800b8f4                DMA2_Channel1_IRQHandler
                0x0800b8f4                I2C1_EV_IRQHandler
                0x0800b8f4                UART4_IRQHandler
                0x0800b8f4                DMA2_Channel4_IRQHandler
                0x0800b8f4                TIM3_IRQHandler
                0x0800b8f4                RCC_IRQHandler
                0x0800b8f4                TIM1_TRG_COM_IRQHandler
                0x0800b8f4                DMA1_Channel1_IRQHandler
                0x0800b8f4                Default_Handler
                0x0800b8f4                DMA2_Channel7_IRQHandler
                0x0800b8f4                DMA1_Channel8_IRQHandler
                0x0800b8f4                TIM7_IRQHandler
                0x0800b8f4                CAN2_TX_IRQHandler
                0x0800b8f4                TIM5_IRQHandler
                0x0800b8f4                I2C3_EV_IRQHandler
                0x0800b8f4                RTC_WKUP_IRQHandler
                0x0800b8f4                MMU_IRQHandler
                0x0800b8f4                ETH_WKUP_IRQHandler
                0x0800b8f4                SPI2_IRQHandler
                0x0800b8f4                MemManage_Handler
                0x0800b8f4                SVC_Handler
                0x0800b8f4                DMA2_Channel5_IRQHandler
                0x0800b8f4                USB_LP_CAN1_RX0_IRQHandler
                0x0800b8f4                USB_HP_CAN1_TX_IRQHandler
                0x0800b8f4                DMA1_Channel3_IRQHandler
                0x0800b8f4                ETH_IRQHandler
                0x0800b8f4                TIM1_UP_IRQHandler
                0x0800b8f4                WWDG_IRQHandler
                0x0800b8f4                I2C4_EV_IRQHandler
                0x0800b8f4                DMA2_Channel6_IRQHandler
                0x0800b8f4                TIM2_IRQHandler
                0x0800b8f4                TIM1_BRK_IRQHandler
                0x0800b8f4                ADC3_4_IRQHandler
                0x0800b8f4                RTCAlarm_IRQHandler
                0x0800b8f4                UART7_IRQHandler
                0x0800b8f4                UART6_IRQHandler
                0x0800b8f4                XFMC_IRQHandler
                0x0800b8f4                I2C2_ER_IRQHandler
                0x0800b8f4                DMA1_Channel2_IRQHandler
                0x0800b8f4                TIM8_BRK_IRQHandler
                0x0800b8f4                CAN1_SCE_IRQHandler
                0x0800b8f4                FLASH_IRQHandler
                0x0800b8f4                BusFault_Handler
                0x0800b8f4                SPI3_IRQHandler
                0x0800b8f4                I2C1_ER_IRQHandler
                0x0800b8f4                QSPI_IRQHandler
                0x0800b8f4                I2C4_ER_IRQHandler
                0x0800b8f4                USBWakeUp_IRQHandler
                0x0800b8f4                DMA2_Channel3_IRQHandler
 *fill*         0x0800b8f6        0x2 00000000
 .text.SystemInit
                0x0800b8f8       0xc0 ./Libraries/N32_Std_Driver/CMSIS/device/system_n32g45x.o
                0x0800b8f8                SystemInit
 .text.SetSysClock
                0x0800b9b8      0x134 ./Libraries/N32_Std_Driver/CMSIS/device/system_n32g45x.o
 .text.atof     0x0800baec        0x8 d:/rt-threadstudio/repo/extract/toolchain_support_packages/arm/gnu_tools_for_arm_embedded_processors/5.4.1/bin/../lib/gcc/arm-none-eabi/5.4.1/../../../../arm-none-eabi/lib/armv7e-m/fpu\libc.a(lib_a-atof.o)
                0x0800baec                atof
 .text.__get_current_locale
                0x0800baf4       0x18 d:/rt-threadstudio/repo/extract/toolchain_support_packages/arm/gnu_tools_for_arm_embedded_processors/5.4.1/bin/../lib/gcc/arm-none-eabi/5.4.1/../../../../arm-none-eabi/lib/armv7e-m/fpu\libc.a(lib_a-locale.o)
 .text.__locale_ctype_ptr
                0x0800bb0c       0x14 d:/rt-threadstudio/repo/extract/toolchain_support_packages/arm/gnu_tools_for_arm_embedded_processors/5.4.1/bin/../lib/gcc/arm-none-eabi/5.4.1/../../../../arm-none-eabi/lib/armv7e-m/fpu\libc.a(lib_a-locale.o)
                0x0800bb0c                __locale_ctype_ptr
 .text.__ascii_mbtowc
                0x0800bb20       0x2c d:/rt-threadstudio/repo/extract/toolchain_support_packages/arm/gnu_tools_for_arm_embedded_processors/5.4.1/bin/../lib/gcc/arm-none-eabi/5.4.1/../../../../arm-none-eabi/lib/armv7e-m/fpu\libc.a(lib_a-mbtowc_r.o)
                0x0800bb20                __ascii_mbtowc
 .text.snprintf
                0x0800bb4c       0x9c d:/rt-threadstudio/repo/extract/toolchain_support_packages/arm/gnu_tools_for_arm_embedded_processors/5.4.1/bin/../lib/gcc/arm-none-eabi/5.4.1/../../../../arm-none-eabi/lib/armv7e-m/fpu\libc.a(lib_a-snprintf.o)
                0x0800bb4c                snprintf
 .text.strcpy   0x0800bbe8       0xbc d:/rt-threadstudio/repo/extract/toolchain_support_packages/arm/gnu_tools_for_arm_embedded_processors/5.4.1/bin/../lib/gcc/arm-none-eabi/5.4.1/../../../../arm-none-eabi/lib/armv7e-m/fpu\libc.a(lib_a-strcpy.o)
                0x0800bbe8                strcpy
 .text.strncmp  0x0800bca4       0xa0 d:/rt-threadstudio/repo/extract/toolchain_support_packages/arm/gnu_tools_for_arm_embedded_processors/5.4.1/bin/../lib/gcc/arm-none-eabi/5.4.1/../../../../arm-none-eabi/lib/armv7e-m/fpu\libc.a(lib_a-strncmp.o)
                0x0800bca4                strncmp
 .text.unlikely.sulp
                0x0800bd44       0x38 d:/rt-threadstudio/repo/extract/toolchain_support_packages/arm/gnu_tools_for_arm_embedded_processors/5.4.1/bin/../lib/gcc/arm-none-eabi/5.4.1/../../../../arm-none-eabi/lib/armv7e-m/fpu\libc.a(lib_a-strtod.o)
 *fill*         0x0800bd7c        0x4 00000000
 .text._strtod_l
                0x0800bd80      0xed8 d:/rt-threadstudio/repo/extract/toolchain_support_packages/arm/gnu_tools_for_arm_embedded_processors/5.4.1/bin/../lib/gcc/arm-none-eabi/5.4.1/../../../../arm-none-eabi/lib/armv7e-m/fpu\libc.a(lib_a-strtod.o)
                0x0800bd80                _strtod_l
 .text.strtod   0x0800cc58       0x24 d:/rt-threadstudio/repo/extract/toolchain_support_packages/arm/gnu_tools_for_arm_embedded_processors/5.4.1/bin/../lib/gcc/arm-none-eabi/5.4.1/../../../../arm-none-eabi/lib/armv7e-m/fpu\libc.a(lib_a-strtod.o)
                0x0800cc58                strtod
 .text.strtok   0x0800cc7c       0x10 d:/rt-threadstudio/repo/extract/toolchain_support_packages/arm/gnu_tools_for_arm_embedded_processors/5.4.1/bin/../lib/gcc/arm-none-eabi/5.4.1/../../../../arm-none-eabi/lib/armv7e-m/fpu\libc.a(lib_a-strtok.o)
                0x0800cc7c                strtok
 .text.__strtok_r
                0x0800cc8c       0x64 d:/rt-threadstudio/repo/extract/toolchain_support_packages/arm/gnu_tools_for_arm_embedded_processors/5.4.1/bin/../lib/gcc/arm-none-eabi/5.4.1/../../../../arm-none-eabi/lib/armv7e-m/fpu\libc.a(lib_a-strtok_r.o)
                0x0800cc8c                __strtok_r
 .text._svfprintf_r
                0x0800ccf0     0x16e4 d:/rt-threadstudio/repo/extract/toolchain_support_packages/arm/gnu_tools_for_arm_embedded_processors/5.4.1/bin/../lib/gcc/arm-none-eabi/5.4.1/../../../../arm-none-eabi/lib/armv7e-m/fpu\libc.a(lib_a-svfprintf.o)
                0x0800ccf0                _svfprintf_r
 .text.__ascii_wctomb
                0x0800e3d4       0x1c d:/rt-threadstudio/repo/extract/toolchain_support_packages/arm/gnu_tools_for_arm_embedded_processors/5.4.1/bin/../lib/gcc/arm-none-eabi/5.4.1/../../../../arm-none-eabi/lib/armv7e-m/fpu\libc.a(lib_a-wctomb_r.o)
                0x0800e3d4                __ascii_wctomb
 .text.startup.register_fini
                0x0800e3f0       0x14 d:/rt-threadstudio/repo/extract/toolchain_support_packages/arm/gnu_tools_for_arm_embedded_processors/5.4.1/bin/../lib/gcc/arm-none-eabi/5.4.1/../../../../arm-none-eabi/lib/armv7e-m/fpu\libc.a(lib_a-__call_atexit.o)
 .text.atexit   0x0800e404        0xc d:/rt-threadstudio/repo/extract/toolchain_support_packages/arm/gnu_tools_for_arm_embedded_processors/5.4.1/bin/../lib/gcc/arm-none-eabi/5.4.1/../../../../arm-none-eabi/lib/armv7e-m/fpu\libc.a(lib_a-atexit.o)
                0x0800e404                atexit
 .text.quorem   0x0800e410      0x128 d:/rt-threadstudio/repo/extract/toolchain_support_packages/arm/gnu_tools_for_arm_embedded_processors/5.4.1/bin/../lib/gcc/arm-none-eabi/5.4.1/../../../../arm-none-eabi/lib/armv7e-m/fpu\libc.a(lib_a-dtoa.o)
 .text._dtoa_r  0x0800e538      0xe34 d:/rt-threadstudio/repo/extract/toolchain_support_packages/arm/gnu_tools_for_arm_embedded_processors/5.4.1/bin/../lib/gcc/arm-none-eabi/5.4.1/../../../../arm-none-eabi/lib/armv7e-m/fpu\libc.a(lib_a-dtoa.o)
                0x0800e538                _dtoa_r
 .text.__libc_fini_array
                0x0800f36c       0x28 d:/rt-threadstudio/repo/extract/toolchain_support_packages/arm/gnu_tools_for_arm_embedded_processors/5.4.1/bin/../lib/gcc/arm-none-eabi/5.4.1/../../../../arm-none-eabi/lib/armv7e-m/fpu\libc.a(lib_a-fini.o)
                0x0800f36c                __libc_fini_array
 .text.rshift   0x0800f394       0xa8 d:/rt-threadstudio/repo/extract/toolchain_support_packages/arm/gnu_tools_for_arm_embedded_processors/5.4.1/bin/../lib/gcc/arm-none-eabi/5.4.1/../../../../arm-none-eabi/lib/armv7e-m/fpu\libc.a(lib_a-gdtoa-gethex.o)
 .text.__gethex
                0x0800f43c      0x510 d:/rt-threadstudio/repo/extract/toolchain_support_packages/arm/gnu_tools_for_arm_embedded_processors/5.4.1/bin/../lib/gcc/arm-none-eabi/5.4.1/../../../../arm-none-eabi/lib/armv7e-m/fpu\libc.a(lib_a-gdtoa-gethex.o)
                0x0800f43c                __gethex
 .text.__match  0x0800f94c       0x30 d:/rt-threadstudio/repo/extract/toolchain_support_packages/arm/gnu_tools_for_arm_embedded_processors/5.4.1/bin/../lib/gcc/arm-none-eabi/5.4.1/../../../../arm-none-eabi/lib/armv7e-m/fpu\libc.a(lib_a-gdtoa-hexnan.o)
                0x0800f94c                __match
 .text.__hexnan
                0x0800f97c      0x180 d:/rt-threadstudio/repo/extract/toolchain_support_packages/arm/gnu_tools_for_arm_embedded_processors/5.4.1/bin/../lib/gcc/arm-none-eabi/5.4.1/../../../../arm-none-eabi/lib/armv7e-m/fpu\libc.a(lib_a-gdtoa-hexnan.o)
                0x0800f97c                __hexnan
 .text.__localeconv_l
                0x0800fafc        0x4 d:/rt-threadstudio/repo/extract/toolchain_support_packages/arm/gnu_tools_for_arm_embedded_processors/5.4.1/bin/../lib/gcc/arm-none-eabi/5.4.1/../../../../arm-none-eabi/lib/armv7e-m/fpu\libc.a(lib_a-localeconv.o)
                0x0800fafc                __localeconv_l
 .text._localeconv_r
                0x0800fb00       0x1c d:/rt-threadstudio/repo/extract/toolchain_support_packages/arm/gnu_tools_for_arm_embedded_processors/5.4.1/bin/../lib/gcc/arm-none-eabi/5.4.1/../../../../arm-none-eabi/lib/armv7e-m/fpu\libc.a(lib_a-localeconv.o)
                0x0800fb00                _localeconv_r
 .text._Balloc  0x0800fb1c       0x4c d:/rt-threadstudio/repo/extract/toolchain_support_packages/arm/gnu_tools_for_arm_embedded_processors/5.4.1/bin/../lib/gcc/arm-none-eabi/5.4.1/../../../../arm-none-eabi/lib/armv7e-m/fpu\libc.a(lib_a-mprec.o)
                0x0800fb1c                _Balloc
 .text._Bfree   0x0800fb68       0x14 d:/rt-threadstudio/repo/extract/toolchain_support_packages/arm/gnu_tools_for_arm_embedded_processors/5.4.1/bin/../lib/gcc/arm-none-eabi/5.4.1/../../../../arm-none-eabi/lib/armv7e-m/fpu\libc.a(lib_a-mprec.o)
                0x0800fb68                _Bfree
 .text.__multadd
                0x0800fb7c       0x80 d:/rt-threadstudio/repo/extract/toolchain_support_packages/arm/gnu_tools_for_arm_embedded_processors/5.4.1/bin/../lib/gcc/arm-none-eabi/5.4.1/../../../../arm-none-eabi/lib/armv7e-m/fpu\libc.a(lib_a-mprec.o)
                0x0800fb7c                __multadd
 .text.__s2b    0x0800fbfc       0x98 d:/rt-threadstudio/repo/extract/toolchain_support_packages/arm/gnu_tools_for_arm_embedded_processors/5.4.1/bin/../lib/gcc/arm-none-eabi/5.4.1/../../../../arm-none-eabi/lib/armv7e-m/fpu\libc.a(lib_a-mprec.o)
                0x0800fbfc                __s2b
 .text.__hi0bits
                0x0800fc94       0x40 d:/rt-threadstudio/repo/extract/toolchain_support_packages/arm/gnu_tools_for_arm_embedded_processors/5.4.1/bin/../lib/gcc/arm-none-eabi/5.4.1/../../../../arm-none-eabi/lib/armv7e-m/fpu\libc.a(lib_a-mprec.o)
                0x0800fc94                __hi0bits
 .text.__lo0bits
                0x0800fcd4       0x5c d:/rt-threadstudio/repo/extract/toolchain_support_packages/arm/gnu_tools_for_arm_embedded_processors/5.4.1/bin/../lib/gcc/arm-none-eabi/5.4.1/../../../../arm-none-eabi/lib/armv7e-m/fpu\libc.a(lib_a-mprec.o)
                0x0800fcd4                __lo0bits
 .text.__i2b    0x0800fd30       0x14 d:/rt-threadstudio/repo/extract/toolchain_support_packages/arm/gnu_tools_for_arm_embedded_processors/5.4.1/bin/../lib/gcc/arm-none-eabi/5.4.1/../../../../arm-none-eabi/lib/armv7e-m/fpu\libc.a(lib_a-mprec.o)
                0x0800fd30                __i2b
 .text.__multiply
                0x0800fd44      0x130 d:/rt-threadstudio/repo/extract/toolchain_support_packages/arm/gnu_tools_for_arm_embedded_processors/5.4.1/bin/../lib/gcc/arm-none-eabi/5.4.1/../../../../arm-none-eabi/lib/armv7e-m/fpu\libc.a(lib_a-mprec.o)
                0x0800fd44                __multiply
 .text.__pow5mult
                0x0800fe74       0xa0 d:/rt-threadstudio/repo/extract/toolchain_support_packages/arm/gnu_tools_for_arm_embedded_processors/5.4.1/bin/../lib/gcc/arm-none-eabi/5.4.1/../../../../arm-none-eabi/lib/armv7e-m/fpu\libc.a(lib_a-mprec.o)
                0x0800fe74                __pow5mult
 .text.__lshift
                0x0800ff14       0xb0 d:/rt-threadstudio/repo/extract/toolchain_support_packages/arm/gnu_tools_for_arm_embedded_processors/5.4.1/bin/../lib/gcc/arm-none-eabi/5.4.1/../../../../arm-none-eabi/lib/armv7e-m/fpu\libc.a(lib_a-mprec.o)
                0x0800ff14                __lshift
 .text.__mcmp   0x0800ffc4       0x44 d:/rt-threadstudio/repo/extract/toolchain_support_packages/arm/gnu_tools_for_arm_embedded_processors/5.4.1/bin/../lib/gcc/arm-none-eabi/5.4.1/../../../../arm-none-eabi/lib/armv7e-m/fpu\libc.a(lib_a-mprec.o)
                0x0800ffc4                __mcmp
 .text.__mdiff  0x08010008      0x114 d:/rt-threadstudio/repo/extract/toolchain_support_packages/arm/gnu_tools_for_arm_embedded_processors/5.4.1/bin/../lib/gcc/arm-none-eabi/5.4.1/../../../../arm-none-eabi/lib/armv7e-m/fpu\libc.a(lib_a-mprec.o)
                0x08010008                __mdiff
 .text.__ulp    0x0801011c       0x54 d:/rt-threadstudio/repo/extract/toolchain_support_packages/arm/gnu_tools_for_arm_embedded_processors/5.4.1/bin/../lib/gcc/arm-none-eabi/5.4.1/../../../../arm-none-eabi/lib/armv7e-m/fpu\libc.a(lib_a-mprec.o)
                0x0801011c                __ulp
 .text.__b2d    0x08010170       0xd0 d:/rt-threadstudio/repo/extract/toolchain_support_packages/arm/gnu_tools_for_arm_embedded_processors/5.4.1/bin/../lib/gcc/arm-none-eabi/5.4.1/../../../../arm-none-eabi/lib/armv7e-m/fpu\libc.a(lib_a-mprec.o)
                0x08010170                __b2d
 .text.__d2b    0x08010240       0xbc d:/rt-threadstudio/repo/extract/toolchain_support_packages/arm/gnu_tools_for_arm_embedded_processors/5.4.1/bin/../lib/gcc/arm-none-eabi/5.4.1/../../../../arm-none-eabi/lib/armv7e-m/fpu\libc.a(lib_a-mprec.o)
                0x08010240                __d2b
 .text.__ratio  0x080102fc       0x60 d:/rt-threadstudio/repo/extract/toolchain_support_packages/arm/gnu_tools_for_arm_embedded_processors/5.4.1/bin/../lib/gcc/arm-none-eabi/5.4.1/../../../../arm-none-eabi/lib/armv7e-m/fpu\libc.a(lib_a-mprec.o)
                0x080102fc                __ratio
 .text.__copybits
                0x0801035c       0x48 d:/rt-threadstudio/repo/extract/toolchain_support_packages/arm/gnu_tools_for_arm_embedded_processors/5.4.1/bin/../lib/gcc/arm-none-eabi/5.4.1/../../../../arm-none-eabi/lib/armv7e-m/fpu\libc.a(lib_a-mprec.o)
                0x0801035c                __copybits
 .text.__any_on
                0x080103a4       0x60 d:/rt-threadstudio/repo/extract/toolchain_support_packages/arm/gnu_tools_for_arm_embedded_processors/5.4.1/bin/../lib/gcc/arm-none-eabi/5.4.1/../../../../arm-none-eabi/lib/armv7e-m/fpu\libc.a(lib_a-mprec.o)
                0x080103a4                __any_on
 .text.__ssprint_r
                0x08010404      0x100 d:/rt-threadstudio/repo/extract/toolchain_support_packages/arm/gnu_tools_for_arm_embedded_processors/5.4.1/bin/../lib/gcc/arm-none-eabi/5.4.1/../../../../arm-none-eabi/lib/armv7e-m/fpu\libc.a(lib_a-svfiprintf.o)
                0x08010404                __ssprint_r
 .text.__register_exitproc
                0x08010504       0xa4 d:/rt-threadstudio/repo/extract/toolchain_support_packages/arm/gnu_tools_for_arm_embedded_processors/5.4.1/bin/../lib/gcc/arm-none-eabi/5.4.1/../../../../arm-none-eabi/lib/armv7e-m/fpu\libc.a(lib_a-__atexit.o)
                0x08010504                __register_exitproc
 .text.memmove  0x080105a8       0xc8 d:/rt-threadstudio/repo/extract/toolchain_support_packages/arm/gnu_tools_for_arm_embedded_processors/5.4.1/bin/../lib/gcc/arm-none-eabi/5.4.1/../../../../arm-none-eabi/lib/armv7e-m/fpu\libc.a(lib_a-memmove.o)
                0x080105a8                memmove
 *(.rodata)
 .rodata        0x08010670       0x17 ./rt-thread/src/components.o
 *fill*         0x08010687        0x1 00000000
 .rodata        0x08010688       0xf4 ./rt-thread/src/device.o
 .rodata        0x0801077c       0x34 ./rt-thread/src/idle.o
 .rodata        0x080107b0      0x476 ./rt-thread/src/ipc.o
 *fill*         0x08010c26        0x2 00000000
 .rodata        0x08010c28       0xd7 ./rt-thread/src/kservice.o
 *fill*         0x08010cff        0x1 00000000
 .rodata        0x08010d00      0x2b1 ./rt-thread/src/mem.o
 *fill*         0x08010fb1        0x3 00000000
 .rodata        0x08010fb4       0x91 ./rt-thread/src/object.o
 *fill*         0x08011045        0x3 00000000
 .rodata        0x08011048       0x65 ./rt-thread/src/scheduler.o
 *fill*         0x080110ad        0x3 00000000
 .rodata        0x080110b0      0x19e ./rt-thread/src/thread.o
 *fill*         0x0801124e        0x2 00000000
 .rodata        0x08011250       0xde ./rt-thread/src/timer.o
 *fill*         0x0801132e        0x2 00000000
 .rodata        0x08011330      0x15e ./rt-thread/libcpu/arm/cortex-m4/cpuport.o
 *fill*         0x0801148e        0x2 00000000
 .rodata        0x08011490       0x72 ./rt-thread/components/drivers/src/completion.o
 *fill*         0x08011502        0x2 00000000
 .rodata        0x08011504       0x90 ./rt-thread/components/drivers/src/dataqueue.o
 .rodata        0x08011594       0x49 ./rt-thread/components/drivers/spi/spi_core.o
 *fill*         0x080115dd        0x3 00000000
 .rodata        0x080115e0       0x63 ./rt-thread/components/drivers/spi/spi_dev.o
 *fill*         0x08011643        0x1 00000000
 .rodata        0x08011644      0x19a ./rt-thread/components/drivers/serial/serial.o
 *fill*         0x080117de        0x2 00000000
 .rodata        0x080117e0       0x37 ./rt-thread/components/drivers/misc/pin.o
 *fill*         0x08011817        0x1 00000000
 .rodata        0x08011818        0x6 ./board/board.o
 *fill*         0x0801181e        0x2 00000000
 .rodata        0x08011820       0x15 ./applications/iic.o
 *fill*         0x08011835        0x3 00000000
 .rodata        0x08011838       0x15 ./applications/key.o
 *fill*         0x0801184d        0x3 00000000
 .rodata        0x08011850       0x15 ./applications/led.o
 *fill*         0x08011865        0x3 00000000
 .rodata        0x08011868       0x28 ./applications/spi_cs1238.o
 .rodata        0x08011890       0x5d ./applications/spi_da.o
 *fill*         0x080118ed        0x3 00000000
 .rodata        0x080118f0       0x40 ./applications/usart.o
 .rodata        0x08011930       0x19 ./applications/usart_command.o
 *fill*         0x08011949        0x3 00000000
 .rodata        0x0801194c        0x4 ./Libraries/rt_drivers/drv_gpio.o
 .rodata        0x08011950      0x191 ./Libraries/rt_drivers/drv_spi.o
 *fill*         0x08011ae1        0x3 00000000
 .rodata        0x08011ae4       0x6c ./Libraries/rt_drivers/drv_usart.o
 *(.rodata*)
 .rodata.__FUNCTION__.5086
                0x08011b50       0x14 ./rt-thread/src/components.o
 .rodata.__FUNCTION__.4995
                0x08011b64        0xf ./rt-thread/src/device.o
 *fill*         0x08011b73        0x1 00000000
 .rodata.__FUNCTION__.5000
                0x08011b74       0x10 ./rt-thread/src/device.o
 .rodata.__FUNCTION__.5007
                0x08011b84        0xf ./rt-thread/src/device.o
 *fill*         0x08011b93        0x1 00000000
 .rodata.__FUNCTION__.5014
                0x08011b94       0x10 ./rt-thread/src/device.o
 .rodata.__FUNCTION__.5020
                0x08011ba4       0x12 ./rt-thread/src/device.o
 *fill*         0x08011bb6        0x2 00000000
 .rodata.__FUNCTION__.5027
                0x08011bb8       0x1a ./rt-thread/src/device.o
 *fill*         0x08011bd2        0x2 00000000
 .rodata.__FUNCTION__.5078
                0x08011bd4       0x13 ./rt-thread/src/idle.o
 *fill*         0x08011be7        0x1 00000000
 .rodata.__FUNCTION__.5073
                0x08011be8        0xc ./rt-thread/src/ipc.o
 .rodata.__FUNCTION__.5097
                0x08011bf4        0xc ./rt-thread/src/ipc.o
 .rodata.__FUNCTION__.5054
                0x08011c00       0x12 ./rt-thread/src/ipc.o
 *fill*         0x08011c12        0x2 00000000
 .rodata.__FUNCTION__.5108
                0x08011c14        0xf ./rt-thread/src/ipc.o
 *fill*         0x08011c23        0x1 00000000
 .rodata.__FUNCTION__.5122
                0x08011c24        0xe ./rt-thread/src/ipc.o
 *fill*         0x08011c32        0x2 00000000
 .rodata.__FUNCTION__.5146
                0x08011c34        0xe ./rt-thread/src/ipc.o
 *fill*         0x08011c42        0x2 00000000
 .rodata.__FUNCTION__.5157
                0x08011c44       0x11 ./rt-thread/src/ipc.o
 *fill*         0x08011c55        0x3 00000000
 .rodata.__lowest_bit_bitmap
                0x08011c58      0x100 ./rt-thread/src/kservice.o
                0x08011c58                __lowest_bit_bitmap
 .rodata.large_digits.5211
                0x08011d58       0x11 ./rt-thread/src/kservice.o
 *fill*         0x08011d69        0x3 00000000
 .rodata.small_digits.5210
                0x08011d6c       0x11 ./rt-thread/src/kservice.o
 *fill*         0x08011d7d        0x3 00000000
 .rodata.__FUNCTION__.5054
                0x08011d80        0xb ./rt-thread/src/mem.o
 *fill*         0x08011d8b        0x1 00000000
 .rodata.__FUNCTION__.5063
                0x08011d8c       0x14 ./rt-thread/src/mem.o
 .rodata.__FUNCTION__.5072
                0x08011da0        0xa ./rt-thread/src/mem.o
 *fill*         0x08011daa        0x2 00000000
 .rodata.__FUNCTION__.5090
                0x08011dac        0xb ./rt-thread/src/mem.o
 *fill*         0x08011db7        0x1 00000000
 .rodata.__FUNCTION__.5101
                0x08011db8        0x8 ./rt-thread/src/mem.o
 .rodata.__FUNCTION__.5087
                0x08011dc0        0xf ./rt-thread/src/object.o
 *fill*         0x08011dcf        0x1 00000000
 .rodata.__FUNCTION__.5096
                0x08011dd0       0x11 ./rt-thread/src/object.o
 *fill*         0x08011de1        0x3 00000000
 .rodata.__FUNCTION__.5105
                0x08011de4       0x13 ./rt-thread/src/object.o
 *fill*         0x08011df7        0x1 00000000
 .rodata.__FUNCTION__.5110
                0x08011df8       0x11 ./rt-thread/src/object.o
 *fill*         0x08011e09        0x3 00000000
 .rodata.__FUNCTION__.5114
                0x08011e0c       0x1a ./rt-thread/src/object.o
 *fill*         0x08011e26        0x2 00000000
 .rodata.__FUNCTION__.5118
                0x08011e28       0x13 ./rt-thread/src/object.o
 *fill*         0x08011e3b        0x1 00000000
 .rodata.__FUNCTION__.5127
                0x08011e3c        0xf ./rt-thread/src/object.o
 *fill*         0x08011e4b        0x1 00000000
 .rodata.__FUNCTION__.5046
                0x08011e4c       0x1a ./rt-thread/src/scheduler.o
 *fill*         0x08011e66        0x2 00000000
 .rodata.__FUNCTION__.5084
                0x08011e68       0x1a ./rt-thread/src/scheduler.o
 *fill*         0x08011e82        0x2 00000000
 .rodata.__FUNCTION__.5090
                0x08011e84       0x1a ./rt-thread/src/scheduler.o
 *fill*         0x08011e9e        0x2 00000000
 .rodata.__FUNCTION__.5057
                0x08011ea0        0xd ./rt-thread/src/thread.o
 *fill*         0x08011ead        0x3 00000000
 .rodata.__FUNCTION__.5069
                0x08011eb0        0xf ./rt-thread/src/thread.o
 *fill*         0x08011ebf        0x1 00000000
 .rodata.__FUNCTION__.5078
                0x08011ec0       0x12 ./rt-thread/src/thread.o
 *fill*         0x08011ed2        0x2 00000000
 .rodata.__FUNCTION__.5083
                0x08011ed4       0x11 ./rt-thread/src/thread.o
 *fill*         0x08011ee5        0x3 00000000
 .rodata.__FUNCTION__.5099
                0x08011ee8       0x11 ./rt-thread/src/thread.o
 *fill*         0x08011ef9        0x3 00000000
 .rodata.__FUNCTION__.5110
                0x08011efc       0x10 ./rt-thread/src/thread.o
 .rodata.__FUNCTION__.5133
                0x08011f0c       0x12 ./rt-thread/src/thread.o
 *fill*         0x08011f1e        0x2 00000000
 .rodata.__FUNCTION__.5145
                0x08011f20       0x12 ./rt-thread/src/thread.o
 *fill*         0x08011f32        0x2 00000000
 .rodata.__FUNCTION__.5150
                0x08011f34       0x11 ./rt-thread/src/thread.o
 *fill*         0x08011f45        0x3 00000000
 .rodata.__FUNCTION__.5156
                0x08011f48       0x12 ./rt-thread/src/thread.o
 *fill*         0x08011f5a        0x2 00000000
 .rodata.__FUNCTION__.5076
                0x08011f5c        0xe ./rt-thread/src/timer.o
 *fill*         0x08011f6a        0x2 00000000
 .rodata.__FUNCTION__.5081
                0x08011f6c       0x10 ./rt-thread/src/timer.o
 .rodata.__FUNCTION__.5106
                0x08011f7c        0xf ./rt-thread/src/timer.o
 *fill*         0x08011f8b        0x1 00000000
 .rodata.__FUNCTION__.5123
                0x08011f8c        0xe ./rt-thread/src/timer.o
 *fill*         0x08011f9a        0x2 00000000
 .rodata.__FUNCTION__.5130
                0x08011f9c       0x11 ./rt-thread/src/timer.o
 *fill*         0x08011fad        0x3 00000000
 .rodata.__FUNCTION__.6228
                0x08011fb0       0x13 ./rt-thread/components/drivers/src/completion.o
 *fill*         0x08011fc3        0x1 00000000
 .rodata.__FUNCTION__.6236
                0x08011fc4       0x13 ./rt-thread/components/drivers/src/completion.o
 *fill*         0x08011fd7        0x1 00000000
 .rodata.__FUNCTION__.6243
                0x08011fd8       0x13 ./rt-thread/components/drivers/src/completion.o
 *fill*         0x08011feb        0x1 00000000
 .rodata.__FUNCTION__.6234
                0x08011fec       0x13 ./rt-thread/components/drivers/src/dataqueue.o
 *fill*         0x08011fff        0x1 00000000
 .rodata.__FUNCTION__.6244
                0x08012000       0x13 ./rt-thread/components/drivers/src/dataqueue.o
 *fill*         0x08012013        0x1 00000000
 .rodata.__FUNCTION__.6259
                0x08012014       0x12 ./rt-thread/components/drivers/src/dataqueue.o
 *fill*         0x08012026        0x2 00000000
 .rodata.__FUNCTION__.6271
                0x08012028       0x13 ./rt-thread/components/drivers/src/dataqueue.o
 *fill*         0x0801203b        0x1 00000000
 .rodata.__FUNCTION__.6277
                0x0801203c       0x14 ./rt-thread/components/drivers/src/dataqueue.o
 .rodata.__FUNCTION__.6288
                0x08012050       0x15 ./rt-thread/components/drivers/src/dataqueue.o
 *fill*         0x08012065        0x3 00000000
 .rodata.__FUNCTION__.6294
                0x08012068       0x12 ./rt-thread/components/drivers/src/dataqueue.o
 *fill*         0x0801207a        0x2 00000000
 .rodata.__FUNCTION__.5746
                0x0801207c       0x11 ./rt-thread/components/drivers/spi/spi_core.o
 *fill*         0x0801208d        0x3 00000000
 .rodata.__FUNCTION__.5777
                0x08012090       0x10 ./rt-thread/components/drivers/spi/spi_core.o
 .rodata.__FUNCTION__.5728
                0x080120a0       0x15 ./rt-thread/components/drivers/spi/spi_dev.o
 *fill*         0x080120b5        0x3 00000000
 .rodata.__FUNCTION__.5736
                0x080120b8       0x16 ./rt-thread/components/drivers/spi/spi_dev.o
 *fill*         0x080120ce        0x2 00000000
 .rodata.__FUNCTION__.5750
                0x080120d0       0x17 ./rt-thread/components/drivers/spi/spi_dev.o
 *fill*         0x080120e7        0x1 00000000
 .rodata.__FUNCTION__.5758
                0x080120e8       0x14 ./rt-thread/components/drivers/spi/spi_dev.o
 .rodata.__FUNCTION__.5766
                0x080120fc       0x15 ./rt-thread/components/drivers/spi/spi_dev.o
 *fill*         0x08012111        0x3 00000000
 .rodata.__FUNCTION__.5780
                0x08012114       0x16 ./rt-thread/components/drivers/spi/spi_dev.o
 *fill*         0x0801212a        0x2 00000000
 .rodata.__FUNCTION__.6277
                0x0801212c       0x1d ./rt-thread/components/drivers/serial/serial.o
 *fill*         0x08012149        0x3 00000000
 .rodata.__FUNCTION__.6286
                0x0801214c       0x1d ./rt-thread/components/drivers/serial/serial.o
 *fill*         0x08012169        0x3 00000000
 .rodata.__FUNCTION__.6292
                0x0801216c       0x1d ./rt-thread/components/drivers/serial/serial.o
 *fill*         0x08012189        0x3 00000000
 .rodata.__FUNCTION__.6318
                0x0801218c        0xf ./rt-thread/components/drivers/serial/serial.o
 *fill*         0x0801219b        0x1 00000000
 .rodata.__FUNCTION__.6325
                0x0801219c        0xf ./rt-thread/components/drivers/serial/serial.o
 *fill*         0x080121ab        0x1 00000000
 .rodata.__FUNCTION__.6335
                0x080121ac       0x10 ./rt-thread/components/drivers/serial/serial.o
 .rodata.__FUNCTION__.6348
                0x080121bc        0xf ./rt-thread/components/drivers/serial/serial.o
 *fill*         0x080121cb        0x1 00000000
 .rodata.__FUNCTION__.6252
                0x080121cc        0xf ./rt-thread/components/drivers/serial/serial.o
 *fill*         0x080121db        0x1 00000000
 .rodata.__FUNCTION__.6299
                0x080121dc        0xf ./rt-thread/components/drivers/serial/serial.o
 *fill*         0x080121eb        0x1 00000000
 .rodata.__FUNCTION__.6231
                0x080121ec       0x10 ./rt-thread/components/drivers/serial/serial.o
 .rodata.__FUNCTION__.6356
                0x080121fc       0x10 ./rt-thread/components/drivers/serial/serial.o
 .rodata.__FUNCTION__.6265
                0x0801220c        0xf ./rt-thread/components/drivers/serial/serial.o
 *fill*         0x0801221b        0x1 00000000
 .rodata.__FUNCTION__.6241
                0x0801221c       0x10 ./rt-thread/components/drivers/serial/serial.o
 .rodata.__FUNCTION__.6364
                0x0801222c       0x12 ./rt-thread/components/drivers/serial/serial.o
 *fill*         0x0801223e        0x2 00000000
 .rodata.__FUNCTION__.6379
                0x08012240       0x16 ./rt-thread/components/drivers/serial/serial.o
 *fill*         0x08012256        0x2 00000000
 .rodata.__FUNCTION__.6388
                0x08012258       0x11 ./rt-thread/components/drivers/serial/serial.o
 *fill*         0x08012269        0x3 00000000
 .rodata.__FUNCTION__.5040
                0x0801226c        0xa ./rt-thread/components/drivers/misc/pin.o
 *fill*         0x08012276        0x2 00000000
 .rodata.__FUNCTION__.5049
                0x08012278        0xb ./rt-thread/components/drivers/misc/pin.o
 *fill*         0x08012283        0x1 00000000
 .rodata.__FUNCTION__.5057
                0x08012284        0xd ./rt-thread/components/drivers/misc/pin.o
 *fill*         0x08012291        0x3 00000000
 .rodata.__FUNCTION__.5084
                0x08012294        0xc ./rt-thread/components/drivers/misc/pin.o
 .rodata.__FUNCTION__.5089
                0x080122a0        0xd ./rt-thread/components/drivers/misc/pin.o
 *fill*         0x080122ad        0x3 00000000
 .rodata.__FUNCTION__.5093
                0x080122b0        0xc ./rt-thread/components/drivers/misc/pin.o
 .rodata.F6x8   0x080122bc      0x228 ./applications/iic.o
                0x080122bc                F6x8
 .rodata.F8X16  0x080124e4      0x5f0 ./applications/iic.o
                0x080124e4                F8X16
 .rodata.Hzk1   0x08012ad4      0x100 ./applications/iic.o
                0x08012ad4                Hzk1
 .rodata.pins   0x08012bd4      0x7e4 ./Libraries/rt_drivers/drv_gpio.o
 .rodata.pin_irq_map
                0x080133b8       0xc0 ./Libraries/rt_drivers/drv_gpio.o
 .rodata._n32_pin_ops
                0x08013478       0x1c ./Libraries/rt_drivers/drv_gpio.o
 .rodata.n32_spi_ops
                0x08013494        0x8 ./Libraries/rt_drivers/drv_spi.o
 .rodata.__FUNCTION__.10439
                0x0801349c        0xd ./Libraries/rt_drivers/drv_spi.o
 *fill*         0x080134a9        0x3 00000000
 .rodata.__FUNCTION__.10446
                0x080134ac        0xe ./Libraries/rt_drivers/drv_spi.o
 *fill*         0x080134ba        0x2 00000000
 .rodata.__FUNCTION__.10456
                0x080134bc        0x8 ./Libraries/rt_drivers/drv_spi.o
 .rodata.__FUNCTION__.10474
                0x080134c4       0x13 ./Libraries/rt_drivers/drv_spi.o
 *fill*         0x080134d7        0x1 00000000
 .rodata.__FUNCTION__.10492
                0x080134d8       0x18 ./Libraries/rt_drivers/drv_spi.o
 .rodata.n32_uart_ops
                0x080134f0       0x14 ./Libraries/rt_drivers/drv_usart.o
 .rodata.__FUNCTION__.10508
                0x08013504       0x13 ./Libraries/rt_drivers/drv_usart.o
 *fill*         0x08013517        0x1 00000000
 .rodata.__FUNCTION__.10516
                0x08013518       0x11 ./Libraries/rt_drivers/drv_usart.o
 *fill*         0x08013529        0x3 00000000
 .rodata.__FUNCTION__.10526
                0x0801352c        0xe ./Libraries/rt_drivers/drv_usart.o
 *fill*         0x0801353a        0x2 00000000
 .rodata.__FUNCTION__.10535
                0x0801353c        0xe ./Libraries/rt_drivers/drv_usart.o
 *fill*         0x0801354a        0x2 00000000
 .rodata.__FUNCTION__.10553
                0x0801354c        0x9 ./Libraries/rt_drivers/drv_usart.o
 *fill*         0x08013555        0x3 00000000
 .rodata.s_ApbAhbPresTable
                0x08013558       0x10 ./Libraries/N32_Std_Driver/n32g45x_std_periph_driver/src/n32g45x_rcc.o
 .rodata.s_AdcHclkPresTable
                0x08013568       0x10 ./Libraries/N32_Std_Driver/n32g45x_std_periph_driver/src/n32g45x_rcc.o
 .rodata.s_AdcPllClkPresTable
                0x08013578       0x20 ./Libraries/N32_Std_Driver/n32g45x_std_periph_driver/src/n32g45x_rcc.o
 .rodata._global_impure_ptr
                0x08013598        0x4 d:/rt-threadstudio/repo/extract/toolchain_support_packages/arm/gnu_tools_for_arm_embedded_processors/5.4.1/bin/../lib/gcc/arm-none-eabi/5.4.1/../../../../arm-none-eabi/lib/armv7e-m/fpu\libc.a(lib_a-impure.o)
                0x08013598                _global_impure_ptr
 .rodata.str1.4
                0x0801359c        0xe d:/rt-threadstudio/repo/extract/toolchain_support_packages/arm/gnu_tools_for_arm_embedded_processors/5.4.1/bin/../lib/gcc/arm-none-eabi/5.4.1/../../../../arm-none-eabi/lib/armv7e-m/fpu\libc.a(lib_a-locale.o)
                                 0x12 (size before relaxing)
 *fill*         0x080135aa        0x2 00000000
 .rodata.fpi.6173
                0x080135ac       0x14 d:/rt-threadstudio/repo/extract/toolchain_support_packages/arm/gnu_tools_for_arm_embedded_processors/5.4.1/bin/../lib/gcc/arm-none-eabi/5.4.1/../../../../arm-none-eabi/lib/armv7e-m/fpu\libc.a(lib_a-strtod.o)
 .rodata.str1.4
                0x080135c0        0xf d:/rt-threadstudio/repo/extract/toolchain_support_packages/arm/gnu_tools_for_arm_embedded_processors/5.4.1/bin/../lib/gcc/arm-none-eabi/5.4.1/../../../../arm-none-eabi/lib/armv7e-m/fpu\libc.a(lib_a-strtod.o)
 *fill*         0x080135cf        0x1 00000000
 .rodata.fpinan.6209
                0x080135d0       0x14 d:/rt-threadstudio/repo/extract/toolchain_support_packages/arm/gnu_tools_for_arm_embedded_processors/5.4.1/bin/../lib/gcc/arm-none-eabi/5.4.1/../../../../arm-none-eabi/lib/armv7e-m/fpu\libc.a(lib_a-strtod.o)
 *fill*         0x080135e4        0x4 00000000
 .rodata.tinytens
                0x080135e8       0x28 d:/rt-threadstudio/repo/extract/toolchain_support_packages/arm/gnu_tools_for_arm_embedded_processors/5.4.1/bin/../lib/gcc/arm-none-eabi/5.4.1/../../../../arm-none-eabi/lib/armv7e-m/fpu\libc.a(lib_a-strtod.o)
 .rodata.zeroes.7258
                0x08013610       0x10 d:/rt-threadstudio/repo/extract/toolchain_support_packages/arm/gnu_tools_for_arm_embedded_processors/5.4.1/bin/../lib/gcc/arm-none-eabi/5.4.1/../../../../arm-none-eabi/lib/armv7e-m/fpu\libc.a(lib_a-svfprintf.o)
 .rodata.str1.4
                0x08013620       0x42 d:/rt-threadstudio/repo/extract/toolchain_support_packages/arm/gnu_tools_for_arm_embedded_processors/5.4.1/bin/../lib/gcc/arm-none-eabi/5.4.1/../../../../arm-none-eabi/lib/armv7e-m/fpu\libc.a(lib_a-svfprintf.o)
 *fill*         0x08013662        0x2 00000000
 .rodata.blanks.7257
                0x08013664       0x10 d:/rt-threadstudio/repo/extract/toolchain_support_packages/arm/gnu_tools_for_arm_embedded_processors/5.4.1/bin/../lib/gcc/arm-none-eabi/5.4.1/../../../../arm-none-eabi/lib/armv7e-m/fpu\libc.a(lib_a-svfprintf.o)
 .rodata._ctype_
                0x08013674      0x101 d:/rt-threadstudio/repo/extract/toolchain_support_packages/arm/gnu_tools_for_arm_embedded_processors/5.4.1/bin/../lib/gcc/arm-none-eabi/5.4.1/../../../../arm-none-eabi/lib/armv7e-m/fpu\libc.a(lib_a-ctype_.o)
                0x08013674                _ctype_
 *fill*         0x08013775        0x3 00000000
 .rodata.str1.4
                0x08013778       0x10 d:/rt-threadstudio/repo/extract/toolchain_support_packages/arm/gnu_tools_for_arm_embedded_processors/5.4.1/bin/../lib/gcc/arm-none-eabi/5.4.1/../../../../arm-none-eabi/lib/armv7e-m/fpu\libc.a(lib_a-dtoa.o)
                                 0x12 (size before relaxing)
 .rodata.__hexdig
                0x08013788      0x100 d:/rt-threadstudio/repo/extract/toolchain_support_packages/arm/gnu_tools_for_arm_embedded_processors/5.4.1/bin/../lib/gcc/arm-none-eabi/5.4.1/../../../../arm-none-eabi/lib/armv7e-m/fpu\libc.a(lib_a-gdtoa-gethex.o)
                0x08013788                __hexdig
 .rodata.__mprec_tens
                0x08013888       0xc8 d:/rt-threadstudio/repo/extract/toolchain_support_packages/arm/gnu_tools_for_arm_embedded_processors/5.4.1/bin/../lib/gcc/arm-none-eabi/5.4.1/../../../../arm-none-eabi/lib/armv7e-m/fpu\libc.a(lib_a-mprec.o)
                0x08013888                __mprec_tens
 .rodata.__mprec_bigtens
                0x08013950       0x28 d:/rt-threadstudio/repo/extract/toolchain_support_packages/arm/gnu_tools_for_arm_embedded_processors/5.4.1/bin/../lib/gcc/arm-none-eabi/5.4.1/../../../../arm-none-eabi/lib/armv7e-m/fpu\libc.a(lib_a-mprec.o)
                0x08013950                __mprec_bigtens
 .rodata.p05.6087
                0x08013978        0xc d:/rt-threadstudio/repo/extract/toolchain_support_packages/arm/gnu_tools_for_arm_embedded_processors/5.4.1/bin/../lib/gcc/arm-none-eabi/5.4.1/../../../../arm-none-eabi/lib/armv7e-m/fpu\libc.a(lib_a-mprec.o)
 *(.glue_7)
 .glue_7        0x08013984        0x0 linker stubs
 *(.glue_7t)
 .glue_7t       0x08013984        0x0 linker stubs
 *(.gnu.linkonce.t*)
                0x08013984                . = ALIGN (0x4)
                0x08013984                __fsymtab_start = .
 *(FSymTab)
                0x08013984                __fsymtab_end = .
                0x08013984                . = ALIGN (0x4)
                0x08013984                __vsymtab_start = .
 *(VSymTab)
                0x08013984                __vsymtab_end = .
                0x08013984                . = ALIGN (0x4)
                0x08013984                __rt_init_start = .
 *(SORT(.rti_fn*))
 .rti_fn.0      0x08013984        0x4 ./rt-thread/src/components.o
                0x08013984                __rt_init_rti_start
 .rti_fn.0.end  0x08013988        0x4 ./rt-thread/src/components.o
                0x08013988                __rt_init_rti_board_start
 .rti_fn.1      0x0801398c        0x4 ./Libraries/rt_drivers/drv_gpio.o
                0x0801398c                __rt_init_n32_hw_pin_init
 .rti_fn.1      0x08013990        0x4 ./Libraries/rt_drivers/drv_spi.o
                0x08013990                __rt_init_rt_hw_spi_init
 .rti_fn.1      0x08013994        0x4 ./Libraries/rt_drivers/drv_usart.o
                0x08013994                __rt_init_rt_hw_usart_init
 .rti_fn.1.end  0x08013998        0x4 ./rt-thread/src/components.o
                0x08013998                __rt_init_rti_board_end
 .rti_fn.6      0x0801399c        0x4 ./applications/iic.o
                0x0801399c                __rt_init_Thread_IIC
 .rti_fn.6      0x080139a0        0x4 ./applications/key.o
                0x080139a0                __rt_init_Thread_key
 .rti_fn.6      0x080139a4        0x4 ./applications/led.o
                0x080139a4                __rt_init_Thread_LED
 .rti_fn.6      0x080139a8        0x4 ./applications/spi_cs1238.o
                0x080139a8                __rt_init_spi_cs1238_sample
 .rti_fn.6      0x080139ac        0x4 ./applications/spi_da.o
                0x080139ac                __rt_init_Thread_SPI
 .rti_fn.6      0x080139b0        0x4 ./applications/usart.o
                0x080139b0                __rt_init_uart_sample
 .rti_fn.6.end  0x080139b4        0x4 ./rt-thread/src/components.o
                0x080139b4                __rt_init_rti_end
                0x080139b8                __rt_init_end = .
                0x080139b8                . = ALIGN (0x4)
                [!provide]                PROVIDE (__ctors_start__, .)
 *(SORT(.init_array.*))
 .init_array.00000
                0x080139b8        0x4 d:/rt-threadstudio/repo/extract/toolchain_support_packages/arm/gnu_tools_for_arm_embedded_processors/5.4.1/bin/../lib/gcc/arm-none-eabi/5.4.1/../../../../arm-none-eabi/lib/armv7e-m/fpu\libc.a(lib_a-__call_atexit.o)
 *(.init_array)
 .init_array    0x080139bc        0x4 d:/rt-threadstudio/repo/extract/toolchain_support_packages/arm/gnu_tools_for_arm_embedded_processors/5.4.1/bin/../lib/gcc/arm-none-eabi/5.4.1/armv7e-m/fpu/crtbegin.o
                [!provide]                PROVIDE (__ctors_end__, .)
                0x080139c0                . = ALIGN (0x4)
                0x080139c0                _etext = .
                0x080139c0                __exidx_start = .

.vfp11_veneer   0x080139c0        0x0
 .vfp11_veneer  0x080139c0        0x0 linker stubs

.v4_bx          0x080139c0        0x0
 .v4_bx         0x080139c0        0x0 linker stubs

.init           0x080139c0        0x4
 .init          0x080139c0        0x4 d:/rt-threadstudio/repo/extract/toolchain_support_packages/arm/gnu_tools_for_arm_embedded_processors/5.4.1/bin/../lib/gcc/arm-none-eabi/5.4.1/armv7e-m/fpu/crti.o
                0x080139c0                _init

.fini           0x080139c4        0x4
 .fini          0x080139c4        0x4 d:/rt-threadstudio/repo/extract/toolchain_support_packages/arm/gnu_tools_for_arm_embedded_processors/5.4.1/bin/../lib/gcc/arm-none-eabi/5.4.1/armv7e-m/fpu/crti.o
                0x080139c4                _fini

.iplt           0x080139c8        0x0
 .iplt          0x080139c8        0x0 d:/rt-threadstudio/repo/extract/toolchain_support_packages/arm/gnu_tools_for_arm_embedded_processors/5.4.1/bin/../lib/gcc/arm-none-eabi/5.4.1/armv7e-m/fpu/crtbegin.o

.eh_frame       0x080139c8        0x0
 .eh_frame      0x080139c8        0x0 d:/rt-threadstudio/repo/extract/toolchain_support_packages/arm/gnu_tools_for_arm_embedded_processors/5.4.1/bin/../lib/gcc/arm-none-eabi/5.4.1/armv7e-m/fpu/crtbegin.o

.ARM.exidx      0x080139c8        0x8
 *(.ARM.exidx* .gnu.linkonce.armexidx.*)
 .ARM.exidx     0x080139c8        0x8 d:/rt-threadstudio/repo/extract/toolchain_support_packages/arm/gnu_tools_for_arm_embedded_processors/5.4.1/bin/../lib/gcc/arm-none-eabi/5.4.1/armv7e-m/fpu\libgcc.a(_udivmoddi4.o)
                0x080139d0                _sidata = .
                0x080139d0                __exidx_end = .

.rel.dyn        0x080139d0        0x0
 .rel.iplt      0x080139d0        0x0 d:/rt-threadstudio/repo/extract/toolchain_support_packages/arm/gnu_tools_for_arm_embedded_processors/5.4.1/bin/../lib/gcc/arm-none-eabi/5.4.1/armv7e-m/fpu/crtbegin.o

.data           0x20000000      0x758 load address 0x080139d0
                0x20000000                . = ALIGN (0x4)
                0x20000000                _sdata = .
 *(.data)
 *(.data.*)
 .data._rt_thread_defunct
                0x20000000        0x8 ./rt-thread/src/idle.o
 .data._object_container
                0x20000008       0x90 ./rt-thread/src/object.o
 .data._soft_timer_status
                0x20000098        0x1 ./rt-thread/src/timer.o
 *fill*         0x20000099        0x3 
 .data.VOLTAGE_MIN
                0x2000009c        0x4 ./applications/spi_cs1238.o
                0x2000009c                VOLTAGE_MIN
 .data.VOLTAGE_MAX
                0x200000a0        0x4 ./applications/spi_cs1238.o
                0x200000a0                VOLTAGE_MAX
 .data.CURRENT_MIN
                0x200000a4        0x4 ./applications/spi_cs1238.o
                0x200000a4                CURRENT_MIN
 .data.CURRENT_MAX
                0x200000a8        0x4 ./applications/spi_cs1238.o
                0x200000a8                CURRENT_MAX
 .data.send_data_voltage
                0x200000ac        0x4 ./applications/spi_da.o
                0x200000ac                send_data_voltage
 .data.send_data_current
                0x200000b0        0x4 ./applications/spi_da.o
                0x200000b0                send_data_current
 .data.pin_irq_hdr_tab
                0x200000b4       0xc0 ./Libraries/rt_drivers/drv_gpio.o
                0x200000b4                pin_irq_hdr_tab
 .data.spi_config
                0x20000174        0x8 ./Libraries/rt_drivers/drv_spi.o
 .data.uart1    0x2000017c       0x20 ./Libraries/rt_drivers/drv_usart.o
                0x2000017c                uart1
 .data.uart2    0x2000019c       0x20 ./Libraries/rt_drivers/drv_usart.o
                0x2000019c                uart2
 .data.SystemCoreClock
                0x200001bc        0x4 ./Libraries/N32_Std_Driver/CMSIS/device/system_n32g45x.o
                0x200001bc                SystemCoreClock
 .data.impure_data
                0x200001c0      0x428 d:/rt-threadstudio/repo/extract/toolchain_support_packages/arm/gnu_tools_for_arm_embedded_processors/5.4.1/bin/../lib/gcc/arm-none-eabi/5.4.1/../../../../arm-none-eabi/lib/armv7e-m/fpu\libc.a(lib_a-impure.o)
 .data._impure_ptr
                0x200005e8        0x4 d:/rt-threadstudio/repo/extract/toolchain_support_packages/arm/gnu_tools_for_arm_embedded_processors/5.4.1/bin/../lib/gcc/arm-none-eabi/5.4.1/../../../../arm-none-eabi/lib/armv7e-m/fpu\libc.a(lib_a-impure.o)
                0x200005e8                _impure_ptr
 .data.__global_locale
                0x200005ec      0x16c d:/rt-threadstudio/repo/extract/toolchain_support_packages/arm/gnu_tools_for_arm_embedded_processors/5.4.1/bin/../lib/gcc/arm-none-eabi/5.4.1/../../../../arm-none-eabi/lib/armv7e-m/fpu\libc.a(lib_a-locale.o)
                0x200005ec                __global_locale
 *(.gnu.linkonce.d*)
                [!provide]                PROVIDE (__dtors_start__, .)
 *(SORT(.dtors.*))
 *(.dtors)
                [!provide]                PROVIDE (__dtors_end__, .)
                0x20000758                . = ALIGN (0x4)
                0x20000758                _edata = .

.jcr            0x20000758        0x0 load address 0x08014128
 .jcr           0x20000758        0x0 d:/rt-threadstudio/repo/extract/toolchain_support_packages/arm/gnu_tools_for_arm_embedded_processors/5.4.1/bin/../lib/gcc/arm-none-eabi/5.4.1/armv7e-m/fpu/crtbegin.o

.igot.plt       0x20000758        0x0 load address 0x08014128
 .igot.plt      0x20000758        0x0 d:/rt-threadstudio/repo/extract/toolchain_support_packages/arm/gnu_tools_for_arm_embedded_processors/5.4.1/bin/../lib/gcc/arm-none-eabi/5.4.1/armv7e-m/fpu/crtbegin.o

.stack          0x20000758      0x200 load address 0x08014128
                0x20000758                . = ALIGN (0x4)
                0x20000758                _sstack = .
                0x20000958                . = (. + _system_stack_size)
 *fill*         0x20000758      0x200 
                0x20000958                . = ALIGN (0x4)
                0x20000958                _estack = .
                0x20000958                __bss_start = .

.bss            0x20000958     0x11c0 load address 0x08014328
                0x20000958                . = ALIGN (0x4)
                0x20000958                _sbss = .
 *(.bss)
 .bss           0x20000958       0x1c d:/rt-threadstudio/repo/extract/toolchain_support_packages/arm/gnu_tools_for_arm_embedded_processors/5.4.1/bin/../lib/gcc/arm-none-eabi/5.4.1/armv7e-m/fpu/crtbegin.o
 *(.bss.*)
 .bss.rt_tick   0x20000974        0x4 ./rt-thread/src/clock.o
 .bss.idle      0x20000978       0x80 ./rt-thread/src/idle.o
 .bss.rt_thread_stack
                0x200009f8      0x400 ./rt-thread/src/idle.o
 .bss.idle_hook_list
                0x20000df8       0x10 ./rt-thread/src/idle.o
 .bss.rt_interrupt_nest
                0x20000e08        0x1 ./rt-thread/src/irq.o
                0x20000e08                rt_interrupt_nest
 *fill*         0x20000e09        0x3 
 .bss.__rt_errno
                0x20000e0c        0x4 ./rt-thread/src/kservice.o
 .bss._console_device
                0x20000e10        0x4 ./rt-thread/src/kservice.o
 .bss.rt_log_buf.5323
                0x20000e14       0x80 ./rt-thread/src/kservice.o
 .bss.heap_ptr  0x20000e94        0x4 ./rt-thread/src/mem.o
 .bss.heap_end  0x20000e98        0x4 ./rt-thread/src/mem.o
 .bss.lfree     0x20000e9c        0x4 ./rt-thread/src/mem.o
 .bss.heap_sem  0x20000ea0       0x20 ./rt-thread/src/mem.o
 .bss.mem_size_aligned
                0x20000ec0        0x4 ./rt-thread/src/mem.o
 .bss.used_mem  0x20000ec4        0x4 ./rt-thread/src/mem.o
 .bss.max_mem   0x20000ec8        0x4 ./rt-thread/src/mem.o
 .bss.rt_scheduler_lock_nest
                0x20000ecc        0x2 ./rt-thread/src/scheduler.o
 *fill*         0x20000ece        0x2 
 .bss.rt_current_thread
                0x20000ed0        0x4 ./rt-thread/src/scheduler.o
                0x20000ed0                rt_current_thread
 .bss._timer_list
                0x20000ed4        0x8 ./rt-thread/src/timer.o
 .bss._soft_timer_list
                0x20000edc        0x8 ./rt-thread/src/timer.o
 .bss._timer_thread
                0x20000ee4       0x80 ./rt-thread/src/timer.o
 .bss._timer_thread_stack
                0x20000f64      0x400 ./rt-thread/src/timer.o
 .bss.random_nr.5105
                0x20001364        0x4 ./rt-thread/src/timer.o
 .bss.rt_exception_hook
                0x20001368        0x4 ./rt-thread/libcpu/arm/cortex-m4/cpuport.o
 .bss.already_output.6272
                0x2000136c        0x4 ./rt-thread/components/drivers/serial/serial.o
 .bss._hw_pin   0x20001370       0x44 ./rt-thread/components/drivers/misc/pin.o
 .bss.key_send_flage
                0x200013b4        0x1 ./applications/key.o
                0x200013b4                key_send_flage
 *fill*         0x200013b5        0x3 
 .bss.read_v.7979
                0x200013b8        0x4 ./applications/spi_cs1238.o
 .bss.read_i.7980
                0x200013bc        0x4 ./applications/spi_cs1238.o
 .bss.serial    0x200013c0        0x4 ./applications/usart.o
 .bss.USART_RX_STA
                0x200013c4        0x1 ./applications/usart.o
                0x200013c4                USART_RX_STA
 *fill*         0x200013c5        0x3 
 .bss.rx_sem    0x200013c8       0x20 ./applications/usart.o
 .bss.spi_bus_obj
                0x200013e8       0x8c ./Libraries/rt_drivers/drv_spi.o
 *(COMMON)
 COMMON         0x20001474        0x4 ./rt-thread/src/kservice.o
                0x20001474                rt_assert_hook
 COMMON         0x20001478      0x108 ./rt-thread/src/scheduler.o
                0x20001478                rt_thread_priority_table
                0x20001578                rt_current_priority
                0x2000157c                rt_thread_ready_priority_group
 COMMON         0x20001580        0xc ./rt-thread/libcpu/arm/cortex-m4/cpuport.o
                0x20001580                rt_interrupt_to_thread
                0x20001584                rt_interrupt_from_thread
                0x20001588                rt_thread_switch_interrupt_flag
 COMMON         0x2000158c      0x4b0 ./applications/iic.o
                0x2000158c                display_current
                0x20001598                display_voltage
                0x200015a4                display_current_read
                0x200015b0                display_voltage_read
                0x200015bc                OLED_GRAM
 COMMON         0x20001a3c        0x1 ./applications/key.o
                0x20001a3c                cc_cvflage
 *fill*         0x20001a3d        0x3 
 COMMON         0x20001a40        0x4 ./applications/spi_da.o
                0x20001a40                spi_da
 COMMON         0x20001a44       0x28 ./applications/usart.o
                0x20001a44                USART_RX_BUF
                0x20001a64                config
 COMMON         0x20001a6c        0x2 ./applications/usart_command.o
                0x20001a6c                usart_flage_voltage
                0x20001a6d                usart_flage_current
 *fill*         0x20001a6e        0x2 
 COMMON         0x20001a70       0xa8 ./Libraries/rt_drivers/drv_usart.o
                0x20001a70                serial1
                0x20001ac4                serial2
                0x20001b18                . = ALIGN (0x4)
                0x20001b18                _ebss = .
 *(.bss.init)
                0x20001b18                __bss_end = .
                0x20001b18                _end = .

.stab
 *(.stab)

.stabstr
 *(.stabstr)

.stab.excl
 *(.stab.excl)

.stab.exclstr
 *(.stab.exclstr)

.stab.index
 *(.stab.index)

.stab.indexstr
 *(.stab.indexstr)

.comment        0x00000000       0x6e
 *(.comment)
 .comment       0x00000000       0x6e ./rt-thread/src/clock.o
                                 0x6f (size before relaxing)
 .comment       0x0000006e       0x6f ./rt-thread/src/components.o
 .comment       0x0000006e       0x6f ./rt-thread/src/device.o
 .comment       0x0000006e       0x6f ./rt-thread/src/idle.o
 .comment       0x0000006e       0x6f ./rt-thread/src/ipc.o
 .comment       0x0000006e       0x6f ./rt-thread/src/irq.o
 .comment       0x0000006e       0x6f ./rt-thread/src/kservice.o
 .comment       0x0000006e       0x6f ./rt-thread/src/mem.o
 .comment       0x0000006e       0x6f ./rt-thread/src/object.o
 .comment       0x0000006e       0x6f ./rt-thread/src/scheduler.o
 .comment       0x0000006e       0x6f ./rt-thread/src/thread.o
 .comment       0x0000006e       0x6f ./rt-thread/src/timer.o
 .comment       0x0000006e       0x6f ./rt-thread/libcpu/arm/cortex-m4/cpuport.o
 .comment       0x0000006e       0x6f ./rt-thread/components/libc/compilers/gcc/newlib/syscalls.o
 .comment       0x0000006e       0x6f ./rt-thread/components/drivers/src/completion.o
 .comment       0x0000006e       0x6f ./rt-thread/components/drivers/src/dataqueue.o
 .comment       0x0000006e       0x6f ./rt-thread/components/drivers/spi/spi_core.o
 .comment       0x0000006e       0x6f ./rt-thread/components/drivers/spi/spi_dev.o
 .comment       0x0000006e       0x6f ./rt-thread/components/drivers/serial/serial.o
 .comment       0x0000006e       0x6f ./rt-thread/components/drivers/misc/pin.o
 .comment       0x0000006e       0x6f ./board/msp/n32_msp.o
 .comment       0x0000006e       0x6f ./board/board.o
 .comment       0x0000006e       0x6f ./applications/iic.o
 .comment       0x0000006e       0x6f ./applications/key.o
 .comment       0x0000006e       0x6f ./applications/led.o
 .comment       0x0000006e       0x6f ./applications/main.o
 .comment       0x0000006e       0x6f ./applications/spi_cs1238.o
 .comment       0x0000006e       0x6f ./applications/spi_da.o
 .comment       0x0000006e       0x6f ./applications/usart.o
 .comment       0x0000006e       0x6f ./applications/usart_command.o
 .comment       0x0000006e       0x6f ./Libraries/rt_drivers/drv_common.o
 .comment       0x0000006e       0x6f ./Libraries/rt_drivers/drv_gpio.o
 .comment       0x0000006e       0x6f ./Libraries/rt_drivers/drv_spi.o
 .comment       0x0000006e       0x6f ./Libraries/rt_drivers/drv_usart.o
 .comment       0x0000006e       0x6f ./Libraries/N32_Std_Driver/n32g45x_std_periph_driver/src/misc.o
 .comment       0x0000006e       0x6f ./Libraries/N32_Std_Driver/n32g45x_std_periph_driver/src/n32g45x_dma.o
 .comment       0x0000006e       0x6f ./Libraries/N32_Std_Driver/n32g45x_std_periph_driver/src/n32g45x_exti.o
 .comment       0x0000006e       0x6f ./Libraries/N32_Std_Driver/n32g45x_std_periph_driver/src/n32g45x_gpio.o
 .comment       0x0000006e       0x6f ./Libraries/N32_Std_Driver/n32g45x_std_periph_driver/src/n32g45x_rcc.o
 .comment       0x0000006e       0x6f ./Libraries/N32_Std_Driver/n32g45x_std_periph_driver/src/n32g45x_spi.o
 .comment       0x0000006e       0x6f ./Libraries/N32_Std_Driver/n32g45x_std_periph_driver/src/n32g45x_usart.o
 .comment       0x0000006e       0x6f ./Libraries/N32_Std_Driver/CMSIS/device/system_n32g45x.o

.ARM.attributes
                0x00000000       0x30
 .ARM.attributes
                0x00000000       0x22 d:/rt-threadstudio/repo/extract/toolchain_support_packages/arm/gnu_tools_for_arm_embedded_processors/5.4.1/bin/../lib/gcc/arm-none-eabi/5.4.1/armv7e-m/fpu/crti.o
 .ARM.attributes
                0x00000022       0x34 d:/rt-threadstudio/repo/extract/toolchain_support_packages/arm/gnu_tools_for_arm_embedded_processors/5.4.1/bin/../lib/gcc/arm-none-eabi/5.4.1/armv7e-m/fpu/crtbegin.o
 .ARM.attributes
                0x00000056       0x39 ./rt-thread/src/clock.o
 .ARM.attributes
                0x0000008f       0x39 ./rt-thread/src/components.o
 .ARM.attributes
                0x000000c8       0x39 ./rt-thread/src/device.o
 .ARM.attributes
                0x00000101       0x39 ./rt-thread/src/idle.o
 .ARM.attributes
                0x0000013a       0x39 ./rt-thread/src/ipc.o
 .ARM.attributes
                0x00000173       0x39 ./rt-thread/src/irq.o
 .ARM.attributes
                0x000001ac       0x39 ./rt-thread/src/kservice.o
 .ARM.attributes
                0x000001e5       0x39 ./rt-thread/src/mem.o
 .ARM.attributes
                0x0000021e       0x39 ./rt-thread/src/object.o
 .ARM.attributes
                0x00000257       0x39 ./rt-thread/src/scheduler.o
 .ARM.attributes
                0x00000290       0x39 ./rt-thread/src/thread.o
 .ARM.attributes
                0x000002c9       0x39 ./rt-thread/src/timer.o
 .ARM.attributes
                0x00000302       0x25 ./rt-thread/libcpu/arm/cortex-m4/context_gcc.o
 .ARM.attributes
                0x00000327       0x39 ./rt-thread/libcpu/arm/cortex-m4/cpuport.o
 .ARM.attributes
                0x00000360       0x39 ./rt-thread/components/libc/compilers/gcc/newlib/syscalls.o
 .ARM.attributes
                0x00000399       0x39 ./rt-thread/components/drivers/src/completion.o
 .ARM.attributes
                0x000003d2       0x39 ./rt-thread/components/drivers/src/dataqueue.o
 .ARM.attributes
                0x0000040b       0x39 ./rt-thread/components/drivers/spi/spi_core.o
 .ARM.attributes
                0x00000444       0x39 ./rt-thread/components/drivers/spi/spi_dev.o
 .ARM.attributes
                0x0000047d       0x39 ./rt-thread/components/drivers/serial/serial.o
 .ARM.attributes
                0x000004b6       0x39 ./rt-thread/components/drivers/misc/pin.o
 .ARM.attributes
                0x000004ef       0x39 ./board/msp/n32_msp.o
 .ARM.attributes
                0x00000528       0x39 ./board/board.o
 .ARM.attributes
                0x00000561       0x39 ./applications/iic.o
 .ARM.attributes
                0x0000059a       0x39 ./applications/key.o
 .ARM.attributes
                0x000005d3       0x39 ./applications/led.o
 .ARM.attributes
                0x0000060c       0x39 ./applications/main.o
 .ARM.attributes
                0x00000645       0x39 ./applications/spi_cs1238.o
 .ARM.attributes
                0x0000067e       0x39 ./applications/spi_da.o
 .ARM.attributes
                0x000006b7       0x39 ./applications/usart.o
 .ARM.attributes
                0x000006f0       0x39 ./applications/usart_command.o
 .ARM.attributes
                0x00000729       0x39 ./Libraries/rt_drivers/drv_common.o
 .ARM.attributes
                0x00000762       0x39 ./Libraries/rt_drivers/drv_gpio.o
 .ARM.attributes
                0x0000079b       0x39 ./Libraries/rt_drivers/drv_spi.o
 .ARM.attributes
                0x000007d4       0x39 ./Libraries/rt_drivers/drv_usart.o
 .ARM.attributes
                0x0000080d       0x39 ./Libraries/N32_Std_Driver/n32g45x_std_periph_driver/src/misc.o
 .ARM.attributes
                0x00000846       0x39 ./Libraries/N32_Std_Driver/n32g45x_std_periph_driver/src/n32g45x_dma.o
 .ARM.attributes
                0x0000087f       0x39 ./Libraries/N32_Std_Driver/n32g45x_std_periph_driver/src/n32g45x_exti.o
 .ARM.attributes
                0x000008b8       0x39 ./Libraries/N32_Std_Driver/n32g45x_std_periph_driver/src/n32g45x_gpio.o
 .ARM.attributes
                0x000008f1       0x39 ./Libraries/N32_Std_Driver/n32g45x_std_periph_driver/src/n32g45x_rcc.o
 .ARM.attributes
                0x0000092a       0x39 ./Libraries/N32_Std_Driver/n32g45x_std_periph_driver/src/n32g45x_spi.o
 .ARM.attributes
                0x00000963       0x39 ./Libraries/N32_Std_Driver/n32g45x_std_periph_driver/src/n32g45x_usart.o
 .ARM.attributes
                0x0000099c       0x21 ./Libraries/N32_Std_Driver/CMSIS/device/startup/startup_n32g45x_gcc.o
 .ARM.attributes
                0x000009bd       0x39 ./Libraries/N32_Std_Driver/CMSIS/device/system_n32g45x.o
 .ARM.attributes
                0x000009f6       0x22 d:/rt-threadstudio/repo/extract/toolchain_support_packages/arm/gnu_tools_for_arm_embedded_processors/5.4.1/bin/../lib/gcc/arm-none-eabi/5.4.1/armv7e-m/fpu\libgcc.a(_arm_addsubdf3.o)
 .ARM.attributes
                0x00000a18       0x22 d:/rt-threadstudio/repo/extract/toolchain_support_packages/arm/gnu_tools_for_arm_embedded_processors/5.4.1/bin/../lib/gcc/arm-none-eabi/5.4.1/armv7e-m/fpu\libgcc.a(_arm_muldivdf3.o)
 .ARM.attributes
                0x00000a3a       0x22 d:/rt-threadstudio/repo/extract/toolchain_support_packages/arm/gnu_tools_for_arm_embedded_processors/5.4.1/bin/../lib/gcc/arm-none-eabi/5.4.1/armv7e-m/fpu\libgcc.a(_arm_cmpdf2.o)
 .ARM.attributes
                0x00000a5c       0x22 d:/rt-threadstudio/repo/extract/toolchain_support_packages/arm/gnu_tools_for_arm_embedded_processors/5.4.1/bin/../lib/gcc/arm-none-eabi/5.4.1/armv7e-m/fpu\libgcc.a(_arm_truncdfsf2.o)
 .ARM.attributes
                0x00000a7e       0x34 d:/rt-threadstudio/repo/extract/toolchain_support_packages/arm/gnu_tools_for_arm_embedded_processors/5.4.1/bin/../lib/gcc/arm-none-eabi/5.4.1/../../../../arm-none-eabi/lib/armv7e-m/fpu\libc.a(lib_a-atof.o)
 .ARM.attributes
                0x00000ab2       0x34 d:/rt-threadstudio/repo/extract/toolchain_support_packages/arm/gnu_tools_for_arm_embedded_processors/5.4.1/bin/../lib/gcc/arm-none-eabi/5.4.1/../../../../arm-none-eabi/lib/armv7e-m/fpu\libc.a(lib_a-impure.o)
 .ARM.attributes
                0x00000ae6       0x34 d:/rt-threadstudio/repo/extract/toolchain_support_packages/arm/gnu_tools_for_arm_embedded_processors/5.4.1/bin/../lib/gcc/arm-none-eabi/5.4.1/../../../../arm-none-eabi/lib/armv7e-m/fpu\libc.a(lib_a-locale.o)
 .ARM.attributes
                0x00000b1a       0x34 d:/rt-threadstudio/repo/extract/toolchain_support_packages/arm/gnu_tools_for_arm_embedded_processors/5.4.1/bin/../lib/gcc/arm-none-eabi/5.4.1/../../../../arm-none-eabi/lib/armv7e-m/fpu\libc.a(lib_a-mbtowc_r.o)
 .ARM.attributes
                0x00000b4e       0x20 d:/rt-threadstudio/repo/extract/toolchain_support_packages/arm/gnu_tools_for_arm_embedded_processors/5.4.1/bin/../lib/gcc/arm-none-eabi/5.4.1/../../../../arm-none-eabi/lib/armv7e-m/fpu\libc.a(lib_a-memcpy.o)
 .ARM.attributes
                0x00000b6e       0x34 d:/rt-threadstudio/repo/extract/toolchain_support_packages/arm/gnu_tools_for_arm_embedded_processors/5.4.1/bin/../lib/gcc/arm-none-eabi/5.4.1/../../../../arm-none-eabi/lib/armv7e-m/fpu\libc.a(lib_a-snprintf.o)
 .ARM.attributes
                0x00000ba2       0x34 d:/rt-threadstudio/repo/extract/toolchain_support_packages/arm/gnu_tools_for_arm_embedded_processors/5.4.1/bin/../lib/gcc/arm-none-eabi/5.4.1/../../../../arm-none-eabi/lib/armv7e-m/fpu\libc.a(lib_a-strcpy.o)
 .ARM.attributes
                0x00000bd6       0x20 d:/rt-threadstudio/repo/extract/toolchain_support_packages/arm/gnu_tools_for_arm_embedded_processors/5.4.1/bin/../lib/gcc/arm-none-eabi/5.4.1/../../../../arm-none-eabi/lib/armv7e-m/fpu\libc.a(lib_a-strlen.o)
 .ARM.attributes
                0x00000bf6       0x34 d:/rt-threadstudio/repo/extract/toolchain_support_packages/arm/gnu_tools_for_arm_embedded_processors/5.4.1/bin/../lib/gcc/arm-none-eabi/5.4.1/../../../../arm-none-eabi/lib/armv7e-m/fpu\libc.a(lib_a-strncmp.o)
 .ARM.attributes
                0x00000c2a       0x34 d:/rt-threadstudio/repo/extract/toolchain_support_packages/arm/gnu_tools_for_arm_embedded_processors/5.4.1/bin/../lib/gcc/arm-none-eabi/5.4.1/../../../../arm-none-eabi/lib/armv7e-m/fpu\libc.a(lib_a-strtod.o)
 .ARM.attributes
                0x00000c5e       0x34 d:/rt-threadstudio/repo/extract/toolchain_support_packages/arm/gnu_tools_for_arm_embedded_processors/5.4.1/bin/../lib/gcc/arm-none-eabi/5.4.1/../../../../arm-none-eabi/lib/armv7e-m/fpu\libc.a(lib_a-strtok.o)
 .ARM.attributes
                0x00000c92       0x34 d:/rt-threadstudio/repo/extract/toolchain_support_packages/arm/gnu_tools_for_arm_embedded_processors/5.4.1/bin/../lib/gcc/arm-none-eabi/5.4.1/../../../../arm-none-eabi/lib/armv7e-m/fpu\libc.a(lib_a-strtok_r.o)
 .ARM.attributes
                0x00000cc6       0x34 d:/rt-threadstudio/repo/extract/toolchain_support_packages/arm/gnu_tools_for_arm_embedded_processors/5.4.1/bin/../lib/gcc/arm-none-eabi/5.4.1/../../../../arm-none-eabi/lib/armv7e-m/fpu\libc.a(lib_a-svfprintf.o)
 .ARM.attributes
                0x00000cfa       0x34 d:/rt-threadstudio/repo/extract/toolchain_support_packages/arm/gnu_tools_for_arm_embedded_processors/5.4.1/bin/../lib/gcc/arm-none-eabi/5.4.1/../../../../arm-none-eabi/lib/armv7e-m/fpu\libc.a(lib_a-wctomb_r.o)
 .ARM.attributes
                0x00000d2e       0x34 d:/rt-threadstudio/repo/extract/toolchain_support_packages/arm/gnu_tools_for_arm_embedded_processors/5.4.1/bin/../lib/gcc/arm-none-eabi/5.4.1/../../../../arm-none-eabi/lib/armv7e-m/fpu\libc.a(lib_a-__call_atexit.o)
 .ARM.attributes
                0x00000d62       0x34 d:/rt-threadstudio/repo/extract/toolchain_support_packages/arm/gnu_tools_for_arm_embedded_processors/5.4.1/bin/../lib/gcc/arm-none-eabi/5.4.1/../../../../arm-none-eabi/lib/armv7e-m/fpu\libc.a(lib_a-atexit.o)
 .ARM.attributes
                0x00000d96       0x34 d:/rt-threadstudio/repo/extract/toolchain_support_packages/arm/gnu_tools_for_arm_embedded_processors/5.4.1/bin/../lib/gcc/arm-none-eabi/5.4.1/../../../../arm-none-eabi/lib/armv7e-m/fpu\libc.a(lib_a-ctype_.o)
 .ARM.attributes
                0x00000dca       0x34 d:/rt-threadstudio/repo/extract/toolchain_support_packages/arm/gnu_tools_for_arm_embedded_processors/5.4.1/bin/../lib/gcc/arm-none-eabi/5.4.1/../../../../arm-none-eabi/lib/armv7e-m/fpu\libc.a(lib_a-dtoa.o)
 .ARM.attributes
                0x00000dfe       0x34 d:/rt-threadstudio/repo/extract/toolchain_support_packages/arm/gnu_tools_for_arm_embedded_processors/5.4.1/bin/../lib/gcc/arm-none-eabi/5.4.1/../../../../arm-none-eabi/lib/armv7e-m/fpu\libc.a(lib_a-fini.o)
 .ARM.attributes
                0x00000e32       0x34 d:/rt-threadstudio/repo/extract/toolchain_support_packages/arm/gnu_tools_for_arm_embedded_processors/5.4.1/bin/../lib/gcc/arm-none-eabi/5.4.1/../../../../arm-none-eabi/lib/armv7e-m/fpu\libc.a(lib_a-gdtoa-gethex.o)
 .ARM.attributes
                0x00000e66       0x34 d:/rt-threadstudio/repo/extract/toolchain_support_packages/arm/gnu_tools_for_arm_embedded_processors/5.4.1/bin/../lib/gcc/arm-none-eabi/5.4.1/../../../../arm-none-eabi/lib/armv7e-m/fpu\libc.a(lib_a-gdtoa-hexnan.o)
 .ARM.attributes
                0x00000e9a       0x34 d:/rt-threadstudio/repo/extract/toolchain_support_packages/arm/gnu_tools_for_arm_embedded_processors/5.4.1/bin/../lib/gcc/arm-none-eabi/5.4.1/../../../../arm-none-eabi/lib/armv7e-m/fpu\libc.a(lib_a-localeconv.o)
 .ARM.attributes
                0x00000ece       0x20 d:/rt-threadstudio/repo/extract/toolchain_support_packages/arm/gnu_tools_for_arm_embedded_processors/5.4.1/bin/../lib/gcc/arm-none-eabi/5.4.1/../../../../arm-none-eabi/lib/armv7e-m/fpu\libc.a(lib_a-memchr.o)
 .ARM.attributes
                0x00000eee       0x34 d:/rt-threadstudio/repo/extract/toolchain_support_packages/arm/gnu_tools_for_arm_embedded_processors/5.4.1/bin/../lib/gcc/arm-none-eabi/5.4.1/../../../../arm-none-eabi/lib/armv7e-m/fpu\libc.a(lib_a-mprec.o)
 .ARM.attributes
                0x00000f22       0x34 d:/rt-threadstudio/repo/extract/toolchain_support_packages/arm/gnu_tools_for_arm_embedded_processors/5.4.1/bin/../lib/gcc/arm-none-eabi/5.4.1/../../../../arm-none-eabi/lib/armv7e-m/fpu\libc.a(lib_a-svfiprintf.o)
 .ARM.attributes
                0x00000f56       0x34 d:/rt-threadstudio/repo/extract/toolchain_support_packages/arm/gnu_tools_for_arm_embedded_processors/5.4.1/bin/../lib/gcc/arm-none-eabi/5.4.1/../../../../arm-none-eabi/lib/armv7e-m/fpu\libc.a(lib_a-__atexit.o)
 .ARM.attributes
                0x00000f8a       0x34 d:/rt-threadstudio/repo/extract/toolchain_support_packages/arm/gnu_tools_for_arm_embedded_processors/5.4.1/bin/../lib/gcc/arm-none-eabi/5.4.1/../../../../arm-none-eabi/lib/armv7e-m/fpu\libc.a(lib_a-memmove.o)
 .ARM.attributes
                0x00000fbe       0x22 d:/rt-threadstudio/repo/extract/toolchain_support_packages/arm/gnu_tools_for_arm_embedded_processors/5.4.1/bin/../lib/gcc/arm-none-eabi/5.4.1/armv7e-m/fpu\libgcc.a(_arm_unorddf2.o)
 .ARM.attributes
                0x00000fe0       0x22 d:/rt-threadstudio/repo/extract/toolchain_support_packages/arm/gnu_tools_for_arm_embedded_processors/5.4.1/bin/../lib/gcc/arm-none-eabi/5.4.1/armv7e-m/fpu\libgcc.a(_arm_fixdfsi.o)
 .ARM.attributes
                0x00001002       0x22 d:/rt-threadstudio/repo/extract/toolchain_support_packages/arm/gnu_tools_for_arm_embedded_processors/5.4.1/bin/../lib/gcc/arm-none-eabi/5.4.1/armv7e-m/fpu\libgcc.a(_arm_fixunsdfsi.o)
 .ARM.attributes
                0x00001024       0x22 d:/rt-threadstudio/repo/extract/toolchain_support_packages/arm/gnu_tools_for_arm_embedded_processors/5.4.1/bin/../lib/gcc/arm-none-eabi/5.4.1/armv7e-m/fpu\libgcc.a(_aeabi_uldivmod.o)
 .ARM.attributes
                0x00001046       0x34 d:/rt-threadstudio/repo/extract/toolchain_support_packages/arm/gnu_tools_for_arm_embedded_processors/5.4.1/bin/../lib/gcc/arm-none-eabi/5.4.1/armv7e-m/fpu\libgcc.a(_udivmoddi4.o)
 .ARM.attributes
                0x0000107a       0x22 d:/rt-threadstudio/repo/extract/toolchain_support_packages/arm/gnu_tools_for_arm_embedded_processors/5.4.1/bin/../lib/gcc/arm-none-eabi/5.4.1/armv7e-m/fpu\libgcc.a(_dvmd_tls.o)

.debug
 *(.debug)

.line
 *(.line)

.debug_srcinfo
 *(.debug_srcinfo)

.debug_sfnames
 *(.debug_sfnames)

.debug_aranges  0x00000000     0x1420
 *(.debug_aranges)
 .debug_aranges
                0x00000000       0x40 ./rt-thread/src/clock.o
 .debug_aranges
                0x00000040       0x68 ./rt-thread/src/components.o
 .debug_aranges
                0x000000a8       0x80 ./rt-thread/src/device.o
 .debug_aranges
                0x00000128       0x68 ./rt-thread/src/idle.o
 .debug_aranges
                0x00000190      0x198 ./rt-thread/src/ipc.o
 .debug_aranges
                0x00000328       0x30 ./rt-thread/src/irq.o
 .debug_aranges
                0x00000358      0x120 ./rt-thread/src/kservice.o
 .debug_aranges
                0x00000478       0x50 ./rt-thread/src/mem.o
 .debug_aranges
                0x000004c8       0x78 ./rt-thread/src/object.o
 .debug_aranges
                0x00000540       0x88 ./rt-thread/src/scheduler.o
 .debug_aranges
                0x000005c8       0xc0 ./rt-thread/src/thread.o
 .debug_aranges
                0x00000688       0xb8 ./rt-thread/src/timer.o
 .debug_aranges
                0x00000740       0x20 ./rt-thread/libcpu/arm/cortex-m4/context_gcc.o
 .debug_aranges
                0x00000760       0x40 ./rt-thread/libcpu/arm/cortex-m4/cpuport.o
 .debug_aranges
                0x000007a0       0x40 ./rt-thread/components/libc/compilers/gcc/newlib/syscalls.o
 .debug_aranges
                0x000007e0       0x48 ./rt-thread/components/drivers/src/completion.o
 .debug_aranges
                0x00000828       0x68 ./rt-thread/components/drivers/src/dataqueue.o
 .debug_aranges
                0x00000890       0x70 ./rt-thread/components/drivers/spi/spi_core.o
 .debug_aranges
                0x00000900       0x58 ./rt-thread/components/drivers/spi/spi_dev.o
 .debug_aranges
                0x00000958       0xb0 ./rt-thread/components/drivers/serial/serial.o
 .debug_aranges
                0x00000a08       0x70 ./rt-thread/components/drivers/misc/pin.o
 .debug_aranges
                0x00000a78       0x28 ./board/msp/n32_msp.o
 .debug_aranges
                0x00000aa0       0x48 ./board/board.o
 .debug_aranges
                0x00000ae8       0xa8 ./applications/iic.o
 .debug_aranges
                0x00000b90       0x30 ./applications/key.o
 .debug_aranges
                0x00000bc0       0x30 ./applications/led.o
 .debug_aranges
                0x00000bf0       0x20 ./applications/main.o
 .debug_aranges
                0x00000c10       0x58 ./applications/spi_cs1238.o
 .debug_aranges
                0x00000c68       0x40 ./applications/spi_da.o
 .debug_aranges
                0x00000ca8       0x38 ./applications/usart.o
 .debug_aranges
                0x00000ce0       0x50 ./applications/usart_command.o
 .debug_aranges
                0x00000d30       0x20 ./Libraries/rt_drivers/drv_common.o
 .debug_aranges
                0x00000d50       0xa8 ./Libraries/rt_drivers/drv_gpio.o
 .debug_aranges
                0x00000df8       0x48 ./Libraries/rt_drivers/drv_spi.o
 .debug_aranges
                0x00000e40       0x98 ./Libraries/rt_drivers/drv_usart.o
 .debug_aranges
                0x00000ed8       0x40 ./Libraries/N32_Std_Driver/n32g45x_std_periph_driver/src/misc.o
 .debug_aranges
                0x00000f18       0x78 ./Libraries/N32_Std_Driver/n32g45x_std_periph_driver/src/n32g45x_dma.o
 .debug_aranges
                0x00000f90       0x60 ./Libraries/N32_Std_Driver/n32g45x_std_periph_driver/src/n32g45x_exti.o
 .debug_aranges
                0x00000ff0       0xb0 ./Libraries/N32_Std_Driver/n32g45x_std_periph_driver/src/n32g45x_gpio.o
 .debug_aranges
                0x000010a0      0x168 ./Libraries/N32_Std_Driver/n32g45x_std_periph_driver/src/n32g45x_rcc.o
 .debug_aranges
                0x00001208       0xd0 ./Libraries/N32_Std_Driver/n32g45x_std_periph_driver/src/n32g45x_spi.o
 .debug_aranges
                0x000012d8       0xf0 ./Libraries/N32_Std_Driver/n32g45x_std_periph_driver/src/n32g45x_usart.o
 .debug_aranges
                0x000013c8       0x28 ./Libraries/N32_Std_Driver/CMSIS/device/startup/startup_n32g45x_gcc.o
 .debug_aranges
                0x000013f0       0x30 ./Libraries/N32_Std_Driver/CMSIS/device/system_n32g45x.o

.debug_pubnames
 *(.debug_pubnames)

.debug_info     0x00000000    0x18259
 *(.debug_info .gnu.linkonce.wi.*)
 .debug_info    0x00000000      0x450 ./rt-thread/src/clock.o
 .debug_info    0x00000450      0x542 ./rt-thread/src/components.o
 .debug_info    0x00000992      0x8df ./rt-thread/src/device.o
 .debug_info    0x00001271      0x6ae ./rt-thread/src/idle.o
 .debug_info    0x0000191f     0x1c03 ./rt-thread/src/ipc.o
 .debug_info    0x00003522      0x138 ./rt-thread/src/irq.o
 .debug_info    0x0000365a     0x1284 ./rt-thread/src/kservice.o
 .debug_info    0x000048de      0x616 ./rt-thread/src/mem.o
 .debug_info    0x00004ef4      0x753 ./rt-thread/src/object.o
 .debug_info    0x00005647      0x76d ./rt-thread/src/scheduler.o
 .debug_info    0x00005db4      0xb8d ./rt-thread/src/thread.o
 .debug_info    0x00006941      0xae0 ./rt-thread/src/timer.o
 .debug_info    0x00007421       0x69 ./rt-thread/libcpu/arm/cortex-m4/context_gcc.o
 .debug_info    0x0000748a      0x3ba ./rt-thread/libcpu/arm/cortex-m4/cpuport.o
 .debug_info    0x00007844      0xaa2 ./rt-thread/components/libc/compilers/gcc/newlib/syscalls.o
 .debug_info    0x000082e6      0x595 ./rt-thread/components/drivers/src/completion.o
 .debug_info    0x0000887b      0x8df ./rt-thread/components/drivers/src/dataqueue.o
 .debug_info    0x0000915a      0xd9a ./rt-thread/components/drivers/spi/spi_core.o
 .debug_info    0x00009ef4      0xbc2 ./rt-thread/components/drivers/spi/spi_dev.o
 .debug_info    0x0000aab6     0x128d ./rt-thread/components/drivers/serial/serial.o
 .debug_info    0x0000bd43      0xa1d ./rt-thread/components/drivers/misc/pin.o
 .debug_info    0x0000c760      0x50a ./board/msp/n32_msp.o
 .debug_info    0x0000cc6a      0x77b ./board/board.o
 .debug_info    0x0000d3e5      0x884 ./applications/iic.o
 .debug_info    0x0000dc69      0x436 ./applications/key.o
 .debug_info    0x0000e09f      0x483 ./applications/led.o
 .debug_info    0x0000e522      0x418 ./applications/main.o
 .debug_info    0x0000e93a      0x8f7 ./applications/spi_cs1238.o
 .debug_info    0x0000f231      0xbae ./applications/spi_da.o
 .debug_info    0x0000fddf      0x8bb ./applications/usart.o
 .debug_info    0x0001069a      0x753 ./applications/usart_command.o
 .debug_info    0x00010ded      0x1a0 ./Libraries/rt_drivers/drv_common.o
 .debug_info    0x00010f8d     0x10dd ./Libraries/rt_drivers/drv_gpio.o
 .debug_info    0x0001206a     0x1049 ./Libraries/rt_drivers/drv_spi.o
 .debug_info    0x000130b3     0x139a ./Libraries/rt_drivers/drv_usart.o
 .debug_info    0x0001444d      0x5d5 ./Libraries/N32_Std_Driver/n32g45x_std_periph_driver/src/misc.o
 .debug_info    0x00014a22      0x5c2 ./Libraries/N32_Std_Driver/n32g45x_std_periph_driver/src/n32g45x_dma.o
 .debug_info    0x00014fe4      0x3d4 ./Libraries/N32_Std_Driver/n32g45x_std_periph_driver/src/n32g45x_exti.o
 .debug_info    0x000153b8      0x81b ./Libraries/N32_Std_Driver/n32g45x_std_periph_driver/src/n32g45x_gpio.o
 .debug_info    0x00015bd3      0xc23 ./Libraries/N32_Std_Driver/n32g45x_std_periph_driver/src/n32g45x_rcc.o
 .debug_info    0x000167f6      0x9d6 ./Libraries/N32_Std_Driver/n32g45x_std_periph_driver/src/n32g45x_spi.o
 .debug_info    0x000171cc      0xa57 ./Libraries/N32_Std_Driver/n32g45x_std_periph_driver/src/n32g45x_usart.o
 .debug_info    0x00017c23       0x7c ./Libraries/N32_Std_Driver/CMSIS/device/startup/startup_n32g45x_gcc.o
 .debug_info    0x00017c9f      0x5ba ./Libraries/N32_Std_Driver/CMSIS/device/system_n32g45x.o

.debug_abbrev   0x00000000     0x46bb
 *(.debug_abbrev)
 .debug_abbrev  0x00000000      0x143 ./rt-thread/src/clock.o
 .debug_abbrev  0x00000143      0x166 ./rt-thread/src/components.o
 .debug_abbrev  0x000002a9      0x177 ./rt-thread/src/device.o
 .debug_abbrev  0x00000420      0x1ef ./rt-thread/src/idle.o
 .debug_abbrev  0x0000060f      0x1c1 ./rt-thread/src/ipc.o
 .debug_abbrev  0x000007d0       0xa5 ./rt-thread/src/irq.o
 .debug_abbrev  0x00000875      0x2c1 ./rt-thread/src/kservice.o
 .debug_abbrev  0x00000b36      0x1ac ./rt-thread/src/mem.o
 .debug_abbrev  0x00000ce2      0x1a7 ./rt-thread/src/object.o
 .debug_abbrev  0x00000e89      0x20d ./rt-thread/src/scheduler.o
 .debug_abbrev  0x00001096      0x1e3 ./rt-thread/src/thread.o
 .debug_abbrev  0x00001279      0x24a ./rt-thread/src/timer.o
 .debug_abbrev  0x000014c3       0x14 ./rt-thread/libcpu/arm/cortex-m4/context_gcc.o
 .debug_abbrev  0x000014d7      0x197 ./rt-thread/libcpu/arm/cortex-m4/cpuport.o
 .debug_abbrev  0x0000166e      0x1cc ./rt-thread/components/libc/compilers/gcc/newlib/syscalls.o
 .debug_abbrev  0x0000183a      0x182 ./rt-thread/components/drivers/src/completion.o
 .debug_abbrev  0x000019bc      0x201 ./rt-thread/components/drivers/src/dataqueue.o
 .debug_abbrev  0x00001bbd      0x1d1 ./rt-thread/components/drivers/spi/spi_core.o
 .debug_abbrev  0x00001d8e      0x1b1 ./rt-thread/components/drivers/spi/spi_dev.o
 .debug_abbrev  0x00001f3f      0x22e ./rt-thread/components/drivers/serial/serial.o
 .debug_abbrev  0x0000216d      0x18d ./rt-thread/components/drivers/misc/pin.o
 .debug_abbrev  0x000022fa      0x114 ./board/msp/n32_msp.o
 .debug_abbrev  0x0000240e      0x173 ./board/board.o
 .debug_abbrev  0x00002581      0x211 ./applications/iic.o
 .debug_abbrev  0x00002792      0x12e ./applications/key.o
 .debug_abbrev  0x000028c0      0x15e ./applications/led.o
 .debug_abbrev  0x00002a1e       0xe0 ./applications/main.o
 .debug_abbrev  0x00002afe      0x1ea ./applications/spi_cs1238.o
 .debug_abbrev  0x00002ce8      0x1ea ./applications/spi_da.o
 .debug_abbrev  0x00002ed2      0x1bf ./applications/usart.o
 .debug_abbrev  0x00003091      0x17d ./applications/usart_command.o
 .debug_abbrev  0x0000320e       0xc8 ./Libraries/rt_drivers/drv_common.o
 .debug_abbrev  0x000032d6      0x282 ./Libraries/rt_drivers/drv_gpio.o
 .debug_abbrev  0x00003558      0x265 ./Libraries/rt_drivers/drv_spi.o
 .debug_abbrev  0x000037bd      0x2be ./Libraries/rt_drivers/drv_usart.o
 .debug_abbrev  0x00003a7b      0x13c ./Libraries/N32_Std_Driver/n32g45x_std_periph_driver/src/misc.o
 .debug_abbrev  0x00003bb7      0x16d ./Libraries/N32_Std_Driver/n32g45x_std_periph_driver/src/n32g45x_dma.o
 .debug_abbrev  0x00003d24      0x164 ./Libraries/N32_Std_Driver/n32g45x_std_periph_driver/src/n32g45x_exti.o
 .debug_abbrev  0x00003e88      0x1d2 ./Libraries/N32_Std_Driver/n32g45x_std_periph_driver/src/n32g45x_gpio.o
 .debug_abbrev  0x0000405a      0x1f8 ./Libraries/N32_Std_Driver/n32g45x_std_periph_driver/src/n32g45x_rcc.o
 .debug_abbrev  0x00004252      0x1a2 ./Libraries/N32_Std_Driver/n32g45x_std_periph_driver/src/n32g45x_spi.o
 .debug_abbrev  0x000043f4      0x16a ./Libraries/N32_Std_Driver/n32g45x_std_periph_driver/src/n32g45x_usart.o
 .debug_abbrev  0x0000455e       0x12 ./Libraries/N32_Std_Driver/CMSIS/device/startup/startup_n32g45x_gcc.o
 .debug_abbrev  0x00004570      0x14b ./Libraries/N32_Std_Driver/CMSIS/device/system_n32g45x.o

.debug_line     0x00000000     0x8724
 *(.debug_line)
 .debug_line    0x00000000       0xca ./rt-thread/src/clock.o
 .debug_line    0x000000ca      0x156 ./rt-thread/src/components.o
 .debug_line    0x00000220      0x257 ./rt-thread/src/device.o
 .debug_line    0x00000477      0x1d9 ./rt-thread/src/idle.o
 .debug_line    0x00000650      0xb32 ./rt-thread/src/ipc.o
 .debug_line    0x00001182       0x9c ./rt-thread/src/irq.o
 .debug_line    0x0000121e      0x668 ./rt-thread/src/kservice.o
 .debug_line    0x00001886      0x27c ./rt-thread/src/mem.o
 .debug_line    0x00001b02      0x284 ./rt-thread/src/object.o
 .debug_line    0x00001d86      0x224 ./rt-thread/src/scheduler.o
 .debug_line    0x00001faa      0x391 ./rt-thread/src/thread.o
 .debug_line    0x0000233b      0x37c ./rt-thread/src/timer.o
 .debug_line    0x000026b7       0xd5 ./rt-thread/libcpu/arm/cortex-m4/context_gcc.o
 .debug_line    0x0000278c      0x111 ./rt-thread/libcpu/arm/cortex-m4/cpuport.o
 .debug_line    0x0000289d      0x1fd ./rt-thread/components/libc/compilers/gcc/newlib/syscalls.o
 .debug_line    0x00002a9a      0x192 ./rt-thread/components/drivers/src/completion.o
 .debug_line    0x00002c2c      0x2f0 ./rt-thread/components/drivers/src/dataqueue.o
 .debug_line    0x00002f1c      0x2b1 ./rt-thread/components/drivers/spi/spi_core.o
 .debug_line    0x000031cd      0x1ae ./rt-thread/components/drivers/spi/spi_dev.o
 .debug_line    0x0000337b      0x57e ./rt-thread/components/drivers/serial/serial.o
 .debug_line    0x000038f9      0x20e ./rt-thread/components/drivers/misc/pin.o
 .debug_line    0x00003b07      0x280 ./board/msp/n32_msp.o
 .debug_line    0x00003d87      0x28e ./board/board.o
 .debug_line    0x00004015      0x46f ./applications/iic.o
 .debug_line    0x00004484      0x1d9 ./applications/key.o
 .debug_line    0x0000465d      0x25b ./applications/led.o
 .debug_line    0x000048b8       0x83 ./applications/main.o
 .debug_line    0x0000493b      0x365 ./applications/spi_cs1238.o
 .debug_line    0x00004ca0      0x30e ./applications/spi_da.o
 .debug_line    0x00004fae      0x262 ./applications/usart.o
 .debug_line    0x00005210      0x356 ./applications/usart_command.o
 .debug_line    0x00005566      0x1f6 ./Libraries/rt_drivers/drv_common.o
 .debug_line    0x0000575c      0x4ec ./Libraries/rt_drivers/drv_gpio.o
 .debug_line    0x00005c48      0x44a ./Libraries/rt_drivers/drv_spi.o
 .debug_line    0x00006092      0x4ed ./Libraries/rt_drivers/drv_usart.o
 .debug_line    0x0000657f      0x2c6 ./Libraries/N32_Std_Driver/n32g45x_std_periph_driver/src/misc.o
 .debug_line    0x00006845      0x3e1 ./Libraries/N32_Std_Driver/n32g45x_std_periph_driver/src/n32g45x_dma.o
 .debug_line    0x00006c26      0x33a ./Libraries/N32_Std_Driver/n32g45x_std_periph_driver/src/n32g45x_exti.o
 .debug_line    0x00006f60      0x4bc ./Libraries/N32_Std_Driver/n32g45x_std_periph_driver/src/n32g45x_gpio.o
 .debug_line    0x0000741c      0x62b ./Libraries/N32_Std_Driver/n32g45x_std_periph_driver/src/n32g45x_rcc.o
 .debug_line    0x00007a47      0x4ab ./Libraries/N32_Std_Driver/n32g45x_std_periph_driver/src/n32g45x_spi.o
 .debug_line    0x00007ef2      0x51d ./Libraries/N32_Std_Driver/n32g45x_std_periph_driver/src/n32g45x_usart.o
 .debug_line    0x0000840f       0xa1 ./Libraries/N32_Std_Driver/CMSIS/device/startup/startup_n32g45x_gcc.o
 .debug_line    0x000084b0      0x274 ./Libraries/N32_Std_Driver/CMSIS/device/system_n32g45x.o

.debug_frame    0x00000000     0x56c4
 *(.debug_frame)
 .debug_frame   0x00000000       0xbc ./rt-thread/src/clock.o
 .debug_frame   0x000000bc      0x158 ./rt-thread/src/components.o
 .debug_frame   0x00000214      0x1ec ./rt-thread/src/device.o
 .debug_frame   0x00000400      0x17c ./rt-thread/src/idle.o
 .debug_frame   0x0000057c      0x718 ./rt-thread/src/ipc.o
 .debug_frame   0x00000c94       0x7c ./rt-thread/src/irq.o
 .debug_frame   0x00000d10      0x538 ./rt-thread/src/kservice.o
 .debug_frame   0x00001248      0x114 ./rt-thread/src/mem.o
 .debug_frame   0x0000135c      0x1dc ./rt-thread/src/object.o
 .debug_frame   0x00001538      0x218 ./rt-thread/src/scheduler.o
 .debug_frame   0x00001750      0x32c ./rt-thread/src/thread.o
 .debug_frame   0x00001a7c      0x304 ./rt-thread/src/timer.o
 .debug_frame   0x00001d80       0xc0 ./rt-thread/libcpu/arm/cortex-m4/cpuport.o
 .debug_frame   0x00001e40       0xc0 ./rt-thread/components/libc/compilers/gcc/newlib/syscalls.o
 .debug_frame   0x00001f00       0xf4 ./rt-thread/components/drivers/src/completion.o
 .debug_frame   0x00001ff4      0x188 ./rt-thread/components/drivers/src/dataqueue.o
 .debug_frame   0x0000217c      0x19c ./rt-thread/components/drivers/spi/spi_core.o
 .debug_frame   0x00002318      0x138 ./rt-thread/components/drivers/spi/spi_dev.o
 .debug_frame   0x00002450      0x2c4 ./rt-thread/components/drivers/serial/serial.o
 .debug_frame   0x00002714      0x1a0 ./rt-thread/components/drivers/misc/pin.o
 .debug_frame   0x000028b4       0x58 ./board/msp/n32_msp.o
 .debug_frame   0x0000290c       0xc8 ./board/board.o
 .debug_frame   0x000029d4      0x264 ./applications/iic.o
 .debug_frame   0x00002c38       0x70 ./applications/key.o
 .debug_frame   0x00002ca8       0x70 ./applications/led.o
 .debug_frame   0x00002d18       0x2c ./applications/main.o
 .debug_frame   0x00002d44      0x120 ./applications/spi_cs1238.o
 .debug_frame   0x00002e64       0xc4 ./applications/spi_da.o
 .debug_frame   0x00002f28       0x94 ./applications/usart.o
 .debug_frame   0x00002fbc      0x124 ./applications/usart_command.o
 .debug_frame   0x000030e0       0x38 ./Libraries/rt_drivers/drv_common.o
 .debug_frame   0x00003118      0x268 ./Libraries/rt_drivers/drv_gpio.o
 .debug_frame   0x00003380       0xe4 ./Libraries/rt_drivers/drv_spi.o
 .debug_frame   0x00003464      0x23c ./Libraries/rt_drivers/drv_usart.o
 .debug_frame   0x000036a0       0xd8 ./Libraries/N32_Std_Driver/n32g45x_std_periph_driver/src/misc.o
 .debug_frame   0x00003778      0x1f0 ./Libraries/N32_Std_Driver/n32g45x_std_periph_driver/src/n32g45x_dma.o
 .debug_frame   0x00003968      0x170 ./Libraries/N32_Std_Driver/n32g45x_std_periph_driver/src/n32g45x_exti.o
 .debug_frame   0x00003ad8      0x2f8 ./Libraries/N32_Std_Driver/n32g45x_std_periph_driver/src/n32g45x_gpio.o
 .debug_frame   0x00003dd0      0x684 ./Libraries/N32_Std_Driver/n32g45x_std_periph_driver/src/n32g45x_rcc.o
 .debug_frame   0x00004454      0x3a0 ./Libraries/N32_Std_Driver/n32g45x_std_periph_driver/src/n32g45x_spi.o
 .debug_frame   0x000047f4      0x440 ./Libraries/N32_Std_Driver/n32g45x_std_periph_driver/src/n32g45x_usart.o
 .debug_frame   0x00004c34       0x7c ./Libraries/N32_Std_Driver/CMSIS/device/system_n32g45x.o
 .debug_frame   0x00004cb0       0x20 d:/rt-threadstudio/repo/extract/toolchain_support_packages/arm/gnu_tools_for_arm_embedded_processors/5.4.1/bin/../lib/gcc/arm-none-eabi/5.4.1/../../../../arm-none-eabi/lib/armv7e-m/fpu\libc.a(lib_a-atof.o)
 .debug_frame   0x00004cd0       0x84 d:/rt-threadstudio/repo/extract/toolchain_support_packages/arm/gnu_tools_for_arm_embedded_processors/5.4.1/bin/../lib/gcc/arm-none-eabi/5.4.1/../../../../arm-none-eabi/lib/armv7e-m/fpu\libc.a(lib_a-locale.o)
 .debug_frame   0x00004d54       0x4c d:/rt-threadstudio/repo/extract/toolchain_support_packages/arm/gnu_tools_for_arm_embedded_processors/5.4.1/bin/../lib/gcc/arm-none-eabi/5.4.1/../../../../arm-none-eabi/lib/armv7e-m/fpu\libc.a(lib_a-mbtowc_r.o)
 .debug_frame   0x00004da0       0xd0 d:/rt-threadstudio/repo/extract/toolchain_support_packages/arm/gnu_tools_for_arm_embedded_processors/5.4.1/bin/../lib/gcc/arm-none-eabi/5.4.1/../../../../arm-none-eabi/lib/armv7e-m/fpu\libc.a(lib_a-snprintf.o)
 .debug_frame   0x00004e70       0x20 d:/rt-threadstudio/repo/extract/toolchain_support_packages/arm/gnu_tools_for_arm_embedded_processors/5.4.1/bin/../lib/gcc/arm-none-eabi/5.4.1/../../../../arm-none-eabi/lib/armv7e-m/fpu\libc.a(lib_a-strcpy.o)
 .debug_frame   0x00004e90       0x54 d:/rt-threadstudio/repo/extract/toolchain_support_packages/arm/gnu_tools_for_arm_embedded_processors/5.4.1/bin/../lib/gcc/arm-none-eabi/5.4.1/../../../../arm-none-eabi/lib/armv7e-m/fpu\libc.a(lib_a-strncmp.o)
 .debug_frame   0x00004ee4       0xf8 d:/rt-threadstudio/repo/extract/toolchain_support_packages/arm/gnu_tools_for_arm_embedded_processors/5.4.1/bin/../lib/gcc/arm-none-eabi/5.4.1/../../../../arm-none-eabi/lib/armv7e-m/fpu\libc.a(lib_a-strtod.o)
 .debug_frame   0x00004fdc       0x20 d:/rt-threadstudio/repo/extract/toolchain_support_packages/arm/gnu_tools_for_arm_embedded_processors/5.4.1/bin/../lib/gcc/arm-none-eabi/5.4.1/../../../../arm-none-eabi/lib/armv7e-m/fpu\libc.a(lib_a-strtok.o)
 .debug_frame   0x00004ffc       0x48 d:/rt-threadstudio/repo/extract/toolchain_support_packages/arm/gnu_tools_for_arm_embedded_processors/5.4.1/bin/../lib/gcc/arm-none-eabi/5.4.1/../../../../arm-none-eabi/lib/armv7e-m/fpu\libc.a(lib_a-strtok_r.o)
 .debug_frame   0x00005044       0x44 d:/rt-threadstudio/repo/extract/toolchain_support_packages/arm/gnu_tools_for_arm_embedded_processors/5.4.1/bin/../lib/gcc/arm-none-eabi/5.4.1/../../../../arm-none-eabi/lib/armv7e-m/fpu\libc.a(lib_a-svfprintf.o)
 .debug_frame   0x00005088       0x3c d:/rt-threadstudio/repo/extract/toolchain_support_packages/arm/gnu_tools_for_arm_embedded_processors/5.4.1/bin/../lib/gcc/arm-none-eabi/5.4.1/../../../../arm-none-eabi/lib/armv7e-m/fpu\libc.a(lib_a-wctomb_r.o)
 .debug_frame   0x000050c4       0x50 d:/rt-threadstudio/repo/extract/toolchain_support_packages/arm/gnu_tools_for_arm_embedded_processors/5.4.1/bin/../lib/gcc/arm-none-eabi/5.4.1/../../../../arm-none-eabi/lib/armv7e-m/fpu\libc.a(lib_a-__call_atexit.o)
 .debug_frame   0x00005114       0x20 d:/rt-threadstudio/repo/extract/toolchain_support_packages/arm/gnu_tools_for_arm_embedded_processors/5.4.1/bin/../lib/gcc/arm-none-eabi/5.4.1/../../../../arm-none-eabi/lib/armv7e-m/fpu\libc.a(lib_a-atexit.o)
 .debug_frame   0x00005134       0x88 d:/rt-threadstudio/repo/extract/toolchain_support_packages/arm/gnu_tools_for_arm_embedded_processors/5.4.1/bin/../lib/gcc/arm-none-eabi/5.4.1/../../../../arm-none-eabi/lib/armv7e-m/fpu\libc.a(lib_a-dtoa.o)
 .debug_frame   0x000051bc       0x34 d:/rt-threadstudio/repo/extract/toolchain_support_packages/arm/gnu_tools_for_arm_embedded_processors/5.4.1/bin/../lib/gcc/arm-none-eabi/5.4.1/../../../../arm-none-eabi/lib/armv7e-m/fpu\libc.a(lib_a-fini.o)
 .debug_frame   0x000051f0       0x84 d:/rt-threadstudio/repo/extract/toolchain_support_packages/arm/gnu_tools_for_arm_embedded_processors/5.4.1/bin/../lib/gcc/arm-none-eabi/5.4.1/../../../../arm-none-eabi/lib/armv7e-m/fpu\libc.a(lib_a-gdtoa-gethex.o)
 .debug_frame   0x00005274       0x70 d:/rt-threadstudio/repo/extract/toolchain_support_packages/arm/gnu_tools_for_arm_embedded_processors/5.4.1/bin/../lib/gcc/arm-none-eabi/5.4.1/../../../../arm-none-eabi/lib/armv7e-m/fpu\libc.a(lib_a-gdtoa-hexnan.o)
 .debug_frame   0x000052e4       0x40 d:/rt-threadstudio/repo/extract/toolchain_support_packages/arm/gnu_tools_for_arm_embedded_processors/5.4.1/bin/../lib/gcc/arm-none-eabi/5.4.1/../../../../arm-none-eabi/lib/armv7e-m/fpu\libc.a(lib_a-localeconv.o)
 .debug_frame   0x00005324      0x264 d:/rt-threadstudio/repo/extract/toolchain_support_packages/arm/gnu_tools_for_arm_embedded_processors/5.4.1/bin/../lib/gcc/arm-none-eabi/5.4.1/../../../../arm-none-eabi/lib/armv7e-m/fpu\libc.a(lib_a-mprec.o)
 .debug_frame   0x00005588       0x78 d:/rt-threadstudio/repo/extract/toolchain_support_packages/arm/gnu_tools_for_arm_embedded_processors/5.4.1/bin/../lib/gcc/arm-none-eabi/5.4.1/../../../../arm-none-eabi/lib/armv7e-m/fpu\libc.a(lib_a-svfiprintf.o)
 .debug_frame   0x00005600       0x34 d:/rt-threadstudio/repo/extract/toolchain_support_packages/arm/gnu_tools_for_arm_embedded_processors/5.4.1/bin/../lib/gcc/arm-none-eabi/5.4.1/../../../../arm-none-eabi/lib/armv7e-m/fpu\libc.a(lib_a-__atexit.o)
 .debug_frame   0x00005634       0x30 d:/rt-threadstudio/repo/extract/toolchain_support_packages/arm/gnu_tools_for_arm_embedded_processors/5.4.1/bin/../lib/gcc/arm-none-eabi/5.4.1/../../../../arm-none-eabi/lib/armv7e-m/fpu\libc.a(lib_a-memmove.o)
 .debug_frame   0x00005664       0x2c d:/rt-threadstudio/repo/extract/toolchain_support_packages/arm/gnu_tools_for_arm_embedded_processors/5.4.1/bin/../lib/gcc/arm-none-eabi/5.4.1/armv7e-m/fpu\libgcc.a(_aeabi_uldivmod.o)
 .debug_frame   0x00005690       0x34 d:/rt-threadstudio/repo/extract/toolchain_support_packages/arm/gnu_tools_for_arm_embedded_processors/5.4.1/bin/../lib/gcc/arm-none-eabi/5.4.1/armv7e-m/fpu\libgcc.a(_udivmoddi4.o)

.debug_str      0x00000000     0x51d3
 *(.debug_str)
 .debug_str     0x00000000      0x2c6 ./rt-thread/src/clock.o
                                0x366 (size before relaxing)
 .debug_str     0x000002c6      0x108 ./rt-thread/src/components.o
                                0x406 (size before relaxing)
 .debug_str     0x000003ce      0x522 ./rt-thread/src/device.o
                                0x76d (size before relaxing)
 .debug_str     0x000008f0      0x14c ./rt-thread/src/idle.o
                                0x454 (size before relaxing)
 .debug_str     0x00000a3c      0x454 ./rt-thread/src/ipc.o
                                0x8f3 (size before relaxing)
 .debug_str     0x00000e90       0x65 ./rt-thread/src/irq.o
                                0x1e7 (size before relaxing)
 .debug_str     0x00000ef5      0x31b ./rt-thread/src/kservice.o
                                0x930 (size before relaxing)
 .debug_str     0x00001210      0x118 ./rt-thread/src/mem.o
                                0x363 (size before relaxing)
 .debug_str     0x00001328      0x219 ./rt-thread/src/object.o
                                0x5ce (size before relaxing)
 .debug_str     0x00001541      0x1d3 ./rt-thread/src/scheduler.o
                                0x56a (size before relaxing)
 .debug_str     0x00001714      0x17e ./rt-thread/src/thread.o
                                0x63b (size before relaxing)
 .debug_str     0x00001892      0x1af ./rt-thread/src/timer.o
                                0x68b (size before relaxing)
 .debug_str     0x00001a41      0x155 ./rt-thread/libcpu/arm/cortex-m4/cpuport.o
                                0x326 (size before relaxing)
 .debug_str     0x00001b96      0x408 ./rt-thread/components/libc/compilers/gcc/newlib/syscalls.o
                                0x5c8 (size before relaxing)
 .debug_str     0x00001f9e       0x87 ./rt-thread/components/drivers/src/completion.o
                                0x3e6 (size before relaxing)
 .debug_str     0x00002025      0x11e ./rt-thread/components/drivers/src/dataqueue.o
                                0x4c1 (size before relaxing)
 .debug_str     0x00002143      0x1cd ./rt-thread/components/drivers/spi/spi_core.o
                                0x829 (size before relaxing)
 .debug_str     0x00002310       0xde ./rt-thread/components/drivers/spi/spi_dev.o
                                0x7ae (size before relaxing)
 .debug_str     0x000023ee      0x2d3 ./rt-thread/components/drivers/serial/serial.o
                                0x907 (size before relaxing)
 .debug_str     0x000026c1      0x106 ./rt-thread/components/drivers/misc/pin.o
                                0x66c (size before relaxing)
 .debug_str     0x000027c7      0x28d ./board/msp/n32_msp.o
                                0x41a (size before relaxing)
 .debug_str     0x00002a54      0x64e ./board/board.o
                                0x83b (size before relaxing)
 .debug_str     0x000030a2      0x19a ./applications/iic.o
                                0x4f1 (size before relaxing)
 .debug_str     0x0000323c       0x55 ./applications/key.o
                                0x371 (size before relaxing)
 .debug_str     0x00003291       0x50 ./applications/led.o
                                0x3b4 (size before relaxing)
 .debug_str     0x000032e1       0x17 ./applications/main.o
                                0x4e8 (size before relaxing)
 .debug_str     0x000032f8      0x172 ./applications/spi_cs1238.o
                                0x7ca (size before relaxing)
 .debug_str     0x0000346a       0xd5 ./applications/spi_da.o
                                0x8f1 (size before relaxing)
 .debug_str     0x0000353f       0x83 ./applications/usart.o
                                0x74f (size before relaxing)
 .debug_str     0x000035c2       0xb9 ./applications/usart_command.o
                                0x63f (size before relaxing)
 .debug_str     0x0000367b       0x4a ./Libraries/rt_drivers/drv_common.o
                                0x225 (size before relaxing)
 .debug_str     0x000036c5      0x34f ./Libraries/rt_drivers/drv_gpio.o
                                0xfb7 (size before relaxing)
 .debug_str     0x00003a14      0x174 ./Libraries/rt_drivers/drv_spi.o
                                0xb05 (size before relaxing)
 .debug_str     0x00003b88      0x33c ./Libraries/rt_drivers/drv_usart.o
                               0x1021 (size before relaxing)
 .debug_str     0x00003ec4      0x114 ./Libraries/N32_Std_Driver/n32g45x_std_periph_driver/src/misc.o
                                0x422 (size before relaxing)
 .debug_str     0x00003fd8      0x179 ./Libraries/N32_Std_Driver/n32g45x_std_periph_driver/src/n32g45x_dma.o
                                0x436 (size before relaxing)
 .debug_str     0x00004151      0x13c ./Libraries/N32_Std_Driver/n32g45x_std_periph_driver/src/n32g45x_exti.o
                                0x3df (size before relaxing)
 .debug_str     0x0000428d      0x27d ./Libraries/N32_Std_Driver/n32g45x_std_periph_driver/src/n32g45x_gpio.o
                                0x5c5 (size before relaxing)
 .debug_str     0x0000450a      0x625 ./Libraries/N32_Std_Driver/n32g45x_std_periph_driver/src/n32g45x_rcc.o
                                0x855 (size before relaxing)
 .debug_str     0x00004b2f      0x293 ./Libraries/N32_Std_Driver/n32g45x_std_periph_driver/src/n32g45x_spi.o
                                0x60e (size before relaxing)
 .debug_str     0x00004dc2      0x36f ./Libraries/N32_Std_Driver/n32g45x_std_periph_driver/src/n32g45x_usart.o
                                0x6a6 (size before relaxing)
 .debug_str     0x00005131       0xa2 ./Libraries/N32_Std_Driver/CMSIS/device/system_n32g45x.o
                                0x38c (size before relaxing)

.debug_loc      0x00000000     0xa0c2
 *(.debug_loc)
 .debug_loc     0x00000000      0x16c ./rt-thread/src/clock.o
 .debug_loc     0x0000016c      0x2a8 ./rt-thread/src/components.o
 .debug_loc     0x00000414      0x410 ./rt-thread/src/device.o
 .debug_loc     0x00000824      0x314 ./rt-thread/src/idle.o
 .debug_loc     0x00000b38      0xf24 ./rt-thread/src/ipc.o
 .debug_loc     0x00001a5c       0xf0 ./rt-thread/src/irq.o
 .debug_loc     0x00001b4c      0xb5c ./rt-thread/src/kservice.o
 .debug_loc     0x000026a8      0x23c ./rt-thread/src/mem.o
 .debug_loc     0x000028e4      0x3e4 ./rt-thread/src/object.o
 .debug_loc     0x00002cc8      0x418 ./rt-thread/src/scheduler.o
 .debug_loc     0x000030e0      0x69c ./rt-thread/src/thread.o
 .debug_loc     0x0000377c      0x634 ./rt-thread/src/timer.o
 .debug_loc     0x00003db0      0x178 ./rt-thread/libcpu/arm/cortex-m4/cpuport.o
 .debug_loc     0x00003f28      0x184 ./rt-thread/components/libc/compilers/gcc/newlib/syscalls.o
 .debug_loc     0x000040ac      0x204 ./rt-thread/components/drivers/src/completion.o
 .debug_loc     0x000042b0      0x344 ./rt-thread/components/drivers/src/dataqueue.o
 .debug_loc     0x000045f4      0x370 ./rt-thread/components/drivers/spi/spi_core.o
 .debug_loc     0x00004964      0x298 ./rt-thread/components/drivers/spi/spi_dev.o
 .debug_loc     0x00004bfc      0x5ce ./rt-thread/components/drivers/serial/serial.o
 .debug_loc     0x000051ca      0x370 ./rt-thread/components/drivers/misc/pin.o
 .debug_loc     0x0000553a       0xa0 ./board/msp/n32_msp.o
 .debug_loc     0x000055da      0x15c ./board/board.o
 .debug_loc     0x00005736      0x498 ./applications/iic.o
 .debug_loc     0x00005bce       0xb4 ./applications/key.o
 .debug_loc     0x00005c82       0xb4 ./applications/led.o
 .debug_loc     0x00005d36       0x2c ./applications/main.o
 .debug_loc     0x00005d62      0x1fc ./applications/spi_cs1238.o
 .debug_loc     0x00005f5e      0x178 ./applications/spi_da.o
 .debug_loc     0x000060d6      0x104 ./applications/usart.o
 .debug_loc     0x000061da      0x23e ./applications/usart_command.o
 .debug_loc     0x00006418       0x5c ./Libraries/rt_drivers/drv_common.o
 .debug_loc     0x00006474      0x4bc ./Libraries/rt_drivers/drv_gpio.o
 .debug_loc     0x00006930      0x1bc ./Libraries/rt_drivers/drv_spi.o
 .debug_loc     0x00006aec      0x48a ./Libraries/rt_drivers/drv_usart.o
 .debug_loc     0x00006f76      0x1cc ./Libraries/N32_Std_Driver/n32g45x_std_periph_driver/src/misc.o
 .debug_loc     0x00007142      0x450 ./Libraries/N32_Std_Driver/n32g45x_std_periph_driver/src/n32g45x_dma.o
 .debug_loc     0x00007592      0x324 ./Libraries/N32_Std_Driver/n32g45x_std_periph_driver/src/n32g45x_exti.o
 .debug_loc     0x000078b6      0x698 ./Libraries/N32_Std_Driver/n32g45x_std_periph_driver/src/n32g45x_gpio.o
 .debug_loc     0x00007f4e      0xec4 ./Libraries/N32_Std_Driver/n32g45x_std_periph_driver/src/n32g45x_rcc.o
 .debug_loc     0x00008e12      0x82e ./Libraries/N32_Std_Driver/n32g45x_std_periph_driver/src/n32g45x_spi.o
 .debug_loc     0x00009640      0x99e ./Libraries/N32_Std_Driver/n32g45x_std_periph_driver/src/n32g45x_usart.o
 .debug_loc     0x00009fde       0xe4 ./Libraries/N32_Std_Driver/CMSIS/device/system_n32g45x.o

.debug_macinfo
 *(.debug_macinfo)

.debug_weaknames
 *(.debug_weaknames)

.debug_funcnames
 *(.debug_funcnames)

.debug_typenames
 *(.debug_typenames)

.debug_varnames
 *(.debug_varnames)
OUTPUT(rtthread.elf elf32-littlearm)

.debug_ranges   0x00000000     0x1200
 .debug_ranges  0x00000000       0x30 ./rt-thread/src/clock.o
 .debug_ranges  0x00000030       0x58 ./rt-thread/src/components.o
 .debug_ranges  0x00000088       0x70 ./rt-thread/src/device.o
 .debug_ranges  0x000000f8       0x58 ./rt-thread/src/idle.o
 .debug_ranges  0x00000150      0x188 ./rt-thread/src/ipc.o
 .debug_ranges  0x000002d8       0x20 ./rt-thread/src/irq.o
 .debug_ranges  0x000002f8      0x110 ./rt-thread/src/kservice.o
 .debug_ranges  0x00000408       0x40 ./rt-thread/src/mem.o
 .debug_ranges  0x00000448       0x68 ./rt-thread/src/object.o
 .debug_ranges  0x000004b0       0xa8 ./rt-thread/src/scheduler.o
 .debug_ranges  0x00000558       0xb0 ./rt-thread/src/thread.o
 .debug_ranges  0x00000608       0xc0 ./rt-thread/src/timer.o
 .debug_ranges  0x000006c8       0x48 ./rt-thread/libcpu/arm/cortex-m4/cpuport.o
 .debug_ranges  0x00000710       0x30 ./rt-thread/components/libc/compilers/gcc/newlib/syscalls.o
 .debug_ranges  0x00000740       0x38 ./rt-thread/components/drivers/src/completion.o
 .debug_ranges  0x00000778       0x58 ./rt-thread/components/drivers/src/dataqueue.o
 .debug_ranges  0x000007d0       0x60 ./rt-thread/components/drivers/spi/spi_core.o
 .debug_ranges  0x00000830       0x48 ./rt-thread/components/drivers/spi/spi_dev.o
 .debug_ranges  0x00000878       0xe8 ./rt-thread/components/drivers/serial/serial.o
 .debug_ranges  0x00000960       0x60 ./rt-thread/components/drivers/misc/pin.o
 .debug_ranges  0x000009c0       0x18 ./board/msp/n32_msp.o
 .debug_ranges  0x000009d8       0x38 ./board/board.o
 .debug_ranges  0x00000a10       0x98 ./applications/iic.o
 .debug_ranges  0x00000aa8       0x20 ./applications/key.o
 .debug_ranges  0x00000ac8       0x20 ./applications/led.o
 .debug_ranges  0x00000ae8       0x10 ./applications/main.o
 .debug_ranges  0x00000af8       0x48 ./applications/spi_cs1238.o
 .debug_ranges  0x00000b40       0x30 ./applications/spi_da.o
 .debug_ranges  0x00000b70       0x28 ./applications/usart.o
 .debug_ranges  0x00000b98       0x40 ./applications/usart_command.o
 .debug_ranges  0x00000bd8       0x10 ./Libraries/rt_drivers/drv_common.o
 .debug_ranges  0x00000be8       0x98 ./Libraries/rt_drivers/drv_gpio.o
 .debug_ranges  0x00000c80       0x38 ./Libraries/rt_drivers/drv_spi.o
 .debug_ranges  0x00000cb8       0x88 ./Libraries/rt_drivers/drv_usart.o
 .debug_ranges  0x00000d40       0x30 ./Libraries/N32_Std_Driver/n32g45x_std_periph_driver/src/misc.o
 .debug_ranges  0x00000d70       0x68 ./Libraries/N32_Std_Driver/n32g45x_std_periph_driver/src/n32g45x_dma.o
 .debug_ranges  0x00000dd8       0x50 ./Libraries/N32_Std_Driver/n32g45x_std_periph_driver/src/n32g45x_exti.o
 .debug_ranges  0x00000e28       0xa0 ./Libraries/N32_Std_Driver/n32g45x_std_periph_driver/src/n32g45x_gpio.o
 .debug_ranges  0x00000ec8      0x158 ./Libraries/N32_Std_Driver/n32g45x_std_periph_driver/src/n32g45x_rcc.o
 .debug_ranges  0x00001020       0xc0 ./Libraries/N32_Std_Driver/n32g45x_std_periph_driver/src/n32g45x_spi.o
 .debug_ranges  0x000010e0       0xe0 ./Libraries/N32_Std_Driver/n32g45x_std_periph_driver/src/n32g45x_usart.o
 .debug_ranges  0x000011c0       0x20 ./Libraries/N32_Std_Driver/CMSIS/device/startup/startup_n32g45x_gcc.o
 .debug_ranges  0x000011e0       0x20 ./Libraries/N32_Std_Driver/CMSIS/device/system_n32g45x.o

Cross Reference Table

Symbol                                            File
ADC1_2_IRQHandler                                 ./Libraries/N32_Std_Driver/CMSIS/device/startup/startup_n32g45x_gcc.o
ADC3_4_IRQHandler                                 ./Libraries/N32_Std_Driver/CMSIS/device/startup/startup_n32g45x_gcc.o
ADC_ClearFlag                                     ./Libraries/N32_Std_Driver/n32g45x_std_periph_driver/src/n32g45x_adc.o
ADC_ClearIntPendingBit                            ./Libraries/N32_Std_Driver/n32g45x_std_periph_driver/src/n32g45x_adc.o
ADC_ConfigAnalogWatchdogSingleChannel             ./Libraries/N32_Std_Driver/n32g45x_std_periph_driver/src/n32g45x_adc.o
ADC_ConfigAnalogWatchdogThresholds                ./Libraries/N32_Std_Driver/n32g45x_std_periph_driver/src/n32g45x_adc.o
ADC_ConfigAnalogWatchdogWorkChannelType           ./Libraries/N32_Std_Driver/n32g45x_std_periph_driver/src/n32g45x_adc.o
ADC_ConfigClk                                     ./Libraries/N32_Std_Driver/n32g45x_std_periph_driver/src/n32g45x_adc.o
ADC_ConfigDiscModeChannelCount                    ./Libraries/N32_Std_Driver/n32g45x_std_periph_driver/src/n32g45x_adc.o
ADC_ConfigExternalTrigInjectedConv                ./Libraries/N32_Std_Driver/n32g45x_std_periph_driver/src/n32g45x_adc.o
ADC_ConfigInjectedChannel                         ./Libraries/N32_Std_Driver/n32g45x_std_periph_driver/src/n32g45x_adc.o
ADC_ConfigInjectedSequencerLength                 ./Libraries/N32_Std_Driver/n32g45x_std_periph_driver/src/n32g45x_adc.o
ADC_ConfigInt                                     ./Libraries/N32_Std_Driver/n32g45x_std_periph_driver/src/n32g45x_adc.o
ADC_ConfigRegularChannel                          ./Libraries/N32_Std_Driver/n32g45x_std_periph_driver/src/n32g45x_adc.o
ADC_DeInit                                        ./Libraries/N32_Std_Driver/n32g45x_std_periph_driver/src/n32g45x_adc.o
ADC_Enable                                        ./Libraries/N32_Std_Driver/n32g45x_std_periph_driver/src/n32g45x_adc.o
ADC_EnableAutoInjectedConv                        ./Libraries/N32_Std_Driver/n32g45x_std_periph_driver/src/n32g45x_adc.o
ADC_EnableDMA                                     ./Libraries/N32_Std_Driver/n32g45x_std_periph_driver/src/n32g45x_adc.o
ADC_EnableDiscMode                                ./Libraries/N32_Std_Driver/n32g45x_std_periph_driver/src/n32g45x_adc.o
ADC_EnableExternalTrigConv                        ./Libraries/N32_Std_Driver/n32g45x_std_periph_driver/src/n32g45x_adc.o
ADC_EnableExternalTrigInjectedConv                ./Libraries/N32_Std_Driver/n32g45x_std_periph_driver/src/n32g45x_adc.o
ADC_EnableInjectedDiscMode                        ./Libraries/N32_Std_Driver/n32g45x_std_periph_driver/src/n32g45x_adc.o
ADC_EnableSoftwareStartConv                       ./Libraries/N32_Std_Driver/n32g45x_std_periph_driver/src/n32g45x_adc.o
ADC_EnableSoftwareStartInjectedConv               ./Libraries/N32_Std_Driver/n32g45x_std_periph_driver/src/n32g45x_adc.o
ADC_EnableTempSensorVrefint                       ./Libraries/N32_Std_Driver/n32g45x_std_periph_driver/src/n32g45x_adc.o
ADC_GetCalibrationStatus                          ./Libraries/N32_Std_Driver/n32g45x_std_periph_driver/src/n32g45x_adc.o
ADC_GetDat                                        ./Libraries/N32_Std_Driver/n32g45x_std_periph_driver/src/n32g45x_adc.o
ADC_GetDualModeConversionDat                      ./Libraries/N32_Std_Driver/n32g45x_std_periph_driver/src/n32g45x_adc.o
ADC_GetFlagStatus                                 ./Libraries/N32_Std_Driver/n32g45x_std_periph_driver/src/n32g45x_adc.o
ADC_GetFlagStatusNew                              ./Libraries/N32_Std_Driver/n32g45x_std_periph_driver/src/n32g45x_adc.o
ADC_GetInjectedConversionDat                      ./Libraries/N32_Std_Driver/n32g45x_std_periph_driver/src/n32g45x_adc.o
ADC_GetIntStatus                                  ./Libraries/N32_Std_Driver/n32g45x_std_periph_driver/src/n32g45x_adc.o
ADC_GetSoftwareStartConvStatus                    ./Libraries/N32_Std_Driver/n32g45x_std_periph_driver/src/n32g45x_adc.o
ADC_GetSoftwareStartInjectedConvCmdStatus         ./Libraries/N32_Std_Driver/n32g45x_std_periph_driver/src/n32g45x_adc.o
ADC_Init                                          ./Libraries/N32_Std_Driver/n32g45x_std_periph_driver/src/n32g45x_adc.o
ADC_InitEx                                        ./Libraries/N32_Std_Driver/n32g45x_std_periph_driver/src/n32g45x_adc.o
ADC_InitStruct                                    ./Libraries/N32_Std_Driver/n32g45x_std_periph_driver/src/n32g45x_adc.o
ADC_SetBypassCalibration                          ./Libraries/N32_Std_Driver/n32g45x_std_periph_driver/src/n32g45x_adc.o
ADC_SetConvResultBitNum                           ./Libraries/N32_Std_Driver/n32g45x_std_periph_driver/src/n32g45x_adc.o
ADC_SetDifChsEnable                               ./Libraries/N32_Std_Driver/n32g45x_std_periph_driver/src/n32g45x_adc.o
ADC_SetInjectedOffsetDat                          ./Libraries/N32_Std_Driver/n32g45x_std_periph_driver/src/n32g45x_adc.o
ADC_StartCalibration                              ./Libraries/N32_Std_Driver/n32g45x_std_periph_driver/src/n32g45x_adc.o
AHBPrescTable                                     ./Libraries/N32_Std_Driver/CMSIS/device/system_n32g45x.o
BKP_ClrTEFlag                                     ./Libraries/N32_Std_Driver/n32g45x_std_periph_driver/src/n32g45x_bkp.o
BKP_ClrTINTFlag                                   ./Libraries/N32_Std_Driver/n32g45x_std_periph_driver/src/n32g45x_bkp.o
BKP_ConfigTPLevel                                 ./Libraries/N32_Std_Driver/n32g45x_std_periph_driver/src/n32g45x_bkp.o
BKP_DeInit                                        ./Libraries/N32_Std_Driver/n32g45x_std_periph_driver/src/n32g45x_bkp.o
BKP_GetTEFlag                                     ./Libraries/N32_Std_Driver/n32g45x_std_periph_driver/src/n32g45x_bkp.o
BKP_GetTINTFlag                                   ./Libraries/N32_Std_Driver/n32g45x_std_periph_driver/src/n32g45x_bkp.o
BKP_ReadBkpData                                   ./Libraries/N32_Std_Driver/n32g45x_std_periph_driver/src/n32g45x_bkp.o
BKP_TPEnable                                      ./Libraries/N32_Std_Driver/n32g45x_std_periph_driver/src/n32g45x_bkp.o
BKP_TPIntEnable                                   ./Libraries/N32_Std_Driver/n32g45x_std_periph_driver/src/n32g45x_bkp.o
BKP_WriteBkpData                                  ./Libraries/N32_Std_Driver/n32g45x_std_periph_driver/src/n32g45x_bkp.o
BusFault_Handler                                  ./Libraries/N32_Std_Driver/CMSIS/device/startup/startup_n32g45x_gcc.o
CAN1_InitFilter                                   ./Libraries/N32_Std_Driver/n32g45x_std_periph_driver/src/n32g45x_can.o
CAN1_RX1_IRQHandler                               ./Libraries/N32_Std_Driver/CMSIS/device/startup/startup_n32g45x_gcc.o
CAN1_SCE_IRQHandler                               ./Libraries/N32_Std_Driver/CMSIS/device/startup/startup_n32g45x_gcc.o
CAN2_InitFilter                                   ./Libraries/N32_Std_Driver/n32g45x_std_periph_driver/src/n32g45x_can.o
CAN2_RX0_IRQHandler                               ./Libraries/N32_Std_Driver/CMSIS/device/startup/startup_n32g45x_gcc.o
CAN2_RX1_IRQHandler                               ./Libraries/N32_Std_Driver/CMSIS/device/startup/startup_n32g45x_gcc.o
CAN2_SCE_IRQHandler                               ./Libraries/N32_Std_Driver/CMSIS/device/startup/startup_n32g45x_gcc.o
CAN2_TX_IRQHandler                                ./Libraries/N32_Std_Driver/CMSIS/device/startup/startup_n32g45x_gcc.o
CAN_CancelTransmitMessage                         ./Libraries/N32_Std_Driver/n32g45x_std_periph_driver/src/n32g45x_can.o
CAN_ClearFlag                                     ./Libraries/N32_Std_Driver/n32g45x_std_periph_driver/src/n32g45x_can.o
CAN_ClearINTPendingBit                            ./Libraries/N32_Std_Driver/n32g45x_std_periph_driver/src/n32g45x_can.o
CAN_DeInit                                        ./Libraries/N32_Std_Driver/n32g45x_std_periph_driver/src/n32g45x_can.o
CAN_DebugFreeze                                   ./Libraries/N32_Std_Driver/n32g45x_std_periph_driver/src/n32g45x_can.o
CAN_EnTTComMode                                   ./Libraries/N32_Std_Driver/n32g45x_std_periph_driver/src/n32g45x_can.o
CAN_EnterSleep                                    ./Libraries/N32_Std_Driver/n32g45x_std_periph_driver/src/n32g45x_can.o
CAN_GetFlagSTS                                    ./Libraries/N32_Std_Driver/n32g45x_std_periph_driver/src/n32g45x_can.o
CAN_GetIntStatus                                  ./Libraries/N32_Std_Driver/n32g45x_std_periph_driver/src/n32g45x_can.o
CAN_GetLSBTransmitErrCounter                      ./Libraries/N32_Std_Driver/n32g45x_std_periph_driver/src/n32g45x_can.o
CAN_GetLastErrCode                                ./Libraries/N32_Std_Driver/n32g45x_std_periph_driver/src/n32g45x_can.o
CAN_GetReceiveErrCounter                          ./Libraries/N32_Std_Driver/n32g45x_std_periph_driver/src/n32g45x_can.o
CAN_INTConfig                                     ./Libraries/N32_Std_Driver/n32g45x_std_periph_driver/src/n32g45x_can.o
CAN_Init                                          ./Libraries/N32_Std_Driver/n32g45x_std_periph_driver/src/n32g45x_can.o
CAN_InitStruct                                    ./Libraries/N32_Std_Driver/n32g45x_std_periph_driver/src/n32g45x_can.o
CAN_OperatingModeReq                              ./Libraries/N32_Std_Driver/n32g45x_std_periph_driver/src/n32g45x_can.o
CAN_PendingMessage                                ./Libraries/N32_Std_Driver/n32g45x_std_periph_driver/src/n32g45x_can.o
CAN_ReceiveMessage                                ./Libraries/N32_Std_Driver/n32g45x_std_periph_driver/src/n32g45x_can.o
CAN_ReleaseFIFO                                   ./Libraries/N32_Std_Driver/n32g45x_std_periph_driver/src/n32g45x_can.o
CAN_TransmitMessage                               ./Libraries/N32_Std_Driver/n32g45x_std_periph_driver/src/n32g45x_can.o
CAN_TransmitSTS                                   ./Libraries/N32_Std_Driver/n32g45x_std_periph_driver/src/n32g45x_can.o
CAN_WakeUp                                        ./Libraries/N32_Std_Driver/n32g45x_std_periph_driver/src/n32g45x_can.o
COMP_DeInit                                       ./Libraries/N32_Std_Driver/n32g45x_std_periph_driver/src/n32g45x_comp.o
COMP_Enable                                       ./Libraries/N32_Std_Driver/n32g45x_std_periph_driver/src/n32g45x_comp.o
COMP_GetIntSts                                    ./Libraries/N32_Std_Driver/n32g45x_std_periph_driver/src/n32g45x_comp.o
COMP_GetIntStsOneComp                             ./Libraries/N32_Std_Driver/n32g45x_std_periph_driver/src/n32g45x_comp.o
COMP_GetOutStatus                                 ./Libraries/N32_Std_Driver/n32g45x_std_periph_driver/src/n32g45x_comp.o
COMP_Init                                         ./Libraries/N32_Std_Driver/n32g45x_std_periph_driver/src/n32g45x_comp.o
COMP_SetBlanking                                  ./Libraries/N32_Std_Driver/n32g45x_std_periph_driver/src/n32g45x_comp.o
COMP_SetFilterControl                             ./Libraries/N32_Std_Driver/n32g45x_std_periph_driver/src/n32g45x_comp.o
COMP_SetFilterPrescaler                           ./Libraries/N32_Std_Driver/n32g45x_std_periph_driver/src/n32g45x_comp.o
COMP_SetHyst                                      ./Libraries/N32_Std_Driver/n32g45x_std_periph_driver/src/n32g45x_comp.o
COMP_SetInmSel                                    ./Libraries/N32_Std_Driver/n32g45x_std_periph_driver/src/n32g45x_comp.o
COMP_SetInpSel                                    ./Libraries/N32_Std_Driver/n32g45x_std_periph_driver/src/n32g45x_comp.o
COMP_SetIntEn                                     ./Libraries/N32_Std_Driver/n32g45x_std_periph_driver/src/n32g45x_comp.o
COMP_SetLock                                      ./Libraries/N32_Std_Driver/n32g45x_std_periph_driver/src/n32g45x_comp.o
COMP_SetOutTrig                                   ./Libraries/N32_Std_Driver/n32g45x_std_periph_driver/src/n32g45x_comp.o
COMP_SetRefScl                                    ./Libraries/N32_Std_Driver/n32g45x_std_periph_driver/src/n32g45x_comp.o
COMP_StructInit                                   ./Libraries/N32_Std_Driver/n32g45x_std_periph_driver/src/n32g45x_comp.o
CRC16_CalcBufCrc                                  ./Libraries/N32_Std_Driver/n32g45x_std_periph_driver/src/n32g45x_crc.o
CRC16_CalcCRC                                     ./Libraries/N32_Std_Driver/n32g45x_std_periph_driver/src/n32g45x_crc.o
CRC32_CalcBufCrc                                  ./Libraries/N32_Std_Driver/n32g45x_std_periph_driver/src/n32g45x_crc.o
CRC32_CalcCrc                                     ./Libraries/N32_Std_Driver/n32g45x_std_periph_driver/src/n32g45x_crc.o
CRC32_GetCrc                                      ./Libraries/N32_Std_Driver/n32g45x_std_periph_driver/src/n32g45x_crc.o
CRC32_GetIDat                                     ./Libraries/N32_Std_Driver/n32g45x_std_periph_driver/src/n32g45x_crc.o
CRC32_ResetCrc                                    ./Libraries/N32_Std_Driver/n32g45x_std_periph_driver/src/n32g45x_crc.o
CRC32_SetIDat                                     ./Libraries/N32_Std_Driver/n32g45x_std_periph_driver/src/n32g45x_crc.o
